{
	"src/CrowdFundingFactory.sol": {
		"CrowdFundingFactory": {
			"abi": [
				{
					"inputs": [],
					"name": "DeadLineToFar",
					"type": "error"
				},
				{
					"inputs": [],
					"name": "DeadLineTooClose",
					"type": "error"
				},
				{
					"inputs": [],
					"name": "InsufficientFee",
					"type": "error"
				},
				{
					"inputs": [],
					"name": "InvalidDeadLine",
					"type": "error"
				},
				{
					"inputs": [],
					"name": "InvalidGoal",
					"type": "error"
				},
				{
					"inputs": [],
					"name": "LessThanMinimumGoal",
					"type": "error"
				},
				{
					"anonymous": false,
					"inputs": [
						{
							"indexed": true,
							"internalType": "address",
							"name": "creator",
							"type": "address"
						},
						{
							"indexed": false,
							"internalType": "uint256",
							"name": "feesPaid",
							"type": "uint256"
						},
						{
							"indexed": false,
							"internalType": "uint256",
							"name": "campaignId",
							"type": "uint256"
						}
					],
					"name": "CampaignCreated",
					"type": "event"
				},
				{
					"inputs": [],
					"name": "CREATION_FEE",
					"outputs": [
						{
							"internalType": "uint256",
							"name": "",
							"type": "uint256"
						}
					],
					"stateMutability": "view",
					"type": "function"
				},
				{
					"inputs": [],
					"name": "MINIMUM_USD",
					"outputs": [
						{
							"internalType": "uint256",
							"name": "",
							"type": "uint256"
						}
					],
					"stateMutability": "view",
					"type": "function"
				},
				{
					"inputs": [
						{
							"internalType": "uint256",
							"name": "",
							"type": "uint256"
						}
					],
					"name": "campaigns",
					"outputs": [
						{
							"internalType": "address",
							"name": "campaignAddress",
							"type": "address"
						},
						{
							"internalType": "address",
							"name": "creator",
							"type": "address"
						},
						{
							"internalType": "uint256",
							"name": "goal",
							"type": "uint256"
						},
						{
							"internalType": "uint256",
							"name": "createdAt",
							"type": "uint256"
						}
					],
					"stateMutability": "view",
					"type": "function"
				},
				{
					"inputs": [
						{
							"internalType": "uint256",
							"name": "_goal",
							"type": "uint256"
						},
						{
							"internalType": "uint256",
							"name": "_deadine",
							"type": "uint256"
						}
					],
					"name": "createCampaign",
					"outputs": [],
					"stateMutability": "payable",
					"type": "function"
				}
			],
			"devdoc": {
				"kind": "dev",
				"methods": {},
				"version": 1
			},
			"evm": {
				"assembly": "    /* \"src/CrowdFundingFactory.sol\":219:2007  contract CrowdFundingFactory{... */\n  mstore(0x40, 0x80)\n  callvalue\n  dup1\n  iszero\n  tag_1\n  jumpi\n  revert(0x00, 0x00)\ntag_1:\n  pop\n  dataSize(sub_0)\n  dup1\n  dataOffset(sub_0)\n  0x00\n  codecopy\n  0x00\n  return\nstop\n\nsub_0: assembly {\n        /* \"src/CrowdFundingFactory.sol\":219:2007  contract CrowdFundingFactory{... */\n      mstore(0x40, 0x80)\n      jumpi(tag_1, lt(calldatasize, 0x04))\n      shr(0xe0, calldataload(0x00))\n      dup1\n      0x141961bc\n      eq\n      tag_2\n      jumpi\n      dup1\n      0x22502268\n      eq\n      tag_3\n      jumpi\n      dup1\n      0x49a2104d\n      eq\n      tag_4\n      jumpi\n      dup1\n      0x6b69a592\n      eq\n      tag_5\n      jumpi\n    tag_1:\n      revert(0x00, 0x00)\n        /* \"src/CrowdFundingFactory.sol\":632:682  mapping (uint256 => CampaignInfo) public campaigns */\n    tag_2:\n      callvalue\n      dup1\n      iszero\n      tag_6\n      jumpi\n      revert(0x00, 0x00)\n    tag_6:\n      pop\n      tag_7\n      0x04\n      dup1\n      calldatasize\n      sub\n      dup2\n      add\n      swap1\n      tag_8\n      swap2\n      swap1\n      tag_9\n      jump\t// in\n    tag_8:\n      tag_10\n      jump\t// in\n    tag_7:\n      mload(0x40)\n      tag_11\n      swap5\n      swap4\n      swap3\n      swap2\n      swap1\n      tag_12\n      jump\t// in\n    tag_11:\n      mload(0x40)\n      dup1\n      swap2\n      sub\n      swap1\n      return\n        /* \"src/CrowdFundingFactory.sol\":696:2000  function createCampaign( uint256 _goal, uint256 _deadine) external payable   {... */\n    tag_3:\n      tag_13\n      0x04\n      dup1\n      calldatasize\n      sub\n      dup2\n      add\n      swap1\n      tag_14\n      swap2\n      swap1\n      tag_15\n      jump\t// in\n    tag_14:\n      tag_16\n      jump\t// in\n    tag_13:\n      stop\n        /* \"src/CrowdFundingFactory.sol\":335:385  uint256 constant public CREATION_FEE = 0.010 ether */\n    tag_4:\n      callvalue\n      dup1\n      iszero\n      tag_17\n      jumpi\n      revert(0x00, 0x00)\n    tag_17:\n      pop\n      tag_18\n      tag_19\n      jump\t// in\n    tag_18:\n      mload(0x40)\n      tag_20\n      swap2\n      swap1\n      tag_21\n      jump\t// in\n    tag_20:\n      mload(0x40)\n      dup1\n      swap2\n      sub\n      swap1\n      return\n        /* \"src/CrowdFundingFactory.sol\":286:328  uint256 constant public MINIMUM_USD = 1e16 */\n    tag_5:\n      callvalue\n      dup1\n      iszero\n      tag_22\n      jumpi\n      revert(0x00, 0x00)\n    tag_22:\n      pop\n      tag_23\n      tag_24\n      jump\t// in\n    tag_23:\n      mload(0x40)\n      tag_25\n      swap2\n      swap1\n      tag_21\n      jump\t// in\n    tag_25:\n      mload(0x40)\n      dup1\n      swap2\n      sub\n      swap1\n      return\n        /* \"src/CrowdFundingFactory.sol\":632:682  mapping (uint256 => CampaignInfo) public campaigns */\n    tag_10:\n      mstore(0x20, 0x01)\n      dup1\n      0x00\n      mstore\n      keccak256(0x00, 0x40)\n      0x00\n      swap2\n      pop\n      swap1\n      pop\n      dup1\n      0x00\n      add\n      0x00\n      swap1\n      sload\n      swap1\n      0x0100\n      exp\n      swap1\n      div\n      0xffffffffffffffffffffffffffffffffffffffff\n      and\n      swap1\n      dup1\n      0x01\n      add\n      0x00\n      swap1\n      sload\n      swap1\n      0x0100\n      exp\n      swap1\n      div\n      0xffffffffffffffffffffffffffffffffffffffff\n      and\n      swap1\n      dup1\n      0x02\n      add\n      sload\n      swap1\n      dup1\n      0x03\n      add\n      sload\n      swap1\n      pop\n      dup5\n      jump\t// out\n        /* \"src/CrowdFundingFactory.sol\":696:2000  function createCampaign( uint256 _goal, uint256 _deadine) external payable   {... */\n    tag_16:\n        /* \"src/CrowdFundingFactory.sol\":784:806  uint256 durationInDays */\n      0x00\n        /* \"src/CrowdFundingFactory.sol\":820:826  1 days */\n      0x015180\n        /* \"src/CrowdFundingFactory.sol\":809:817  _deadine */\n      dup3\n        /* \"src/CrowdFundingFactory.sol\":809:826  _deadine * 1 days */\n      tag_27\n      swap2\n      swap1\n      tag_28\n      jump\t// in\n    tag_27:\n        /* \"src/CrowdFundingFactory.sol\":784:826  uint256 durationInDays = _deadine * 1 days */\n      swap1\n      pop\n        /* \"src/CrowdFundingFactory.sol\":860:861  0 */\n      0x00\n        /* \"src/CrowdFundingFactory.sol\":851:856  _goal */\n      dup4\n        /* \"src/CrowdFundingFactory.sol\":851:861  _goal == 0 */\n      sub\n        /* \"src/CrowdFundingFactory.sol\":848:884  if(_goal == 0 ) revert InvalidGoal() */\n      tag_29\n      jumpi\n        /* \"src/CrowdFundingFactory.sol\":871:884  InvalidGoal() */\n      mload(0x40)\n      0x9b60eb4d00000000000000000000000000000000000000000000000000000000\n      dup2\n      mstore\n      0x04\n      add\n      mload(0x40)\n      dup1\n      swap2\n      sub\n      swap1\n      revert\n        /* \"src/CrowdFundingFactory.sol\":848:884  if(_goal == 0 ) revert InvalidGoal() */\n    tag_29:\n        /* \"src/CrowdFundingFactory.sol\":324:328  1e16 */\n      0x2386f26fc10000\n        /* \"src/CrowdFundingFactory.sol\":900:905  _goal */\n      dup4\n        /* \"src/CrowdFundingFactory.sol\":900:919  _goal < MINIMUM_USD */\n      lt\n        /* \"src/CrowdFundingFactory.sol\":897:949  if(_goal < MINIMUM_USD) revert LessThanMinimumGoal() */\n      iszero\n      tag_30\n      jumpi\n        /* \"src/CrowdFundingFactory.sol\":928:949  LessThanMinimumGoal() */\n      mload(0x40)\n      0x72cf1f4400000000000000000000000000000000000000000000000000000000\n      dup2\n      mstore\n      0x04\n      add\n      mload(0x40)\n      dup1\n      swap2\n      sub\n      swap1\n      revert\n        /* \"src/CrowdFundingFactory.sol\":897:949  if(_goal < MINIMUM_USD) revert LessThanMinimumGoal() */\n    tag_30:\n        /* \"src/CrowdFundingFactory.sol\":983:984  0 */\n      0x00\n        /* \"src/CrowdFundingFactory.sol\":965:979  durationInDays */\n      dup2\n        /* \"src/CrowdFundingFactory.sol\":965:984  durationInDays == 0 */\n      sub\n        /* \"src/CrowdFundingFactory.sol\":962:1010  if(durationInDays == 0) revert InvalidDeadLine() */\n      tag_31\n      jumpi\n        /* \"src/CrowdFundingFactory.sol\":993:1010  InvalidDeadLine() */\n      mload(0x40)\n      0x4da5d91a00000000000000000000000000000000000000000000000000000000\n      dup2\n      mstore\n      0x04\n      add\n      mload(0x40)\n      dup1\n      swap2\n      sub\n      swap1\n      revert\n        /* \"src/CrowdFundingFactory.sol\":962:1010  if(durationInDays == 0) revert InvalidDeadLine() */\n    tag_31:\n        /* \"src/CrowdFundingFactory.sol\":1045:1051  1 days */\n      0x015180\n        /* \"src/CrowdFundingFactory.sol\":1026:1040  durationInDays */\n      dup2\n        /* \"src/CrowdFundingFactory.sol\":1026:1051  durationInDays <=  1 days */\n      gt\n        /* \"src/CrowdFundingFactory.sol\":1023:1078  if(durationInDays <=  1 days) revert DeadLineTooClose() */\n      tag_32\n      jumpi\n        /* \"src/CrowdFundingFactory.sol\":1060:1078  DeadLineTooClose() */\n      mload(0x40)\n      0x5e0240f900000000000000000000000000000000000000000000000000000000\n      dup2\n      mstore\n      0x04\n      add\n      mload(0x40)\n      dup1\n      swap2\n      sub\n      swap1\n      revert\n        /* \"src/CrowdFundingFactory.sol\":1023:1078  if(durationInDays <=  1 days) revert DeadLineTooClose() */\n    tag_32:\n        /* \"src/CrowdFundingFactory.sol\":1113:1121  365 days */\n      0x01e13380\n        /* \"src/CrowdFundingFactory.sol\":1094:1108  durationInDays */\n      dup2\n        /* \"src/CrowdFundingFactory.sol\":1094:1121  durationInDays >=  365 days */\n      lt\n        /* \"src/CrowdFundingFactory.sol\":1091:1146  if(durationInDays >=  365 days ) revert DeadLineToFar() */\n      tag_33\n      jumpi\n        /* \"src/CrowdFundingFactory.sol\":1131:1146  DeadLineToFar() */\n      mload(0x40)\n      0xfc8f148c00000000000000000000000000000000000000000000000000000000\n      dup2\n      mstore\n      0x04\n      add\n      mload(0x40)\n      dup1\n      swap2\n      sub\n      swap1\n      revert\n        /* \"src/CrowdFundingFactory.sol\":1091:1146  if(durationInDays >=  365 days ) revert DeadLineToFar() */\n    tag_33:\n        /* \"src/CrowdFundingFactory.sol\":374:385  0.010 ether */\n      0x2386f26fc10000\n        /* \"src/CrowdFundingFactory.sol\":1162:1171  msg.value */\n      callvalue\n        /* \"src/CrowdFundingFactory.sol\":1162:1187  msg.value <= CREATION_FEE */\n      gt\n        /* \"src/CrowdFundingFactory.sol\":1159:1213  if(msg.value <= CREATION_FEE) revert InsufficientFee() */\n      tag_34\n      jumpi\n        /* \"src/CrowdFundingFactory.sol\":1196:1213  InsufficientFee() */\n      mload(0x40)\n      0x025dbdd400000000000000000000000000000000000000000000000000000000\n      dup2\n      mstore\n      0x04\n      add\n      mload(0x40)\n      dup1\n      swap2\n      sub\n      swap1\n      revert\n        /* \"src/CrowdFundingFactory.sol\":1159:1213  if(msg.value <= CREATION_FEE) revert InsufficientFee() */\n    tag_34:\n        /* \"src/CrowdFundingFactory.sol\":1234:1246  uint256 goal */\n      0x00\n        /* \"src/CrowdFundingFactory.sol\":1249:1275  UnitConverter.toWei(_goal) */\n      tag_35\n        /* \"src/CrowdFundingFactory.sol\":1269:1274  _goal */\n      dup5\n        /* \"src/CrowdFundingFactory.sol\":1249:1268  UnitConverter.toWei */\n      tag_36\n        /* \"src/CrowdFundingFactory.sol\":1249:1275  UnitConverter.toWei(_goal) */\n      jump\t// in\n    tag_35:\n        /* \"src/CrowdFundingFactory.sol\":1234:1275  uint256 goal = UnitConverter.toWei(_goal) */\n      swap1\n      pop\n        /* \"src/CrowdFundingFactory.sol\":1288:1306  Campaign _campaign */\n      0x00\n        /* \"src/CrowdFundingFactory.sol\":1336:1346  msg.sender */\n      caller\n        /* \"src/CrowdFundingFactory.sol\":1361:1365  goal */\n      dup3\n        /* \"src/CrowdFundingFactory.sol\":1380:1388  _deadine */\n      dup6\n        /* \"src/CrowdFundingFactory.sol\":1309:1399  new Campaign(... */\n      mload(0x40)\n      tag_37\n      swap1\n      tag_38\n      jump\t// in\n    tag_37:\n      tag_39\n      swap4\n      swap3\n      swap2\n      swap1\n      tag_40\n      jump\t// in\n    tag_39:\n      mload(0x40)\n      dup1\n      swap2\n      sub\n      swap1\n      0x00\n      create\n      dup1\n      iszero\n      dup1\n      iszero\n      tag_41\n      jumpi\n      returndatacopy(0x00, 0x00, returndatasize)\n      revert(0x00, returndatasize)\n    tag_41:\n      pop\n        /* \"src/CrowdFundingFactory.sol\":1288:1399  Campaign _campaign = new Campaign(... */\n      swap1\n      pop\n        /* \"src/CrowdFundingFactory.sol\":1441:1616  CampaignInfo({... */\n      mload(0x40)\n      dup1\n      0x80\n      add\n      0x40\n      mstore\n      dup1\n        /* \"src/CrowdFundingFactory.sol\":1494:1503  _campaign */\n      dup3\n        /* \"src/CrowdFundingFactory.sol\":1441:1616  CampaignInfo({... */\n      0xffffffffffffffffffffffffffffffffffffffff\n      and\n      dup2\n      mstore\n      0x20\n      add\n        /* \"src/CrowdFundingFactory.sol\":1528:1538  msg.sender */\n      caller\n        /* \"src/CrowdFundingFactory.sol\":1441:1616  CampaignInfo({... */\n      0xffffffffffffffffffffffffffffffffffffffff\n      and\n      dup2\n      mstore\n      0x20\n      add\n        /* \"src/CrowdFundingFactory.sol\":1559:1563  goal */\n      dup4\n        /* \"src/CrowdFundingFactory.sol\":1441:1616  CampaignInfo({... */\n      dup2\n      mstore\n      0x20\n      add\n        /* \"src/CrowdFundingFactory.sol\":1589:1604  block.timestamp */\n      timestamp\n        /* \"src/CrowdFundingFactory.sol\":1441:1616  CampaignInfo({... */\n      dup2\n      mstore\n      pop\n        /* \"src/CrowdFundingFactory.sol\":1412:1421  campaigns */\n      0x01\n        /* \"src/CrowdFundingFactory.sol\":1412:1438  campaigns[campaignCounter] */\n      0x00\n        /* \"src/CrowdFundingFactory.sol\":1422:1437  campaignCounter */\n      sload(0x00)\n        /* \"src/CrowdFundingFactory.sol\":1412:1438  campaigns[campaignCounter] */\n      dup2\n      mstore\n      0x20\n      add\n      swap1\n      dup2\n      mstore\n      0x20\n      add\n      0x00\n      keccak256\n        /* \"src/CrowdFundingFactory.sol\":1412:1616  campaigns[campaignCounter] = CampaignInfo({... */\n      0x00\n      dup3\n      add\n      mload\n      dup2\n      0x00\n      add\n      exp(0x0100, 0x00)\n      dup2\n      sload\n      dup2\n      0xffffffffffffffffffffffffffffffffffffffff\n      mul\n      not\n      and\n      swap1\n      dup4\n      0xffffffffffffffffffffffffffffffffffffffff\n      and\n      mul\n      or\n      swap1\n      sstore\n      pop\n      0x20\n      dup3\n      add\n      mload\n      dup2\n      0x01\n      add\n      exp(0x0100, 0x00)\n      dup2\n      sload\n      dup2\n      0xffffffffffffffffffffffffffffffffffffffff\n      mul\n      not\n      and\n      swap1\n      dup4\n      0xffffffffffffffffffffffffffffffffffffffff\n      and\n      mul\n      or\n      swap1\n      sstore\n      pop\n      0x40\n      dup3\n      add\n      mload\n      dup2\n      0x02\n      add\n      sstore\n      0x60\n      dup3\n      add\n      mload\n      dup2\n      0x03\n      add\n      sstore\n      swap1\n      pop\n      pop\n        /* \"src/CrowdFundingFactory.sol\":1629:1644  campaignCounter */\n      0x00\n      0x00\n        /* \"src/CrowdFundingFactory.sol\":1629:1646  campaignCounter++ */\n      dup2\n      sload\n      dup1\n      swap3\n      swap2\n      swap1\n      tag_42\n      swap1\n      tag_43\n      jump\t// in\n    tag_42:\n      swap2\n      swap1\n      pop\n      sstore\n      pop\n        /* \"src/CrowdFundingFactory.sol\":1680:1690  msg.sender */\n      caller\n        /* \"src/CrowdFundingFactory.sol\":1664:1719  CampaignCreated(msg.sender, msg.value, campaignCounter) */\n      0xffffffffffffffffffffffffffffffffffffffff\n      and\n      0x681f945f90ca3793b37315ed6a012353c82c1b37ca023ef835c746461359f552\n        /* \"src/CrowdFundingFactory.sol\":1692:1701  msg.value */\n      callvalue\n        /* \"src/CrowdFundingFactory.sol\":1703:1718  campaignCounter */\n      sload(0x00)\n        /* \"src/CrowdFundingFactory.sol\":1664:1719  CampaignCreated(msg.sender, msg.value, campaignCounter) */\n      mload(0x40)\n      tag_44\n      swap3\n      swap2\n      swap1\n      tag_45\n      jump\t// in\n    tag_44:\n      mload(0x40)\n      dup1\n      swap2\n      sub\n      swap1\n      log2\n        /* \"src/CrowdFundingFactory.sol\":374:385  0.010 ether */\n      0x2386f26fc10000\n        /* \"src/CrowdFundingFactory.sol\":1774:1783  msg.value */\n      callvalue\n        /* \"src/CrowdFundingFactory.sol\":1774:1798  msg.value > CREATION_FEE */\n      gt\n        /* \"src/CrowdFundingFactory.sol\":1771:1987  if(msg.value > CREATION_FEE){... */\n      iszero\n      tag_46\n      jumpi\n        /* \"src/CrowdFundingFactory.sol\":1814:1828  uint256 refund */\n      0x00\n        /* \"src/CrowdFundingFactory.sol\":374:385  0.010 ether */\n      0x2386f26fc10000\n        /* \"src/CrowdFundingFactory.sol\":1831:1840  msg.value */\n      callvalue\n        /* \"src/CrowdFundingFactory.sol\":1831:1855  msg.value - CREATION_FEE */\n      tag_47\n      swap2\n      swap1\n      tag_48\n      jump\t// in\n    tag_47:\n        /* \"src/CrowdFundingFactory.sol\":1814:1855  uint256 refund = msg.value - CREATION_FEE */\n      swap1\n      pop\n        /* \"src/CrowdFundingFactory.sol\":1869:1880  bool sucess */\n      0x00\n        /* \"src/CrowdFundingFactory.sol\":1895:1905  msg.sender */\n      caller\n        /* \"src/CrowdFundingFactory.sol\":1887:1911  payable(msg.sender).call */\n      0xffffffffffffffffffffffffffffffffffffffff\n      and\n        /* \"src/CrowdFundingFactory.sol\":1919:1925  refund */\n      dup3\n        /* \"src/CrowdFundingFactory.sol\":1887:1930  payable(msg.sender).call{value: refund}('') */\n      mload(0x40)\n      tag_49\n      swap1\n      tag_50\n      jump\t// in\n    tag_49:\n      0x00\n      mload(0x40)\n      dup1\n      dup4\n      sub\n      dup2\n      dup6\n      dup8\n      gas\n      call\n      swap3\n      pop\n      pop\n      pop\n      returndatasize\n      dup1\n      0x00\n      dup2\n      eq\n      tag_53\n      jumpi\n      mload(0x40)\n      swap2\n      pop\n      and(add(returndatasize, 0x3f), not(0x1f))\n      dup3\n      add\n      0x40\n      mstore\n      returndatasize\n      dup3\n      mstore\n      returndatasize\n      0x00\n      0x20\n      dup5\n      add\n      returndatacopy\n      jump(tag_52)\n    tag_53:\n      0x60\n      swap2\n      pop\n    tag_52:\n      pop\n        /* \"src/CrowdFundingFactory.sol\":1868:1930  (bool sucess, ) =  payable(msg.sender).call{value: refund}('') */\n      pop\n      swap1\n      pop\n        /* \"src/CrowdFundingFactory.sol\":1951:1957  sucess */\n      dup1\n        /* \"src/CrowdFundingFactory.sol\":1943:1975  require(sucess, \"Refund Failed\") */\n      tag_54\n      jumpi\n      mload(0x40)\n      0x08c379a000000000000000000000000000000000000000000000000000000000\n      dup2\n      mstore\n      0x04\n      add\n      tag_55\n      swap1\n      tag_56\n      jump\t// in\n    tag_55:\n      mload(0x40)\n      dup1\n      swap2\n      sub\n      swap1\n      revert\n    tag_54:\n        /* \"src/CrowdFundingFactory.sol\":1799:1987  {... */\n      pop\n      pop\n        /* \"src/CrowdFundingFactory.sol\":1771:1987  if(msg.value > CREATION_FEE){... */\n    tag_46:\n        /* \"src/CrowdFundingFactory.sol\":773:2000  {... */\n      pop\n      pop\n      pop\n        /* \"src/CrowdFundingFactory.sol\":696:2000  function createCampaign( uint256 _goal, uint256 _deadine) external payable   {... */\n      pop\n      pop\n      jump\t// out\n        /* \"src/CrowdFundingFactory.sol\":335:385  uint256 constant public CREATION_FEE = 0.010 ether */\n    tag_19:\n        /* \"src/CrowdFundingFactory.sol\":374:385  0.010 ether */\n      0x2386f26fc10000\n        /* \"src/CrowdFundingFactory.sol\":335:385  uint256 constant public CREATION_FEE = 0.010 ether */\n      dup2\n      jump\t// out\n        /* \"src/CrowdFundingFactory.sol\":286:328  uint256 constant public MINIMUM_USD = 1e16 */\n    tag_24:\n        /* \"src/CrowdFundingFactory.sol\":324:328  1e16 */\n      0x2386f26fc10000\n        /* \"src/CrowdFundingFactory.sol\":286:328  uint256 constant public MINIMUM_USD = 1e16 */\n      dup2\n      jump\t// out\n        /* \"src/UnitConverter.sol\":95:195  function toWei(uint256 amount) internal pure returns(uint256){... */\n    tag_36:\n        /* \"src/UnitConverter.sol\":148:155  uint256 */\n      0x00\n        /* \"src/UnitConverter.sol\":183:187  1e18 */\n      0x0de0b6b3a7640000\n        /* \"src/UnitConverter.sol\":174:180  amount */\n      dup3\n        /* \"src/UnitConverter.sol\":174:187  amount * 1e18 */\n      tag_58\n      swap2\n      swap1\n      tag_28\n      jump\t// in\n    tag_58:\n        /* \"src/UnitConverter.sol\":167:187  return amount * 1e18 */\n      swap1\n      pop\n        /* \"src/UnitConverter.sol\":95:195  function toWei(uint256 amount) internal pure returns(uint256){... */\n      swap2\n      swap1\n      pop\n      jump\t// out\n    tag_38:\n      dataSize(sub_0)\n      dup1\n      dataOffset(sub_0)\n      dup4\n      codecopy\n      add\n      swap1\n      jump\t// out\n        /* \"#utility.yul\":88:205   */\n    tag_60:\n        /* \"#utility.yul\":197:198   */\n      0x00\n        /* \"#utility.yul\":194:195   */\n      0x00\n        /* \"#utility.yul\":187:199   */\n      revert\n        /* \"#utility.yul\":334:411   */\n    tag_62:\n        /* \"#utility.yul\":371:378   */\n      0x00\n        /* \"#utility.yul\":400:405   */\n      dup2\n        /* \"#utility.yul\":389:405   */\n      swap1\n      pop\n        /* \"#utility.yul\":334:411   */\n      swap2\n      swap1\n      pop\n      jump\t// out\n        /* \"#utility.yul\":417:539   */\n    tag_63:\n        /* \"#utility.yul\":490:514   */\n      tag_82\n        /* \"#utility.yul\":508:513   */\n      dup2\n        /* \"#utility.yul\":490:514   */\n      tag_62\n      jump\t// in\n    tag_82:\n        /* \"#utility.yul\":483:488   */\n      dup2\n        /* \"#utility.yul\":480:515   */\n      eq\n        /* \"#utility.yul\":470:533   */\n      tag_83\n      jumpi\n        /* \"#utility.yul\":529:530   */\n      0x00\n        /* \"#utility.yul\":526:527   */\n      0x00\n        /* \"#utility.yul\":519:531   */\n      revert\n        /* \"#utility.yul\":470:533   */\n    tag_83:\n        /* \"#utility.yul\":417:539   */\n      pop\n      jump\t// out\n        /* \"#utility.yul\":545:684   */\n    tag_64:\n        /* \"#utility.yul\":591:596   */\n      0x00\n        /* \"#utility.yul\":629:635   */\n      dup2\n        /* \"#utility.yul\":616:636   */\n      calldataload\n        /* \"#utility.yul\":607:636   */\n      swap1\n      pop\n        /* \"#utility.yul\":645:678   */\n      tag_85\n        /* \"#utility.yul\":672:677   */\n      dup2\n        /* \"#utility.yul\":645:678   */\n      tag_63\n      jump\t// in\n    tag_85:\n        /* \"#utility.yul\":545:684   */\n      swap3\n      swap2\n      pop\n      pop\n      jump\t// out\n        /* \"#utility.yul\":690:1019   */\n    tag_9:\n        /* \"#utility.yul\":749:755   */\n      0x00\n        /* \"#utility.yul\":798:800   */\n      0x20\n        /* \"#utility.yul\":786:795   */\n      dup3\n        /* \"#utility.yul\":777:784   */\n      dup5\n        /* \"#utility.yul\":773:796   */\n      sub\n        /* \"#utility.yul\":769:801   */\n      slt\n        /* \"#utility.yul\":766:885   */\n      iszero\n      tag_87\n      jumpi\n        /* \"#utility.yul\":804:883   */\n      tag_88\n      tag_60\n      jump\t// in\n    tag_88:\n        /* \"#utility.yul\":766:885   */\n    tag_87:\n        /* \"#utility.yul\":924:925   */\n      0x00\n        /* \"#utility.yul\":949:1002   */\n      tag_89\n        /* \"#utility.yul\":994:1001   */\n      dup5\n        /* \"#utility.yul\":985:991   */\n      dup3\n        /* \"#utility.yul\":974:983   */\n      dup6\n        /* \"#utility.yul\":970:992   */\n      add\n        /* \"#utility.yul\":949:1002   */\n      tag_64\n      jump\t// in\n    tag_89:\n        /* \"#utility.yul\":939:1002   */\n      swap2\n      pop\n        /* \"#utility.yul\":895:1012   */\n      pop\n        /* \"#utility.yul\":690:1019   */\n      swap3\n      swap2\n      pop\n      pop\n      jump\t// out\n        /* \"#utility.yul\":1025:1151   */\n    tag_65:\n        /* \"#utility.yul\":1062:1069   */\n      0x00\n        /* \"#utility.yul\":1102:1144   */\n      0xffffffffffffffffffffffffffffffffffffffff\n        /* \"#utility.yul\":1095:1100   */\n      dup3\n        /* \"#utility.yul\":1091:1145   */\n      and\n        /* \"#utility.yul\":1080:1145   */\n      swap1\n      pop\n        /* \"#utility.yul\":1025:1151   */\n      swap2\n      swap1\n      pop\n      jump\t// out\n        /* \"#utility.yul\":1157:1253   */\n    tag_66:\n        /* \"#utility.yul\":1194:1201   */\n      0x00\n        /* \"#utility.yul\":1223:1247   */\n      tag_92\n        /* \"#utility.yul\":1241:1246   */\n      dup3\n        /* \"#utility.yul\":1223:1247   */\n      tag_65\n      jump\t// in\n    tag_92:\n        /* \"#utility.yul\":1212:1247   */\n      swap1\n      pop\n        /* \"#utility.yul\":1157:1253   */\n      swap2\n      swap1\n      pop\n      jump\t// out\n        /* \"#utility.yul\":1259:1377   */\n    tag_67:\n        /* \"#utility.yul\":1346:1370   */\n      tag_94\n        /* \"#utility.yul\":1364:1369   */\n      dup2\n        /* \"#utility.yul\":1346:1370   */\n      tag_66\n      jump\t// in\n    tag_94:\n        /* \"#utility.yul\":1341:1344   */\n      dup3\n        /* \"#utility.yul\":1334:1371   */\n      mstore\n        /* \"#utility.yul\":1259:1377   */\n      pop\n      pop\n      jump\t// out\n        /* \"#utility.yul\":1383:1501   */\n    tag_68:\n        /* \"#utility.yul\":1470:1494   */\n      tag_96\n        /* \"#utility.yul\":1488:1493   */\n      dup2\n        /* \"#utility.yul\":1470:1494   */\n      tag_62\n      jump\t// in\n    tag_96:\n        /* \"#utility.yul\":1465:1468   */\n      dup3\n        /* \"#utility.yul\":1458:1495   */\n      mstore\n        /* \"#utility.yul\":1383:1501   */\n      pop\n      pop\n      jump\t// out\n        /* \"#utility.yul\":1507:2060   */\n    tag_12:\n        /* \"#utility.yul\":1684:1688   */\n      0x00\n        /* \"#utility.yul\":1722:1725   */\n      0x80\n        /* \"#utility.yul\":1711:1720   */\n      dup3\n        /* \"#utility.yul\":1707:1726   */\n      add\n        /* \"#utility.yul\":1699:1726   */\n      swap1\n      pop\n        /* \"#utility.yul\":1736:1807   */\n      tag_98\n        /* \"#utility.yul\":1804:1805   */\n      0x00\n        /* \"#utility.yul\":1793:1802   */\n      dup4\n        /* \"#utility.yul\":1789:1806   */\n      add\n        /* \"#utility.yul\":1780:1786   */\n      dup8\n        /* \"#utility.yul\":1736:1807   */\n      tag_67\n      jump\t// in\n    tag_98:\n        /* \"#utility.yul\":1817:1889   */\n      tag_99\n        /* \"#utility.yul\":1885:1887   */\n      0x20\n        /* \"#utility.yul\":1874:1883   */\n      dup4\n        /* \"#utility.yul\":1870:1888   */\n      add\n        /* \"#utility.yul\":1861:1867   */\n      dup7\n        /* \"#utility.yul\":1817:1889   */\n      tag_67\n      jump\t// in\n    tag_99:\n        /* \"#utility.yul\":1899:1971   */\n      tag_100\n        /* \"#utility.yul\":1967:1969   */\n      0x40\n        /* \"#utility.yul\":1956:1965   */\n      dup4\n        /* \"#utility.yul\":1952:1970   */\n      add\n        /* \"#utility.yul\":1943:1949   */\n      dup6\n        /* \"#utility.yul\":1899:1971   */\n      tag_68\n      jump\t// in\n    tag_100:\n        /* \"#utility.yul\":1981:2053   */\n      tag_101\n        /* \"#utility.yul\":2049:2051   */\n      0x60\n        /* \"#utility.yul\":2038:2047   */\n      dup4\n        /* \"#utility.yul\":2034:2052   */\n      add\n        /* \"#utility.yul\":2025:2031   */\n      dup5\n        /* \"#utility.yul\":1981:2053   */\n      tag_68\n      jump\t// in\n    tag_101:\n        /* \"#utility.yul\":1507:2060   */\n      swap6\n      swap5\n      pop\n      pop\n      pop\n      pop\n      pop\n      jump\t// out\n        /* \"#utility.yul\":2066:2540   */\n    tag_15:\n        /* \"#utility.yul\":2134:2140   */\n      0x00\n        /* \"#utility.yul\":2142:2148   */\n      0x00\n        /* \"#utility.yul\":2191:2193   */\n      0x40\n        /* \"#utility.yul\":2179:2188   */\n      dup4\n        /* \"#utility.yul\":2170:2177   */\n      dup6\n        /* \"#utility.yul\":2166:2189   */\n      sub\n        /* \"#utility.yul\":2162:2194   */\n      slt\n        /* \"#utility.yul\":2159:2278   */\n      iszero\n      tag_103\n      jumpi\n        /* \"#utility.yul\":2197:2276   */\n      tag_104\n      tag_60\n      jump\t// in\n    tag_104:\n        /* \"#utility.yul\":2159:2278   */\n    tag_103:\n        /* \"#utility.yul\":2317:2318   */\n      0x00\n        /* \"#utility.yul\":2342:2395   */\n      tag_105\n        /* \"#utility.yul\":2387:2394   */\n      dup6\n        /* \"#utility.yul\":2378:2384   */\n      dup3\n        /* \"#utility.yul\":2367:2376   */\n      dup7\n        /* \"#utility.yul\":2363:2385   */\n      add\n        /* \"#utility.yul\":2342:2395   */\n      tag_64\n      jump\t// in\n    tag_105:\n        /* \"#utility.yul\":2332:2395   */\n      swap3\n      pop\n        /* \"#utility.yul\":2288:2405   */\n      pop\n        /* \"#utility.yul\":2444:2446   */\n      0x20\n        /* \"#utility.yul\":2470:2523   */\n      tag_106\n        /* \"#utility.yul\":2515:2522   */\n      dup6\n        /* \"#utility.yul\":2506:2512   */\n      dup3\n        /* \"#utility.yul\":2495:2504   */\n      dup7\n        /* \"#utility.yul\":2491:2513   */\n      add\n        /* \"#utility.yul\":2470:2523   */\n      tag_64\n      jump\t// in\n    tag_106:\n        /* \"#utility.yul\":2460:2523   */\n      swap2\n      pop\n        /* \"#utility.yul\":2415:2533   */\n      pop\n        /* \"#utility.yul\":2066:2540   */\n      swap3\n      pop\n      swap3\n      swap1\n      pop\n      jump\t// out\n        /* \"#utility.yul\":2546:2768   */\n    tag_21:\n        /* \"#utility.yul\":2639:2643   */\n      0x00\n        /* \"#utility.yul\":2677:2679   */\n      0x20\n        /* \"#utility.yul\":2666:2675   */\n      dup3\n        /* \"#utility.yul\":2662:2680   */\n      add\n        /* \"#utility.yul\":2654:2680   */\n      swap1\n      pop\n        /* \"#utility.yul\":2690:2761   */\n      tag_108\n        /* \"#utility.yul\":2758:2759   */\n      0x00\n        /* \"#utility.yul\":2747:2756   */\n      dup4\n        /* \"#utility.yul\":2743:2760   */\n      add\n        /* \"#utility.yul\":2734:2740   */\n      dup5\n        /* \"#utility.yul\":2690:2761   */\n      tag_68\n      jump\t// in\n    tag_108:\n        /* \"#utility.yul\":2546:2768   */\n      swap3\n      swap2\n      pop\n      pop\n      jump\t// out\n        /* \"#utility.yul\":2774:2954   */\n    tag_69:\n        /* \"#utility.yul\":2822:2899   */\n      0x4e487b7100000000000000000000000000000000000000000000000000000000\n        /* \"#utility.yul\":2819:2820   */\n      0x00\n        /* \"#utility.yul\":2812:2900   */\n      mstore\n        /* \"#utility.yul\":2919:2923   */\n      0x11\n        /* \"#utility.yul\":2916:2917   */\n      0x04\n        /* \"#utility.yul\":2909:2924   */\n      mstore\n        /* \"#utility.yul\":2943:2947   */\n      0x24\n        /* \"#utility.yul\":2940:2941   */\n      0x00\n        /* \"#utility.yul\":2933:2948   */\n      revert\n        /* \"#utility.yul\":2960:3370   */\n    tag_28:\n        /* \"#utility.yul\":3000:3007   */\n      0x00\n        /* \"#utility.yul\":3023:3043   */\n      tag_111\n        /* \"#utility.yul\":3041:3042   */\n      dup3\n        /* \"#utility.yul\":3023:3043   */\n      tag_62\n      jump\t// in\n    tag_111:\n        /* \"#utility.yul\":3018:3043   */\n      swap2\n      pop\n        /* \"#utility.yul\":3057:3077   */\n      tag_112\n        /* \"#utility.yul\":3075:3076   */\n      dup4\n        /* \"#utility.yul\":3057:3077   */\n      tag_62\n      jump\t// in\n    tag_112:\n        /* \"#utility.yul\":3052:3077   */\n      swap3\n      pop\n        /* \"#utility.yul\":3112:3113   */\n      dup3\n        /* \"#utility.yul\":3109:3110   */\n      dup3\n        /* \"#utility.yul\":3105:3114   */\n      mul\n        /* \"#utility.yul\":3134:3164   */\n      tag_113\n        /* \"#utility.yul\":3152:3163   */\n      dup2\n        /* \"#utility.yul\":3134:3164   */\n      tag_62\n      jump\t// in\n    tag_113:\n        /* \"#utility.yul\":3123:3164   */\n      swap2\n      pop\n        /* \"#utility.yul\":3313:3314   */\n      dup3\n        /* \"#utility.yul\":3304:3311   */\n      dup3\n        /* \"#utility.yul\":3300:3315   */\n      div\n        /* \"#utility.yul\":3297:3298   */\n      dup5\n        /* \"#utility.yul\":3294:3316   */\n      eq\n        /* \"#utility.yul\":3274:3275   */\n      dup4\n        /* \"#utility.yul\":3267:3276   */\n      iszero\n        /* \"#utility.yul\":3247:3330   */\n      or\n        /* \"#utility.yul\":3224:3363   */\n      tag_114\n      jumpi\n        /* \"#utility.yul\":3343:3361   */\n      tag_115\n      tag_69\n      jump\t// in\n    tag_115:\n        /* \"#utility.yul\":3224:3363   */\n    tag_114:\n        /* \"#utility.yul\":3008:3370   */\n      pop\n        /* \"#utility.yul\":2960:3370   */\n      swap3\n      swap2\n      pop\n      pop\n      jump\t// out\n        /* \"#utility.yul\":3376:3818   */\n    tag_40:\n        /* \"#utility.yul\":3525:3529   */\n      0x00\n        /* \"#utility.yul\":3563:3565   */\n      0x60\n        /* \"#utility.yul\":3552:3561   */\n      dup3\n        /* \"#utility.yul\":3548:3566   */\n      add\n        /* \"#utility.yul\":3540:3566   */\n      swap1\n      pop\n        /* \"#utility.yul\":3576:3647   */\n      tag_117\n        /* \"#utility.yul\":3644:3645   */\n      0x00\n        /* \"#utility.yul\":3633:3642   */\n      dup4\n        /* \"#utility.yul\":3629:3646   */\n      add\n        /* \"#utility.yul\":3620:3626   */\n      dup7\n        /* \"#utility.yul\":3576:3647   */\n      tag_67\n      jump\t// in\n    tag_117:\n        /* \"#utility.yul\":3657:3729   */\n      tag_118\n        /* \"#utility.yul\":3725:3727   */\n      0x20\n        /* \"#utility.yul\":3714:3723   */\n      dup4\n        /* \"#utility.yul\":3710:3728   */\n      add\n        /* \"#utility.yul\":3701:3707   */\n      dup6\n        /* \"#utility.yul\":3657:3729   */\n      tag_68\n      jump\t// in\n    tag_118:\n        /* \"#utility.yul\":3739:3811   */\n      tag_119\n        /* \"#utility.yul\":3807:3809   */\n      0x40\n        /* \"#utility.yul\":3796:3805   */\n      dup4\n        /* \"#utility.yul\":3792:3810   */\n      add\n        /* \"#utility.yul\":3783:3789   */\n      dup5\n        /* \"#utility.yul\":3739:3811   */\n      tag_68\n      jump\t// in\n    tag_119:\n        /* \"#utility.yul\":3376:3818   */\n      swap5\n      swap4\n      pop\n      pop\n      pop\n      pop\n      jump\t// out\n        /* \"#utility.yul\":3824:4057   */\n    tag_43:\n        /* \"#utility.yul\":3863:3866   */\n      0x00\n        /* \"#utility.yul\":3886:3910   */\n      tag_121\n        /* \"#utility.yul\":3904:3909   */\n      dup3\n        /* \"#utility.yul\":3886:3910   */\n      tag_62\n      jump\t// in\n    tag_121:\n        /* \"#utility.yul\":3877:3910   */\n      swap2\n      pop\n        /* \"#utility.yul\":3932:3998   */\n      0xffffffffffffffffffffffffffffffffffffffffffffffffffffffffffffffff\n        /* \"#utility.yul\":3925:3930   */\n      dup3\n        /* \"#utility.yul\":3922:3999   */\n      sub\n        /* \"#utility.yul\":3919:4022   */\n      tag_122\n      jumpi\n        /* \"#utility.yul\":4002:4020   */\n      tag_123\n      tag_69\n      jump\t// in\n    tag_123:\n        /* \"#utility.yul\":3919:4022   */\n    tag_122:\n        /* \"#utility.yul\":4049:4050   */\n      0x01\n        /* \"#utility.yul\":4042:4047   */\n      dup3\n        /* \"#utility.yul\":4038:4051   */\n      add\n        /* \"#utility.yul\":4031:4051   */\n      swap1\n      pop\n        /* \"#utility.yul\":3824:4057   */\n      swap2\n      swap1\n      pop\n      jump\t// out\n        /* \"#utility.yul\":4063:4395   */\n    tag_45:\n        /* \"#utility.yul\":4184:4188   */\n      0x00\n        /* \"#utility.yul\":4222:4224   */\n      0x40\n        /* \"#utility.yul\":4211:4220   */\n      dup3\n        /* \"#utility.yul\":4207:4225   */\n      add\n        /* \"#utility.yul\":4199:4225   */\n      swap1\n      pop\n        /* \"#utility.yul\":4235:4306   */\n      tag_125\n        /* \"#utility.yul\":4303:4304   */\n      0x00\n        /* \"#utility.yul\":4292:4301   */\n      dup4\n        /* \"#utility.yul\":4288:4305   */\n      add\n        /* \"#utility.yul\":4279:4285   */\n      dup6\n        /* \"#utility.yul\":4235:4306   */\n      tag_68\n      jump\t// in\n    tag_125:\n        /* \"#utility.yul\":4316:4388   */\n      tag_126\n        /* \"#utility.yul\":4384:4386   */\n      0x20\n        /* \"#utility.yul\":4373:4382   */\n      dup4\n        /* \"#utility.yul\":4369:4387   */\n      add\n        /* \"#utility.yul\":4360:4366   */\n      dup5\n        /* \"#utility.yul\":4316:4388   */\n      tag_68\n      jump\t// in\n    tag_126:\n        /* \"#utility.yul\":4063:4395   */\n      swap4\n      swap3\n      pop\n      pop\n      pop\n      jump\t// out\n        /* \"#utility.yul\":4401:4595   */\n    tag_48:\n        /* \"#utility.yul\":4441:4445   */\n      0x00\n        /* \"#utility.yul\":4461:4481   */\n      tag_128\n        /* \"#utility.yul\":4479:4480   */\n      dup3\n        /* \"#utility.yul\":4461:4481   */\n      tag_62\n      jump\t// in\n    tag_128:\n        /* \"#utility.yul\":4456:4481   */\n      swap2\n      pop\n        /* \"#utility.yul\":4495:4515   */\n      tag_129\n        /* \"#utility.yul\":4513:4514   */\n      dup4\n        /* \"#utility.yul\":4495:4515   */\n      tag_62\n      jump\t// in\n    tag_129:\n        /* \"#utility.yul\":4490:4515   */\n      swap3\n      pop\n        /* \"#utility.yul\":4539:4540   */\n      dup3\n        /* \"#utility.yul\":4536:4537   */\n      dup3\n        /* \"#utility.yul\":4532:4541   */\n      sub\n        /* \"#utility.yul\":4524:4541   */\n      swap1\n      pop\n        /* \"#utility.yul\":4563:4564   */\n      dup2\n        /* \"#utility.yul\":4557:4561   */\n      dup2\n        /* \"#utility.yul\":4554:4565   */\n      gt\n        /* \"#utility.yul\":4551:4588   */\n      iszero\n      tag_130\n      jumpi\n        /* \"#utility.yul\":4568:4586   */\n      tag_131\n      tag_69\n      jump\t// in\n    tag_131:\n        /* \"#utility.yul\":4551:4588   */\n    tag_130:\n        /* \"#utility.yul\":4401:4595   */\n      swap3\n      swap2\n      pop\n      pop\n      jump\t// out\n        /* \"#utility.yul\":4601:4748   */\n    tag_70:\n        /* \"#utility.yul\":4702:4713   */\n      0x00\n        /* \"#utility.yul\":4739:4742   */\n      dup2\n        /* \"#utility.yul\":4724:4742   */\n      swap1\n      pop\n        /* \"#utility.yul\":4601:4748   */\n      swap3\n      swap2\n      pop\n      pop\n      jump\t// out\n        /* \"#utility.yul\":4754:4868   */\n    tag_71:\n      pop\n      jump\t// out\n        /* \"#utility.yul\":4874:5272   */\n    tag_72:\n        /* \"#utility.yul\":5033:5036   */\n      0x00\n        /* \"#utility.yul\":5054:5137   */\n      tag_135\n        /* \"#utility.yul\":5135:5136   */\n      0x00\n        /* \"#utility.yul\":5130:5133   */\n      dup4\n        /* \"#utility.yul\":5054:5137   */\n      tag_70\n      jump\t// in\n    tag_135:\n        /* \"#utility.yul\":5047:5137   */\n      swap2\n      pop\n        /* \"#utility.yul\":5146:5239   */\n      tag_136\n        /* \"#utility.yul\":5235:5238   */\n      dup3\n        /* \"#utility.yul\":5146:5239   */\n      tag_71\n      jump\t// in\n    tag_136:\n        /* \"#utility.yul\":5264:5265   */\n      0x00\n        /* \"#utility.yul\":5259:5262   */\n      dup3\n        /* \"#utility.yul\":5255:5266   */\n      add\n        /* \"#utility.yul\":5248:5266   */\n      swap1\n      pop\n        /* \"#utility.yul\":4874:5272   */\n      swap2\n      swap1\n      pop\n      jump\t// out\n        /* \"#utility.yul\":5278:5657   */\n    tag_50:\n        /* \"#utility.yul\":5462:5465   */\n      0x00\n        /* \"#utility.yul\":5484:5631   */\n      tag_138\n        /* \"#utility.yul\":5627:5630   */\n      dup3\n        /* \"#utility.yul\":5484:5631   */\n      tag_72\n      jump\t// in\n    tag_138:\n        /* \"#utility.yul\":5477:5631   */\n      swap2\n      pop\n        /* \"#utility.yul\":5648:5651   */\n      dup2\n        /* \"#utility.yul\":5641:5651   */\n      swap1\n      pop\n        /* \"#utility.yul\":5278:5657   */\n      swap2\n      swap1\n      pop\n      jump\t// out\n        /* \"#utility.yul\":5663:5832   */\n    tag_73:\n        /* \"#utility.yul\":5747:5758   */\n      0x00\n        /* \"#utility.yul\":5781:5787   */\n      dup3\n        /* \"#utility.yul\":5776:5779   */\n      dup3\n        /* \"#utility.yul\":5769:5788   */\n      mstore\n        /* \"#utility.yul\":5821:5825   */\n      0x20\n        /* \"#utility.yul\":5816:5819   */\n      dup3\n        /* \"#utility.yul\":5812:5826   */\n      add\n        /* \"#utility.yul\":5797:5826   */\n      swap1\n      pop\n        /* \"#utility.yul\":5663:5832   */\n      swap3\n      swap2\n      pop\n      pop\n      jump\t// out\n        /* \"#utility.yul\":5838:6001   */\n    tag_74:\n        /* \"#utility.yul\":5978:5993   */\n      0x526566756e64204661696c656400000000000000000000000000000000000000\n        /* \"#utility.yul\":5974:5975   */\n      0x00\n        /* \"#utility.yul\":5966:5972   */\n      dup3\n        /* \"#utility.yul\":5962:5976   */\n      add\n        /* \"#utility.yul\":5955:5994   */\n      mstore\n        /* \"#utility.yul\":5838:6001   */\n      pop\n      jump\t// out\n        /* \"#utility.yul\":6007:6373   */\n    tag_75:\n        /* \"#utility.yul\":6149:6152   */\n      0x00\n        /* \"#utility.yul\":6170:6237   */\n      tag_142\n        /* \"#utility.yul\":6234:6236   */\n      0x0d\n        /* \"#utility.yul\":6229:6232   */\n      dup4\n        /* \"#utility.yul\":6170:6237   */\n      tag_73\n      jump\t// in\n    tag_142:\n        /* \"#utility.yul\":6163:6237   */\n      swap2\n      pop\n        /* \"#utility.yul\":6246:6339   */\n      tag_143\n        /* \"#utility.yul\":6335:6338   */\n      dup3\n        /* \"#utility.yul\":6246:6339   */\n      tag_74\n      jump\t// in\n    tag_143:\n        /* \"#utility.yul\":6364:6366   */\n      0x20\n        /* \"#utility.yul\":6359:6362   */\n      dup3\n        /* \"#utility.yul\":6355:6367   */\n      add\n        /* \"#utility.yul\":6348:6367   */\n      swap1\n      pop\n        /* \"#utility.yul\":6007:6373   */\n      swap2\n      swap1\n      pop\n      jump\t// out\n        /* \"#utility.yul\":6379:6798   */\n    tag_56:\n        /* \"#utility.yul\":6545:6549   */\n      0x00\n        /* \"#utility.yul\":6583:6585   */\n      0x20\n        /* \"#utility.yul\":6572:6581   */\n      dup3\n        /* \"#utility.yul\":6568:6586   */\n      add\n        /* \"#utility.yul\":6560:6586   */\n      swap1\n      pop\n        /* \"#utility.yul\":6632:6641   */\n      dup2\n        /* \"#utility.yul\":6626:6630   */\n      dup2\n        /* \"#utility.yul\":6622:6642   */\n      sub\n        /* \"#utility.yul\":6618:6619   */\n      0x00\n        /* \"#utility.yul\":6607:6616   */\n      dup4\n        /* \"#utility.yul\":6603:6620   */\n      add\n        /* \"#utility.yul\":6596:6643   */\n      mstore\n        /* \"#utility.yul\":6660:6791   */\n      tag_145\n        /* \"#utility.yul\":6786:6790   */\n      dup2\n        /* \"#utility.yul\":6660:6791   */\n      tag_75\n      jump\t// in\n    tag_145:\n        /* \"#utility.yul\":6652:6791   */\n      swap1\n      pop\n        /* \"#utility.yul\":6379:6798   */\n      swap2\n      swap1\n      pop\n      jump\t// out\n    stop\n\n    sub_0: assembly {\n            /* \"src/Campaign.sol\":61:316  contract Campaign{... */\n          mstore(0x40, 0x80)\n            /* \"src/Campaign.sol\":153:305  constructor(address _creator, uint256 _goal, uint256 _deadine){... */\n          callvalue\n          dup1\n          iszero\n          tag_1\n          jumpi\n          revert(0x00, 0x00)\n        tag_1:\n          pop\n          mload(0x40)\n          sub(codesize, bytecodeSize)\n          dup1\n          bytecodeSize\n          dup4\n          codecopy\n          dup2\n          dup2\n          add\n          0x40\n          mstore\n          dup2\n          add\n          swap1\n          tag_2\n          swap2\n          swap1\n          tag_3\n          jump\t// in\n        tag_2:\n            /* \"src/Campaign.sol\":236:244  _creator */\n          dup3\n            /* \"src/Campaign.sol\":226:233  creator */\n          0x02\n          0x00\n            /* \"src/Campaign.sol\":226:244  creator = _creator */\n          0x0100\n          exp\n          dup2\n          sload\n          dup2\n          0xffffffffffffffffffffffffffffffffffffffff\n          mul\n          not\n          and\n          swap1\n          dup4\n          0xffffffffffffffffffffffffffffffffffffffff\n          and\n          mul\n          or\n          swap1\n          sstore\n          pop\n            /* \"src/Campaign.sol\":262:267  _goal */\n          dup2\n            /* \"src/Campaign.sol\":255:259  goal */\n          0x00\n            /* \"src/Campaign.sol\":255:267  goal = _goal */\n          dup2\n          swap1\n          sstore\n          pop\n            /* \"src/Campaign.sol\":289:297  _deadine */\n          dup1\n            /* \"src/Campaign.sol\":278:286  deadline */\n          0x01\n            /* \"src/Campaign.sol\":278:297  deadline = _deadine */\n          dup2\n          swap1\n          sstore\n          pop\n            /* \"src/Campaign.sol\":153:305  constructor(address _creator, uint256 _goal, uint256 _deadine){... */\n          pop\n          pop\n          pop\n            /* \"src/Campaign.sol\":61:316  contract Campaign{... */\n          jump(tag_6)\n            /* \"#utility.yul\":88:205   */\n        tag_8:\n            /* \"#utility.yul\":197:198   */\n          0x00\n            /* \"#utility.yul\":194:195   */\n          0x00\n            /* \"#utility.yul\":187:199   */\n          revert\n            /* \"#utility.yul\":334:460   */\n        tag_10:\n            /* \"#utility.yul\":371:378   */\n          0x00\n            /* \"#utility.yul\":411:453   */\n          0xffffffffffffffffffffffffffffffffffffffff\n            /* \"#utility.yul\":404:409   */\n          dup3\n            /* \"#utility.yul\":400:454   */\n          and\n            /* \"#utility.yul\":389:454   */\n          swap1\n          pop\n            /* \"#utility.yul\":334:460   */\n          swap2\n          swap1\n          pop\n          jump\t// out\n            /* \"#utility.yul\":466:562   */\n        tag_11:\n            /* \"#utility.yul\":503:510   */\n          0x00\n            /* \"#utility.yul\":532:556   */\n          tag_23\n            /* \"#utility.yul\":550:555   */\n          dup3\n            /* \"#utility.yul\":532:556   */\n          tag_10\n          jump\t// in\n        tag_23:\n            /* \"#utility.yul\":521:556   */\n          swap1\n          pop\n            /* \"#utility.yul\":466:562   */\n          swap2\n          swap1\n          pop\n          jump\t// out\n            /* \"#utility.yul\":568:690   */\n        tag_12:\n            /* \"#utility.yul\":641:665   */\n          tag_25\n            /* \"#utility.yul\":659:664   */\n          dup2\n            /* \"#utility.yul\":641:665   */\n          tag_11\n          jump\t// in\n        tag_25:\n            /* \"#utility.yul\":634:639   */\n          dup2\n            /* \"#utility.yul\":631:666   */\n          eq\n            /* \"#utility.yul\":621:684   */\n          tag_26\n          jumpi\n            /* \"#utility.yul\":680:681   */\n          0x00\n            /* \"#utility.yul\":677:678   */\n          0x00\n            /* \"#utility.yul\":670:682   */\n          revert\n            /* \"#utility.yul\":621:684   */\n        tag_26:\n            /* \"#utility.yul\":568:690   */\n          pop\n          jump\t// out\n            /* \"#utility.yul\":696:839   */\n        tag_13:\n            /* \"#utility.yul\":753:758   */\n          0x00\n            /* \"#utility.yul\":784:790   */\n          dup2\n            /* \"#utility.yul\":778:791   */\n          mload\n            /* \"#utility.yul\":769:791   */\n          swap1\n          pop\n            /* \"#utility.yul\":800:833   */\n          tag_28\n            /* \"#utility.yul\":827:832   */\n          dup2\n            /* \"#utility.yul\":800:833   */\n          tag_12\n          jump\t// in\n        tag_28:\n            /* \"#utility.yul\":696:839   */\n          swap3\n          swap2\n          pop\n          pop\n          jump\t// out\n            /* \"#utility.yul\":845:922   */\n        tag_14:\n            /* \"#utility.yul\":882:889   */\n          0x00\n            /* \"#utility.yul\":911:916   */\n          dup2\n            /* \"#utility.yul\":900:916   */\n          swap1\n          pop\n            /* \"#utility.yul\":845:922   */\n          swap2\n          swap1\n          pop\n          jump\t// out\n            /* \"#utility.yul\":928:1050   */\n        tag_15:\n            /* \"#utility.yul\":1001:1025   */\n          tag_31\n            /* \"#utility.yul\":1019:1024   */\n          dup2\n            /* \"#utility.yul\":1001:1025   */\n          tag_14\n          jump\t// in\n        tag_31:\n            /* \"#utility.yul\":994:999   */\n          dup2\n            /* \"#utility.yul\":991:1026   */\n          eq\n            /* \"#utility.yul\":981:1044   */\n          tag_32\n          jumpi\n            /* \"#utility.yul\":1040:1041   */\n          0x00\n            /* \"#utility.yul\":1037:1038   */\n          0x00\n            /* \"#utility.yul\":1030:1042   */\n          revert\n            /* \"#utility.yul\":981:1044   */\n        tag_32:\n            /* \"#utility.yul\":928:1050   */\n          pop\n          jump\t// out\n            /* \"#utility.yul\":1056:1199   */\n        tag_16:\n            /* \"#utility.yul\":1113:1118   */\n          0x00\n            /* \"#utility.yul\":1144:1150   */\n          dup2\n            /* \"#utility.yul\":1138:1151   */\n          mload\n            /* \"#utility.yul\":1129:1151   */\n          swap1\n          pop\n            /* \"#utility.yul\":1160:1193   */\n          tag_34\n            /* \"#utility.yul\":1187:1192   */\n          dup2\n            /* \"#utility.yul\":1160:1193   */\n          tag_15\n          jump\t// in\n        tag_34:\n            /* \"#utility.yul\":1056:1199   */\n          swap3\n          swap2\n          pop\n          pop\n          jump\t// out\n            /* \"#utility.yul\":1205:1868   */\n        tag_3:\n            /* \"#utility.yul\":1293:1299   */\n          0x00\n            /* \"#utility.yul\":1301:1307   */\n          0x00\n            /* \"#utility.yul\":1309:1315   */\n          0x00\n            /* \"#utility.yul\":1358:1360   */\n          0x60\n            /* \"#utility.yul\":1346:1355   */\n          dup5\n            /* \"#utility.yul\":1337:1344   */\n          dup7\n            /* \"#utility.yul\":1333:1356   */\n          sub\n            /* \"#utility.yul\":1329:1361   */\n          slt\n            /* \"#utility.yul\":1326:1445   */\n          iszero\n          tag_36\n          jumpi\n            /* \"#utility.yul\":1364:1443   */\n          tag_37\n          tag_8\n          jump\t// in\n        tag_37:\n            /* \"#utility.yul\":1326:1445   */\n        tag_36:\n            /* \"#utility.yul\":1484:1485   */\n          0x00\n            /* \"#utility.yul\":1509:1573   */\n          tag_38\n            /* \"#utility.yul\":1565:1572   */\n          dup7\n            /* \"#utility.yul\":1556:1562   */\n          dup3\n            /* \"#utility.yul\":1545:1554   */\n          dup8\n            /* \"#utility.yul\":1541:1563   */\n          add\n            /* \"#utility.yul\":1509:1573   */\n          tag_13\n          jump\t// in\n        tag_38:\n            /* \"#utility.yul\":1499:1573   */\n          swap4\n          pop\n            /* \"#utility.yul\":1455:1583   */\n          pop\n            /* \"#utility.yul\":1622:1624   */\n          0x20\n            /* \"#utility.yul\":1648:1712   */\n          tag_39\n            /* \"#utility.yul\":1704:1711   */\n          dup7\n            /* \"#utility.yul\":1695:1701   */\n          dup3\n            /* \"#utility.yul\":1684:1693   */\n          dup8\n            /* \"#utility.yul\":1680:1702   */\n          add\n            /* \"#utility.yul\":1648:1712   */\n          tag_16\n          jump\t// in\n        tag_39:\n            /* \"#utility.yul\":1638:1712   */\n          swap3\n          pop\n            /* \"#utility.yul\":1593:1722   */\n          pop\n            /* \"#utility.yul\":1761:1763   */\n          0x40\n            /* \"#utility.yul\":1787:1851   */\n          tag_40\n            /* \"#utility.yul\":1843:1850   */\n          dup7\n            /* \"#utility.yul\":1834:1840   */\n          dup3\n            /* \"#utility.yul\":1823:1832   */\n          dup8\n            /* \"#utility.yul\":1819:1841   */\n          add\n            /* \"#utility.yul\":1787:1851   */\n          tag_16\n          jump\t// in\n        tag_40:\n            /* \"#utility.yul\":1777:1851   */\n          swap2\n          pop\n            /* \"#utility.yul\":1732:1861   */\n          pop\n            /* \"#utility.yul\":1205:1868   */\n          swap3\n          pop\n          swap3\n          pop\n          swap3\n          jump\t// out\n            /* \"src/Campaign.sol\":61:316  contract Campaign{... */\n        tag_6:\n          dataSize(sub_0)\n          dup1\n          dataOffset(sub_0)\n          0x00\n          codecopy\n          0x00\n          return\n        stop\n\n        sub_0: assembly {\n                /* \"src/Campaign.sol\":61:316  contract Campaign{... */\n              mstore(0x40, 0x80)\n              revert(0x00, 0x00)\n\n            auxdata: 0xa26469706673582212204cc56407ef330d3a75cc53b81ef43700034bfa9ae64e2091d7824580b87a352464736f6c634300081e0033\n        }\n    }\n\n    auxdata: 0xa2646970667358221220eb78fdf9f48eba1aec27dbd37d587e60831db4205b1ca88089358131990369ee64736f6c634300081e0033\n}\n",
				"bytecode": {
					"linkReferences": {},
					"object": "6080604052348015600e575f5ffd5b50610ac88061001c5f395ff3fe60806040526004361061003e575f3560e01c8063141961bc14610042578063225022681461008157806349a2104d1461009d5780636b69a592146100c7575b5f5ffd5b34801561004d575f5ffd5b50610068600480360381019061006391906105d1565b6100f1565b604051610078949392919061064a565b60405180910390f35b61009b6004803603810190610096919061068d565b61015b565b005b3480156100a8575f5ffd5b506100b161055b565b6040516100be91906106cb565b60405180910390f35b3480156100d2575f5ffd5b506100db610566565b6040516100e891906106cb565b60405180910390f35b6001602052805f5260405f205f91509050805f015f9054906101000a900473ffffffffffffffffffffffffffffffffffffffff1690806001015f9054906101000a900473ffffffffffffffffffffffffffffffffffffffff16908060020154908060030154905084565b5f620151808261016b9190610711565b90505f83036101a6576040517f9b60eb4d00000000000000000000000000000000000000000000000000000000815260040160405180910390fd5b662386f26fc100008310156101e7576040517f72cf1f4400000000000000000000000000000000000000000000000000000000815260040160405180910390fd5b5f8103610220576040517f4da5d91a00000000000000000000000000000000000000000000000000000000815260040160405180910390fd5b62015180811161025c576040517f5e0240f900000000000000000000000000000000000000000000000000000000815260040160405180910390fd5b6301e133808110610299576040517ffc8f148c00000000000000000000000000000000000000000000000000000000815260040160405180910390fd5b662386f26fc1000034116102d9576040517f025dbdd400000000000000000000000000000000000000000000000000000000815260040160405180910390fd5b5f6102e384610571565b90505f3382856040516102f59061058d565b61030193929190610752565b604051809103905ff08015801561031a573d5f5f3e3d5ffd5b50905060405180608001604052808273ffffffffffffffffffffffffffffffffffffffff1681526020013373ffffffffffffffffffffffffffffffffffffffff1681526020018381526020014281525060015f5f5481526020019081526020015f205f820151815f015f6101000a81548173ffffffffffffffffffffffffffffffffffffffff021916908373ffffffffffffffffffffffffffffffffffffffff1602179055506020820151816001015f6101000a81548173ffffffffffffffffffffffffffffffffffffffff021916908373ffffffffffffffffffffffffffffffffffffffff16021790555060408201518160020155606082015181600301559050505f5f81548092919061042e90610787565b91905055503373ffffffffffffffffffffffffffffffffffffffff167f681f945f90ca3793b37315ed6a012353c82c1b37ca023ef835c746461359f552345f5460405161047c9291906107ce565b60405180910390a2662386f26fc10000341115610554575f662386f26fc10000346104a791906107f5565b90505f3373ffffffffffffffffffffffffffffffffffffffff16826040516104ce90610855565b5f6040518083038185875af1925050503d805f8114610508576040519150601f19603f3d011682016040523d82523d5f602084013e61050d565b606091505b5050905080610551576040517f08c379a0000000000000000000000000000000000000000000000000000000008152600401610548906108c3565b60405180910390fd5b50505b5050505050565b662386f26fc1000081565b662386f26fc1000081565b5f670de0b6b3a7640000826105869190610711565b9050919050565b6101b1806108e283390190565b5f5ffd5b5f819050919050565b6105b08161059e565b81146105ba575f5ffd5b50565b5f813590506105cb816105a7565b92915050565b5f602082840312156105e6576105e561059a565b5b5f6105f3848285016105bd565b91505092915050565b5f73ffffffffffffffffffffffffffffffffffffffff82169050919050565b5f610625826105fc565b9050919050565b6106358161061b565b82525050565b6106448161059e565b82525050565b5f60808201905061065d5f83018761062c565b61066a602083018661062c565b610677604083018561063b565b610684606083018461063b565b95945050505050565b5f5f604083850312156106a3576106a261059a565b5b5f6106b0858286016105bd565b92505060206106c1858286016105bd565b9150509250929050565b5f6020820190506106de5f83018461063b565b92915050565b7f4e487b71000000000000000000000000000000000000000000000000000000005f52601160045260245ffd5b5f61071b8261059e565b91506107268361059e565b92508282026107348161059e565b9150828204841483151761074b5761074a6106e4565b5b5092915050565b5f6060820190506107655f83018661062c565b610772602083018561063b565b61077f604083018461063b565b949350505050565b5f6107918261059e565b91507fffffffffffffffffffffffffffffffffffffffffffffffffffffffffffffffff82036107c3576107c26106e4565b5b600182019050919050565b5f6040820190506107e15f83018561063b565b6107ee602083018461063b565b9392505050565b5f6107ff8261059e565b915061080a8361059e565b9250828203905081811115610822576108216106e4565b5b92915050565b5f81905092915050565b50565b5f6108405f83610828565b915061084b82610832565b5f82019050919050565b5f61085f82610835565b9150819050919050565b5f82825260208201905092915050565b7f526566756e64204661696c6564000000000000000000000000000000000000005f82015250565b5f6108ad600d83610869565b91506108b882610879565b602082019050919050565b5f6020820190508181035f8301526108da816108a1565b905091905056fe608060405234801561000f575f5ffd5b506040516101b13803806101b183398181016040528101906100319190610117565b8260025f6101000a81548173ffffffffffffffffffffffffffffffffffffffff021916908373ffffffffffffffffffffffffffffffffffffffff160217905550815f8190555080600181905550505050610167565b5f5ffd5b5f73ffffffffffffffffffffffffffffffffffffffff82169050919050565b5f6100b38261008a565b9050919050565b6100c3816100a9565b81146100cd575f5ffd5b50565b5f815190506100de816100ba565b92915050565b5f819050919050565b6100f6816100e4565b8114610100575f5ffd5b50565b5f81519050610111816100ed565b92915050565b5f5f5f6060848603121561012e5761012d610086565b5b5f61013b868287016100d0565b935050602061014c86828701610103565b925050604061015d86828701610103565b9150509250925092565b603e806101735f395ff3fe60806040525f5ffdfea26469706673582212204cc56407ef330d3a75cc53b81ef43700034bfa9ae64e2091d7824580b87a352464736f6c634300081e0033a2646970667358221220eb78fdf9f48eba1aec27dbd37d587e60831db4205b1ca88089358131990369ee64736f6c634300081e0033",
					"opcodes": "PUSH1 0x80 PUSH1 0x40 MSTORE CALLVALUE DUP1 ISZERO PUSH1 0xE JUMPI PUSH0 PUSH0 REVERT JUMPDEST POP PUSH2 0xAC8 DUP1 PUSH2 0x1C PUSH0 CODECOPY PUSH0 RETURN INVALID PUSH1 0x80 PUSH1 0x40 MSTORE PUSH1 0x4 CALLDATASIZE LT PUSH2 0x3E JUMPI PUSH0 CALLDATALOAD PUSH1 0xE0 SHR DUP1 PUSH4 0x141961BC EQ PUSH2 0x42 JUMPI DUP1 PUSH4 0x22502268 EQ PUSH2 0x81 JUMPI DUP1 PUSH4 0x49A2104D EQ PUSH2 0x9D JUMPI DUP1 PUSH4 0x6B69A592 EQ PUSH2 0xC7 JUMPI JUMPDEST PUSH0 PUSH0 REVERT JUMPDEST CALLVALUE DUP1 ISZERO PUSH2 0x4D JUMPI PUSH0 PUSH0 REVERT JUMPDEST POP PUSH2 0x68 PUSH1 0x4 DUP1 CALLDATASIZE SUB DUP2 ADD SWAP1 PUSH2 0x63 SWAP2 SWAP1 PUSH2 0x5D1 JUMP JUMPDEST PUSH2 0xF1 JUMP JUMPDEST PUSH1 0x40 MLOAD PUSH2 0x78 SWAP5 SWAP4 SWAP3 SWAP2 SWAP1 PUSH2 0x64A JUMP JUMPDEST PUSH1 0x40 MLOAD DUP1 SWAP2 SUB SWAP1 RETURN JUMPDEST PUSH2 0x9B PUSH1 0x4 DUP1 CALLDATASIZE SUB DUP2 ADD SWAP1 PUSH2 0x96 SWAP2 SWAP1 PUSH2 0x68D JUMP JUMPDEST PUSH2 0x15B JUMP JUMPDEST STOP JUMPDEST CALLVALUE DUP1 ISZERO PUSH2 0xA8 JUMPI PUSH0 PUSH0 REVERT JUMPDEST POP PUSH2 0xB1 PUSH2 0x55B JUMP JUMPDEST PUSH1 0x40 MLOAD PUSH2 0xBE SWAP2 SWAP1 PUSH2 0x6CB JUMP JUMPDEST PUSH1 0x40 MLOAD DUP1 SWAP2 SUB SWAP1 RETURN JUMPDEST CALLVALUE DUP1 ISZERO PUSH2 0xD2 JUMPI PUSH0 PUSH0 REVERT JUMPDEST POP PUSH2 0xDB PUSH2 0x566 JUMP JUMPDEST PUSH1 0x40 MLOAD PUSH2 0xE8 SWAP2 SWAP1 PUSH2 0x6CB JUMP JUMPDEST PUSH1 0x40 MLOAD DUP1 SWAP2 SUB SWAP1 RETURN JUMPDEST PUSH1 0x1 PUSH1 0x20 MSTORE DUP1 PUSH0 MSTORE PUSH1 0x40 PUSH0 KECCAK256 PUSH0 SWAP2 POP SWAP1 POP DUP1 PUSH0 ADD PUSH0 SWAP1 SLOAD SWAP1 PUSH2 0x100 EXP SWAP1 DIV PUSH20 0xFFFFFFFFFFFFFFFFFFFFFFFFFFFFFFFFFFFFFFFF AND SWAP1 DUP1 PUSH1 0x1 ADD PUSH0 SWAP1 SLOAD SWAP1 PUSH2 0x100 EXP SWAP1 DIV PUSH20 0xFFFFFFFFFFFFFFFFFFFFFFFFFFFFFFFFFFFFFFFF AND SWAP1 DUP1 PUSH1 0x2 ADD SLOAD SWAP1 DUP1 PUSH1 0x3 ADD SLOAD SWAP1 POP DUP5 JUMP JUMPDEST PUSH0 PUSH3 0x15180 DUP3 PUSH2 0x16B SWAP2 SWAP1 PUSH2 0x711 JUMP JUMPDEST SWAP1 POP PUSH0 DUP4 SUB PUSH2 0x1A6 JUMPI PUSH1 0x40 MLOAD PUSH32 0x9B60EB4D00000000000000000000000000000000000000000000000000000000 DUP2 MSTORE PUSH1 0x4 ADD PUSH1 0x40 MLOAD DUP1 SWAP2 SUB SWAP1 REVERT JUMPDEST PUSH7 0x2386F26FC10000 DUP4 LT ISZERO PUSH2 0x1E7 JUMPI PUSH1 0x40 MLOAD PUSH32 0x72CF1F4400000000000000000000000000000000000000000000000000000000 DUP2 MSTORE PUSH1 0x4 ADD PUSH1 0x40 MLOAD DUP1 SWAP2 SUB SWAP1 REVERT JUMPDEST PUSH0 DUP2 SUB PUSH2 0x220 JUMPI PUSH1 0x40 MLOAD PUSH32 0x4DA5D91A00000000000000000000000000000000000000000000000000000000 DUP2 MSTORE PUSH1 0x4 ADD PUSH1 0x40 MLOAD DUP1 SWAP2 SUB SWAP1 REVERT JUMPDEST PUSH3 0x15180 DUP2 GT PUSH2 0x25C JUMPI PUSH1 0x40 MLOAD PUSH32 0x5E0240F900000000000000000000000000000000000000000000000000000000 DUP2 MSTORE PUSH1 0x4 ADD PUSH1 0x40 MLOAD DUP1 SWAP2 SUB SWAP1 REVERT JUMPDEST PUSH4 0x1E13380 DUP2 LT PUSH2 0x299 JUMPI PUSH1 0x40 MLOAD PUSH32 0xFC8F148C00000000000000000000000000000000000000000000000000000000 DUP2 MSTORE PUSH1 0x4 ADD PUSH1 0x40 MLOAD DUP1 SWAP2 SUB SWAP1 REVERT JUMPDEST PUSH7 0x2386F26FC10000 CALLVALUE GT PUSH2 0x2D9 JUMPI PUSH1 0x40 MLOAD PUSH32 0x25DBDD400000000000000000000000000000000000000000000000000000000 DUP2 MSTORE PUSH1 0x4 ADD PUSH1 0x40 MLOAD DUP1 SWAP2 SUB SWAP1 REVERT JUMPDEST PUSH0 PUSH2 0x2E3 DUP5 PUSH2 0x571 JUMP JUMPDEST SWAP1 POP PUSH0 CALLER DUP3 DUP6 PUSH1 0x40 MLOAD PUSH2 0x2F5 SWAP1 PUSH2 0x58D JUMP JUMPDEST PUSH2 0x301 SWAP4 SWAP3 SWAP2 SWAP1 PUSH2 0x752 JUMP JUMPDEST PUSH1 0x40 MLOAD DUP1 SWAP2 SUB SWAP1 PUSH0 CREATE DUP1 ISZERO DUP1 ISZERO PUSH2 0x31A JUMPI RETURNDATASIZE PUSH0 PUSH0 RETURNDATACOPY RETURNDATASIZE PUSH0 REVERT JUMPDEST POP SWAP1 POP PUSH1 0x40 MLOAD DUP1 PUSH1 0x80 ADD PUSH1 0x40 MSTORE DUP1 DUP3 PUSH20 0xFFFFFFFFFFFFFFFFFFFFFFFFFFFFFFFFFFFFFFFF AND DUP2 MSTORE PUSH1 0x20 ADD CALLER PUSH20 0xFFFFFFFFFFFFFFFFFFFFFFFFFFFFFFFFFFFFFFFF AND DUP2 MSTORE PUSH1 0x20 ADD DUP4 DUP2 MSTORE PUSH1 0x20 ADD TIMESTAMP DUP2 MSTORE POP PUSH1 0x1 PUSH0 PUSH0 SLOAD DUP2 MSTORE PUSH1 0x20 ADD SWAP1 DUP2 MSTORE PUSH1 0x20 ADD PUSH0 KECCAK256 PUSH0 DUP3 ADD MLOAD DUP2 PUSH0 ADD PUSH0 PUSH2 0x100 EXP DUP2 SLOAD DUP2 PUSH20 0xFFFFFFFFFFFFFFFFFFFFFFFFFFFFFFFFFFFFFFFF MUL NOT AND SWAP1 DUP4 PUSH20 0xFFFFFFFFFFFFFFFFFFFFFFFFFFFFFFFFFFFFFFFF AND MUL OR SWAP1 SSTORE POP PUSH1 0x20 DUP3 ADD MLOAD DUP2 PUSH1 0x1 ADD PUSH0 PUSH2 0x100 EXP DUP2 SLOAD DUP2 PUSH20 0xFFFFFFFFFFFFFFFFFFFFFFFFFFFFFFFFFFFFFFFF MUL NOT AND SWAP1 DUP4 PUSH20 0xFFFFFFFFFFFFFFFFFFFFFFFFFFFFFFFFFFFFFFFF AND MUL OR SWAP1 SSTORE POP PUSH1 0x40 DUP3 ADD MLOAD DUP2 PUSH1 0x2 ADD SSTORE PUSH1 0x60 DUP3 ADD MLOAD DUP2 PUSH1 0x3 ADD SSTORE SWAP1 POP POP PUSH0 PUSH0 DUP2 SLOAD DUP1 SWAP3 SWAP2 SWAP1 PUSH2 0x42E SWAP1 PUSH2 0x787 JUMP JUMPDEST SWAP2 SWAP1 POP SSTORE POP CALLER PUSH20 0xFFFFFFFFFFFFFFFFFFFFFFFFFFFFFFFFFFFFFFFF AND PUSH32 0x681F945F90CA3793B37315ED6A012353C82C1B37CA023EF835C746461359F552 CALLVALUE PUSH0 SLOAD PUSH1 0x40 MLOAD PUSH2 0x47C SWAP3 SWAP2 SWAP1 PUSH2 0x7CE JUMP JUMPDEST PUSH1 0x40 MLOAD DUP1 SWAP2 SUB SWAP1 LOG2 PUSH7 0x2386F26FC10000 CALLVALUE GT ISZERO PUSH2 0x554 JUMPI PUSH0 PUSH7 0x2386F26FC10000 CALLVALUE PUSH2 0x4A7 SWAP2 SWAP1 PUSH2 0x7F5 JUMP JUMPDEST SWAP1 POP PUSH0 CALLER PUSH20 0xFFFFFFFFFFFFFFFFFFFFFFFFFFFFFFFFFFFFFFFF AND DUP3 PUSH1 0x40 MLOAD PUSH2 0x4CE SWAP1 PUSH2 0x855 JUMP JUMPDEST PUSH0 PUSH1 0x40 MLOAD DUP1 DUP4 SUB DUP2 DUP6 DUP8 GAS CALL SWAP3 POP POP POP RETURNDATASIZE DUP1 PUSH0 DUP2 EQ PUSH2 0x508 JUMPI PUSH1 0x40 MLOAD SWAP2 POP PUSH1 0x1F NOT PUSH1 0x3F RETURNDATASIZE ADD AND DUP3 ADD PUSH1 0x40 MSTORE RETURNDATASIZE DUP3 MSTORE RETURNDATASIZE PUSH0 PUSH1 0x20 DUP5 ADD RETURNDATACOPY PUSH2 0x50D JUMP JUMPDEST PUSH1 0x60 SWAP2 POP JUMPDEST POP POP SWAP1 POP DUP1 PUSH2 0x551 JUMPI PUSH1 0x40 MLOAD PUSH32 0x8C379A000000000000000000000000000000000000000000000000000000000 DUP2 MSTORE PUSH1 0x4 ADD PUSH2 0x548 SWAP1 PUSH2 0x8C3 JUMP JUMPDEST PUSH1 0x40 MLOAD DUP1 SWAP2 SUB SWAP1 REVERT JUMPDEST POP POP JUMPDEST POP POP POP POP POP JUMP JUMPDEST PUSH7 0x2386F26FC10000 DUP2 JUMP JUMPDEST PUSH7 0x2386F26FC10000 DUP2 JUMP JUMPDEST PUSH0 PUSH8 0xDE0B6B3A7640000 DUP3 PUSH2 0x586 SWAP2 SWAP1 PUSH2 0x711 JUMP JUMPDEST SWAP1 POP SWAP2 SWAP1 POP JUMP JUMPDEST PUSH2 0x1B1 DUP1 PUSH2 0x8E2 DUP4 CODECOPY ADD SWAP1 JUMP JUMPDEST PUSH0 PUSH0 REVERT JUMPDEST PUSH0 DUP2 SWAP1 POP SWAP2 SWAP1 POP JUMP JUMPDEST PUSH2 0x5B0 DUP2 PUSH2 0x59E JUMP JUMPDEST DUP2 EQ PUSH2 0x5BA JUMPI PUSH0 PUSH0 REVERT JUMPDEST POP JUMP JUMPDEST PUSH0 DUP2 CALLDATALOAD SWAP1 POP PUSH2 0x5CB DUP2 PUSH2 0x5A7 JUMP JUMPDEST SWAP3 SWAP2 POP POP JUMP JUMPDEST PUSH0 PUSH1 0x20 DUP3 DUP5 SUB SLT ISZERO PUSH2 0x5E6 JUMPI PUSH2 0x5E5 PUSH2 0x59A JUMP JUMPDEST JUMPDEST PUSH0 PUSH2 0x5F3 DUP5 DUP3 DUP6 ADD PUSH2 0x5BD JUMP JUMPDEST SWAP2 POP POP SWAP3 SWAP2 POP POP JUMP JUMPDEST PUSH0 PUSH20 0xFFFFFFFFFFFFFFFFFFFFFFFFFFFFFFFFFFFFFFFF DUP3 AND SWAP1 POP SWAP2 SWAP1 POP JUMP JUMPDEST PUSH0 PUSH2 0x625 DUP3 PUSH2 0x5FC JUMP JUMPDEST SWAP1 POP SWAP2 SWAP1 POP JUMP JUMPDEST PUSH2 0x635 DUP2 PUSH2 0x61B JUMP JUMPDEST DUP3 MSTORE POP POP JUMP JUMPDEST PUSH2 0x644 DUP2 PUSH2 0x59E JUMP JUMPDEST DUP3 MSTORE POP POP JUMP JUMPDEST PUSH0 PUSH1 0x80 DUP3 ADD SWAP1 POP PUSH2 0x65D PUSH0 DUP4 ADD DUP8 PUSH2 0x62C JUMP JUMPDEST PUSH2 0x66A PUSH1 0x20 DUP4 ADD DUP7 PUSH2 0x62C JUMP JUMPDEST PUSH2 0x677 PUSH1 0x40 DUP4 ADD DUP6 PUSH2 0x63B JUMP JUMPDEST PUSH2 0x684 PUSH1 0x60 DUP4 ADD DUP5 PUSH2 0x63B JUMP JUMPDEST SWAP6 SWAP5 POP POP POP POP POP JUMP JUMPDEST PUSH0 PUSH0 PUSH1 0x40 DUP4 DUP6 SUB SLT ISZERO PUSH2 0x6A3 JUMPI PUSH2 0x6A2 PUSH2 0x59A JUMP JUMPDEST JUMPDEST PUSH0 PUSH2 0x6B0 DUP6 DUP3 DUP7 ADD PUSH2 0x5BD JUMP JUMPDEST SWAP3 POP POP PUSH1 0x20 PUSH2 0x6C1 DUP6 DUP3 DUP7 ADD PUSH2 0x5BD JUMP JUMPDEST SWAP2 POP POP SWAP3 POP SWAP3 SWAP1 POP JUMP JUMPDEST PUSH0 PUSH1 0x20 DUP3 ADD SWAP1 POP PUSH2 0x6DE PUSH0 DUP4 ADD DUP5 PUSH2 0x63B JUMP JUMPDEST SWAP3 SWAP2 POP POP JUMP JUMPDEST PUSH32 0x4E487B7100000000000000000000000000000000000000000000000000000000 PUSH0 MSTORE PUSH1 0x11 PUSH1 0x4 MSTORE PUSH1 0x24 PUSH0 REVERT JUMPDEST PUSH0 PUSH2 0x71B DUP3 PUSH2 0x59E JUMP JUMPDEST SWAP2 POP PUSH2 0x726 DUP4 PUSH2 0x59E JUMP JUMPDEST SWAP3 POP DUP3 DUP3 MUL PUSH2 0x734 DUP2 PUSH2 0x59E JUMP JUMPDEST SWAP2 POP DUP3 DUP3 DIV DUP5 EQ DUP4 ISZERO OR PUSH2 0x74B JUMPI PUSH2 0x74A PUSH2 0x6E4 JUMP JUMPDEST JUMPDEST POP SWAP3 SWAP2 POP POP JUMP JUMPDEST PUSH0 PUSH1 0x60 DUP3 ADD SWAP1 POP PUSH2 0x765 PUSH0 DUP4 ADD DUP7 PUSH2 0x62C JUMP JUMPDEST PUSH2 0x772 PUSH1 0x20 DUP4 ADD DUP6 PUSH2 0x63B JUMP JUMPDEST PUSH2 0x77F PUSH1 0x40 DUP4 ADD DUP5 PUSH2 0x63B JUMP JUMPDEST SWAP5 SWAP4 POP POP POP POP JUMP JUMPDEST PUSH0 PUSH2 0x791 DUP3 PUSH2 0x59E JUMP JUMPDEST SWAP2 POP PUSH32 0xFFFFFFFFFFFFFFFFFFFFFFFFFFFFFFFFFFFFFFFFFFFFFFFFFFFFFFFFFFFFFFFF DUP3 SUB PUSH2 0x7C3 JUMPI PUSH2 0x7C2 PUSH2 0x6E4 JUMP JUMPDEST JUMPDEST PUSH1 0x1 DUP3 ADD SWAP1 POP SWAP2 SWAP1 POP JUMP JUMPDEST PUSH0 PUSH1 0x40 DUP3 ADD SWAP1 POP PUSH2 0x7E1 PUSH0 DUP4 ADD DUP6 PUSH2 0x63B JUMP JUMPDEST PUSH2 0x7EE PUSH1 0x20 DUP4 ADD DUP5 PUSH2 0x63B JUMP JUMPDEST SWAP4 SWAP3 POP POP POP JUMP JUMPDEST PUSH0 PUSH2 0x7FF DUP3 PUSH2 0x59E JUMP JUMPDEST SWAP2 POP PUSH2 0x80A DUP4 PUSH2 0x59E JUMP JUMPDEST SWAP3 POP DUP3 DUP3 SUB SWAP1 POP DUP2 DUP2 GT ISZERO PUSH2 0x822 JUMPI PUSH2 0x821 PUSH2 0x6E4 JUMP JUMPDEST JUMPDEST SWAP3 SWAP2 POP POP JUMP JUMPDEST PUSH0 DUP2 SWAP1 POP SWAP3 SWAP2 POP POP JUMP JUMPDEST POP JUMP JUMPDEST PUSH0 PUSH2 0x840 PUSH0 DUP4 PUSH2 0x828 JUMP JUMPDEST SWAP2 POP PUSH2 0x84B DUP3 PUSH2 0x832 JUMP JUMPDEST PUSH0 DUP3 ADD SWAP1 POP SWAP2 SWAP1 POP JUMP JUMPDEST PUSH0 PUSH2 0x85F DUP3 PUSH2 0x835 JUMP JUMPDEST SWAP2 POP DUP2 SWAP1 POP SWAP2 SWAP1 POP JUMP JUMPDEST PUSH0 DUP3 DUP3 MSTORE PUSH1 0x20 DUP3 ADD SWAP1 POP SWAP3 SWAP2 POP POP JUMP JUMPDEST PUSH32 0x526566756E64204661696C656400000000000000000000000000000000000000 PUSH0 DUP3 ADD MSTORE POP JUMP JUMPDEST PUSH0 PUSH2 0x8AD PUSH1 0xD DUP4 PUSH2 0x869 JUMP JUMPDEST SWAP2 POP PUSH2 0x8B8 DUP3 PUSH2 0x879 JUMP JUMPDEST PUSH1 0x20 DUP3 ADD SWAP1 POP SWAP2 SWAP1 POP JUMP JUMPDEST PUSH0 PUSH1 0x20 DUP3 ADD SWAP1 POP DUP2 DUP2 SUB PUSH0 DUP4 ADD MSTORE PUSH2 0x8DA DUP2 PUSH2 0x8A1 JUMP JUMPDEST SWAP1 POP SWAP2 SWAP1 POP JUMP INVALID PUSH1 0x80 PUSH1 0x40 MSTORE CALLVALUE DUP1 ISZERO PUSH2 0xF JUMPI PUSH0 PUSH0 REVERT JUMPDEST POP PUSH1 0x40 MLOAD PUSH2 0x1B1 CODESIZE SUB DUP1 PUSH2 0x1B1 DUP4 CODECOPY DUP2 DUP2 ADD PUSH1 0x40 MSTORE DUP2 ADD SWAP1 PUSH2 0x31 SWAP2 SWAP1 PUSH2 0x117 JUMP JUMPDEST DUP3 PUSH1 0x2 PUSH0 PUSH2 0x100 EXP DUP2 SLOAD DUP2 PUSH20 0xFFFFFFFFFFFFFFFFFFFFFFFFFFFFFFFFFFFFFFFF MUL NOT AND SWAP1 DUP4 PUSH20 0xFFFFFFFFFFFFFFFFFFFFFFFFFFFFFFFFFFFFFFFF AND MUL OR SWAP1 SSTORE POP DUP2 PUSH0 DUP2 SWAP1 SSTORE POP DUP1 PUSH1 0x1 DUP2 SWAP1 SSTORE POP POP POP POP PUSH2 0x167 JUMP JUMPDEST PUSH0 PUSH0 REVERT JUMPDEST PUSH0 PUSH20 0xFFFFFFFFFFFFFFFFFFFFFFFFFFFFFFFFFFFFFFFF DUP3 AND SWAP1 POP SWAP2 SWAP1 POP JUMP JUMPDEST PUSH0 PUSH2 0xB3 DUP3 PUSH2 0x8A JUMP JUMPDEST SWAP1 POP SWAP2 SWAP1 POP JUMP JUMPDEST PUSH2 0xC3 DUP2 PUSH2 0xA9 JUMP JUMPDEST DUP2 EQ PUSH2 0xCD JUMPI PUSH0 PUSH0 REVERT JUMPDEST POP JUMP JUMPDEST PUSH0 DUP2 MLOAD SWAP1 POP PUSH2 0xDE DUP2 PUSH2 0xBA JUMP JUMPDEST SWAP3 SWAP2 POP POP JUMP JUMPDEST PUSH0 DUP2 SWAP1 POP SWAP2 SWAP1 POP JUMP JUMPDEST PUSH2 0xF6 DUP2 PUSH2 0xE4 JUMP JUMPDEST DUP2 EQ PUSH2 0x100 JUMPI PUSH0 PUSH0 REVERT JUMPDEST POP JUMP JUMPDEST PUSH0 DUP2 MLOAD SWAP1 POP PUSH2 0x111 DUP2 PUSH2 0xED JUMP JUMPDEST SWAP3 SWAP2 POP POP JUMP JUMPDEST PUSH0 PUSH0 PUSH0 PUSH1 0x60 DUP5 DUP7 SUB SLT ISZERO PUSH2 0x12E JUMPI PUSH2 0x12D PUSH2 0x86 JUMP JUMPDEST JUMPDEST PUSH0 PUSH2 0x13B DUP7 DUP3 DUP8 ADD PUSH2 0xD0 JUMP JUMPDEST SWAP4 POP POP PUSH1 0x20 PUSH2 0x14C DUP7 DUP3 DUP8 ADD PUSH2 0x103 JUMP JUMPDEST SWAP3 POP POP PUSH1 0x40 PUSH2 0x15D DUP7 DUP3 DUP8 ADD PUSH2 0x103 JUMP JUMPDEST SWAP2 POP POP SWAP3 POP SWAP3 POP SWAP3 JUMP JUMPDEST PUSH1 0x3E DUP1 PUSH2 0x173 PUSH0 CODECOPY PUSH0 RETURN INVALID PUSH1 0x80 PUSH1 0x40 MSTORE PUSH0 PUSH0 REVERT INVALID LOG2 PUSH5 0x6970667358 0x22 SLT KECCAK256 0x4C 0xC5 PUSH5 0x7EF330D3A PUSH22 0xCC53B81EF43700034BFA9AE64E2091D7824580B87A35 0x24 PUSH5 0x736F6C6343 STOP ADDMOD 0x1E STOP CALLER LOG2 PUSH5 0x6970667358 0x22 SLT KECCAK256 0xEB PUSH25 0xFDF9F48EBA1AEC27DBD37D587E60831DB4205B1CA880893581 BALANCE SWAP10 SUB PUSH10 0xEE64736F6C634300081E STOP CALLER "
				},
				"gasEstimates": {
					"creation": {
						"codeDepositCost": "552000",
						"executionCost": "585",
						"totalCost": "552585"
					},
					"external": {
						"CREATION_FEE()": "347",
						"MINIMUM_USD()": "369",
						"campaigns(uint256)": "infinite",
						"createCampaign(uint256,uint256)": "infinite"
					}
				},
				"methodIdentifiers": {
					"CREATION_FEE()": "49a2104d",
					"MINIMUM_USD()": "6b69a592",
					"campaigns(uint256)": "141961bc",
					"createCampaign(uint256,uint256)": "22502268"
				}
			},
			"storageLayout": {
				"storage": [
					{
						"astId": 37,
						"contract": "src/CrowdFundingFactory.sol:CrowdFundingFactory",
						"label": "campaignCounter",
						"offset": 0,
						"slot": "0",
						"type": "t_uint256"
					},
					{
						"astId": 65,
						"contract": "src/CrowdFundingFactory.sol:CrowdFundingFactory",
						"label": "campaigns",
						"offset": 0,
						"slot": "1",
						"type": "t_mapping(t_uint256,t_struct(CampaignInfo)60_storage)"
					}
				],
				"types": {
					"t_address": {
						"encoding": "inplace",
						"label": "address",
						"numberOfBytes": "20"
					},
					"t_mapping(t_uint256,t_struct(CampaignInfo)60_storage)": {
						"encoding": "mapping",
						"key": "t_uint256",
						"label": "mapping(uint256 => struct CrowdFundingFactory.CampaignInfo)",
						"numberOfBytes": "32",
						"value": "t_struct(CampaignInfo)60_storage"
					},
					"t_struct(CampaignInfo)60_storage": {
						"encoding": "inplace",
						"label": "struct CrowdFundingFactory.CampaignInfo",
						"members": [
							{
								"astId": 53,
								"contract": "src/CrowdFundingFactory.sol:CrowdFundingFactory",
								"label": "campaignAddress",
								"offset": 0,
								"slot": "0",
								"type": "t_address"
							},
							{
								"astId": 55,
								"contract": "src/CrowdFundingFactory.sol:CrowdFundingFactory",
								"label": "creator",
								"offset": 0,
								"slot": "1",
								"type": "t_address"
							},
							{
								"astId": 57,
								"contract": "src/CrowdFundingFactory.sol:CrowdFundingFactory",
								"label": "goal",
								"offset": 0,
								"slot": "2",
								"type": "t_uint256"
							},
							{
								"astId": 59,
								"contract": "src/CrowdFundingFactory.sol:CrowdFundingFactory",
								"label": "createdAt",
								"offset": 0,
								"slot": "3",
								"type": "t_uint256"
							}
						],
						"numberOfBytes": "128"
					},
					"t_uint256": {
						"encoding": "inplace",
						"label": "uint256",
						"numberOfBytes": "32"
					}
				}
			},
			"userdoc": {
				"kind": "user",
				"methods": {},
				"version": 1
			}
		}
	}
}