{
	"src/CrowdFundingFactory.sol": {
		"CrowdFundingFactory": {
			"abi": [
				{
					"inputs": [],
					"stateMutability": "nonpayable",
					"type": "constructor"
				},
				{
					"inputs": [],
					"name": "CrowdFundingFactory__DeadLineToFar",
					"type": "error"
				},
				{
					"inputs": [],
					"name": "CrowdFundingFactory__DeadLineTooClose",
					"type": "error"
				},
				{
					"inputs": [],
					"name": "CrowdFundingFactory__InsufficientFee",
					"type": "error"
				},
				{
					"inputs": [],
					"name": "CrowdFundingFactory__InvalidDeadLine",
					"type": "error"
				},
				{
					"inputs": [],
					"name": "CrowdFundingFactory__InvalidGoal",
					"type": "error"
				},
				{
					"inputs": [],
					"name": "CrowdFundingFactory__LessThanMinimumGoal",
					"type": "error"
				},
				{
					"inputs": [
						{
							"internalType": "address",
							"name": "owner",
							"type": "address"
						}
					],
					"name": "OwnableInvalidOwner",
					"type": "error"
				},
				{
					"inputs": [
						{
							"internalType": "address",
							"name": "account",
							"type": "address"
						}
					],
					"name": "OwnableUnauthorizedAccount",
					"type": "error"
				},
				{
					"anonymous": false,
					"inputs": [
						{
							"indexed": true,
							"internalType": "address",
							"name": "creator",
							"type": "address"
						},
						{
							"indexed": false,
							"internalType": "uint256",
							"name": "feesPaid",
							"type": "uint256"
						},
						{
							"indexed": false,
							"internalType": "uint256",
							"name": "campaignId",
							"type": "uint256"
						}
					],
					"name": "CampaignCreated",
					"type": "event"
				},
				{
					"anonymous": false,
					"inputs": [
						{
							"indexed": true,
							"internalType": "address",
							"name": "previousOwner",
							"type": "address"
						},
						{
							"indexed": true,
							"internalType": "address",
							"name": "newOwner",
							"type": "address"
						}
					],
					"name": "OwnershipTransferred",
					"type": "event"
				},
				{
					"inputs": [
						{
							"internalType": "uint256",
							"name": "_goal",
							"type": "uint256"
						},
						{
							"internalType": "uint256",
							"name": "_deadine",
							"type": "uint256"
						}
					],
					"name": "createCampaign",
					"outputs": [],
					"stateMutability": "payable",
					"type": "function"
				},
				{
					"inputs": [],
					"name": "getAllCampaigns",
					"outputs": [
						{
							"internalType": "address[]",
							"name": "",
							"type": "address[]"
						}
					],
					"stateMutability": "view",
					"type": "function"
				},
				{
					"inputs": [
						{
							"internalType": "uint256",
							"name": "_campaignId",
							"type": "uint256"
						}
					],
					"name": "getCampaignInfo",
					"outputs": [
						{
							"components": [
								{
									"internalType": "address",
									"name": "campaignAddress",
									"type": "address"
								},
								{
									"internalType": "address",
									"name": "creator",
									"type": "address"
								},
								{
									"internalType": "uint256",
									"name": "goal",
									"type": "uint256"
								},
								{
									"internalType": "uint256",
									"name": "createdAt",
									"type": "uint256"
								}
							],
							"internalType": "struct CrowdFundingFactory.CampaignInfo",
							"name": "",
							"type": "tuple"
						}
					],
					"stateMutability": "view",
					"type": "function"
				},
				{
					"inputs": [],
					"name": "owner",
					"outputs": [
						{
							"internalType": "address",
							"name": "",
							"type": "address"
						}
					],
					"stateMutability": "view",
					"type": "function"
				},
				{
					"inputs": [],
					"name": "renounceOwnership",
					"outputs": [],
					"stateMutability": "nonpayable",
					"type": "function"
				},
				{
					"inputs": [
						{
							"internalType": "address",
							"name": "newOwner",
							"type": "address"
						}
					],
					"name": "transferOwnership",
					"outputs": [],
					"stateMutability": "nonpayable",
					"type": "function"
				}
			],
			"devdoc": {
				"errors": {
					"OwnableInvalidOwner(address)": [
						{
							"details": "The owner is not a valid owner account. (eg. `address(0)`)"
						}
					],
					"OwnableUnauthorizedAccount(address)": [
						{
							"details": "The caller account is not authorized to perform an operation."
						}
					]
				},
				"kind": "dev",
				"methods": {
					"owner()": {
						"details": "Returns the address of the current owner."
					},
					"renounceOwnership()": {
						"details": "Leaves the contract without owner. It will not be possible to call `onlyOwner` functions. Can only be called by the current owner. NOTE: Renouncing ownership will leave the contract without an owner, thereby disabling any functionality that is only available to the owner."
					},
					"transferOwnership(address)": {
						"details": "Transfers ownership of the contract to a new account (`newOwner`). Can only be called by the current owner."
					}
				},
				"version": 1
			},
			"evm": {
				"assembly": "    /* \"src/CrowdFundingFactory.sol\":215:3788  contract CrowdFundingFactory is Ownable {... */\n  mstore(0x40, 0x80)\n    /* \"src/CrowdFundingFactory.sol\":1146:1182  constructor() Ownable(msg.sender) {} */\n  callvalue\n  dup1\n  iszero\n  tag_1\n  jumpi\n  revert(0x00, 0x00)\ntag_1:\n  pop\n    /* \"src/CrowdFundingFactory.sol\":1168:1178  msg.sender */\n  caller\n    /* \"@openzeppelin/contracts/access/Ownable.sol\":1297:1298  0 */\n  0x00\n    /* \"@openzeppelin/contracts/access/Ownable.sol\":1273:1299  initialOwner == address(0) */\n  0xffffffffffffffffffffffffffffffffffffffff\n  and\n    /* \"@openzeppelin/contracts/access/Ownable.sol\":1273:1285  initialOwner */\n  dup2\n    /* \"@openzeppelin/contracts/access/Ownable.sol\":1273:1299  initialOwner == address(0) */\n  0xffffffffffffffffffffffffffffffffffffffff\n  and\n  sub\n    /* \"@openzeppelin/contracts/access/Ownable.sol\":1269:1364  if (initialOwner == address(0)) {... */\n  tag_5\n  jumpi\n    /* \"@openzeppelin/contracts/access/Ownable.sol\":1350:1351  0 */\n  0x00\n    /* \"@openzeppelin/contracts/access/Ownable.sol\":1322:1353  OwnableInvalidOwner(address(0)) */\n  mload(0x40)\n  0x1e4fbdf700000000000000000000000000000000000000000000000000000000\n  dup2\n  mstore\n  0x04\n  add\n  tag_6\n  swap2\n  swap1\n  tag_7\n  jump\t// in\ntag_6:\n  mload(0x40)\n  dup1\n  swap2\n  sub\n  swap1\n  revert\n    /* \"@openzeppelin/contracts/access/Ownable.sol\":1269:1364  if (initialOwner == address(0)) {... */\ntag_5:\n    /* \"@openzeppelin/contracts/access/Ownable.sol\":1373:1405  _transferOwnership(initialOwner) */\n  tag_8\n    /* \"@openzeppelin/contracts/access/Ownable.sol\":1392:1404  initialOwner */\n  dup2\n    /* \"@openzeppelin/contracts/access/Ownable.sol\":1373:1391  _transferOwnership */\n  shl(0x20, tag_9)\n    /* \"@openzeppelin/contracts/access/Ownable.sol\":1373:1405  _transferOwnership(initialOwner) */\n  0x20\n  shr\n  jump\t// in\ntag_8:\n    /* \"@openzeppelin/contracts/access/Ownable.sol\":1225:1412  constructor(address initialOwner) {... */\n  pop\n    /* \"src/CrowdFundingFactory.sol\":215:3788  contract CrowdFundingFactory is Ownable {... */\n  jump(tag_11)\n    /* \"@openzeppelin/contracts/access/Ownable.sol\":2912:3099  function _transferOwnership(address newOwner) internal virtual {... */\ntag_9:\n    /* \"@openzeppelin/contracts/access/Ownable.sol\":2985:3001  address oldOwner */\n  0x00\n    /* \"@openzeppelin/contracts/access/Ownable.sol\":3004:3010  _owner */\n  0x00\n  0x00\n  swap1\n  sload\n  swap1\n  0x0100\n  exp\n  swap1\n  div\n  0xffffffffffffffffffffffffffffffffffffffff\n  and\n    /* \"@openzeppelin/contracts/access/Ownable.sol\":2985:3010  address oldOwner = _owner */\n  swap1\n  pop\n    /* \"@openzeppelin/contracts/access/Ownable.sol\":3029:3037  newOwner */\n  dup2\n    /* \"@openzeppelin/contracts/access/Ownable.sol\":3020:3026  _owner */\n  0x00\n  0x00\n    /* \"@openzeppelin/contracts/access/Ownable.sol\":3020:3037  _owner = newOwner */\n  0x0100\n  exp\n  dup2\n  sload\n  dup2\n  0xffffffffffffffffffffffffffffffffffffffff\n  mul\n  not\n  and\n  swap1\n  dup4\n  0xffffffffffffffffffffffffffffffffffffffff\n  and\n  mul\n  or\n  swap1\n  sstore\n  pop\n    /* \"@openzeppelin/contracts/access/Ownable.sol\":3083:3091  newOwner */\n  dup2\n    /* \"@openzeppelin/contracts/access/Ownable.sol\":3052:3092  OwnershipTransferred(oldOwner, newOwner) */\n  0xffffffffffffffffffffffffffffffffffffffff\n  and\n    /* \"@openzeppelin/contracts/access/Ownable.sol\":3073:3081  oldOwner */\n  dup2\n    /* \"@openzeppelin/contracts/access/Ownable.sol\":3052:3092  OwnershipTransferred(oldOwner, newOwner) */\n  0xffffffffffffffffffffffffffffffffffffffff\n  and\n  0x8be0079c531659141344cd1fd0a4f28419497f9722a3daafe3b4186f6b6457e0\n  mload(0x40)\n  mload(0x40)\n  dup1\n  swap2\n  sub\n  swap1\n  log3\n    /* \"@openzeppelin/contracts/access/Ownable.sol\":2975:3099  {... */\n  pop\n    /* \"@openzeppelin/contracts/access/Ownable.sol\":2912:3099  function _transferOwnership(address newOwner) internal virtual {... */\n  pop\n  jump\t// out\n    /* \"#utility.yul\":7:133   */\ntag_13:\n    /* \"#utility.yul\":44:51   */\n  0x00\n    /* \"#utility.yul\":84:126   */\n  0xffffffffffffffffffffffffffffffffffffffff\n    /* \"#utility.yul\":77:82   */\n  dup3\n    /* \"#utility.yul\":73:127   */\n  and\n    /* \"#utility.yul\":62:127   */\n  swap1\n  pop\n    /* \"#utility.yul\":7:133   */\n  swap2\n  swap1\n  pop\n  jump\t// out\n    /* \"#utility.yul\":139:235   */\ntag_14:\n    /* \"#utility.yul\":176:183   */\n  0x00\n    /* \"#utility.yul\":205:229   */\n  tag_19\n    /* \"#utility.yul\":223:228   */\n  dup3\n    /* \"#utility.yul\":205:229   */\n  tag_13\n  jump\t// in\ntag_19:\n    /* \"#utility.yul\":194:229   */\n  swap1\n  pop\n    /* \"#utility.yul\":139:235   */\n  swap2\n  swap1\n  pop\n  jump\t// out\n    /* \"#utility.yul\":241:359   */\ntag_15:\n    /* \"#utility.yul\":328:352   */\n  tag_21\n    /* \"#utility.yul\":346:351   */\n  dup2\n    /* \"#utility.yul\":328:352   */\n  tag_14\n  jump\t// in\ntag_21:\n    /* \"#utility.yul\":323:326   */\n  dup3\n    /* \"#utility.yul\":316:353   */\n  mstore\n    /* \"#utility.yul\":241:359   */\n  pop\n  pop\n  jump\t// out\n    /* \"#utility.yul\":365:587   */\ntag_7:\n    /* \"#utility.yul\":458:462   */\n  0x00\n    /* \"#utility.yul\":496:498   */\n  0x20\n    /* \"#utility.yul\":485:494   */\n  dup3\n    /* \"#utility.yul\":481:499   */\n  add\n    /* \"#utility.yul\":473:499   */\n  swap1\n  pop\n    /* \"#utility.yul\":509:580   */\n  tag_23\n    /* \"#utility.yul\":577:578   */\n  0x00\n    /* \"#utility.yul\":566:575   */\n  dup4\n    /* \"#utility.yul\":562:579   */\n  add\n    /* \"#utility.yul\":553:559   */\n  dup5\n    /* \"#utility.yul\":509:580   */\n  tag_15\n  jump\t// in\ntag_23:\n    /* \"#utility.yul\":365:587   */\n  swap3\n  swap2\n  pop\n  pop\n  jump\t// out\n    /* \"src/CrowdFundingFactory.sol\":215:3788  contract CrowdFundingFactory is Ownable {... */\ntag_11:\n  dataSize(sub_0)\n  dup1\n  dataOffset(sub_0)\n  0x00\n  codecopy\n  0x00\n  return\nstop\n\nsub_0: assembly {\n        /* \"src/CrowdFundingFactory.sol\":215:3788  contract CrowdFundingFactory is Ownable {... */\n      mstore(0x40, 0x80)\n      jumpi(tag_1, lt(calldatasize, 0x04))\n      shr(0xe0, calldataload(0x00))\n      dup1\n      0x22502268\n      eq\n      tag_2\n      jumpi\n      dup1\n      0x715018a6\n      eq\n      tag_3\n      jumpi\n      dup1\n      0x86cdf604\n      eq\n      tag_4\n      jumpi\n      dup1\n      0x8da5cb5b\n      eq\n      tag_5\n      jumpi\n      dup1\n      0xe38e2b82\n      eq\n      tag_6\n      jumpi\n      dup1\n      0xf2fde38b\n      eq\n      tag_7\n      jumpi\n    tag_1:\n      revert(0x00, 0x00)\n        /* \"src/CrowdFundingFactory.sol\":1190:2839  function createCampaign(uint256 _goal, uint256 _deadine) external payable {... */\n    tag_2:\n      tag_8\n      0x04\n      dup1\n      calldatasize\n      sub\n      dup2\n      add\n      swap1\n      tag_9\n      swap2\n      swap1\n      tag_10\n      jump\t// in\n    tag_9:\n      tag_11\n      jump\t// in\n    tag_8:\n      stop\n        /* \"@openzeppelin/contracts/access/Ownable.sol\":2293:2394  function renounceOwnership() public virtual onlyOwner {... */\n    tag_3:\n      callvalue\n      dup1\n      iszero\n      tag_12\n      jumpi\n      revert(0x00, 0x00)\n    tag_12:\n      pop\n      tag_13\n      tag_14\n      jump\t// in\n    tag_13:\n      stop\n        /* \"src/CrowdFundingFactory.sol\":3037:3142  function getAllCampaigns() external view returns (address[] memory) {... */\n    tag_4:\n      callvalue\n      dup1\n      iszero\n      tag_15\n      jumpi\n      revert(0x00, 0x00)\n    tag_15:\n      pop\n      tag_16\n      tag_17\n      jump\t// in\n    tag_16:\n      mload(0x40)\n      tag_18\n      swap2\n      swap1\n      tag_19\n      jump\t// in\n    tag_18:\n      mload(0x40)\n      dup1\n      swap2\n      sub\n      swap1\n      return\n        /* \"@openzeppelin/contracts/access/Ownable.sol\":1638:1723  function owner() public view virtual returns (address) {... */\n    tag_5:\n      callvalue\n      dup1\n      iszero\n      tag_20\n      jumpi\n      revert(0x00, 0x00)\n    tag_20:\n      pop\n      tag_21\n      tag_22\n      jump\t// in\n    tag_21:\n      mload(0x40)\n      tag_23\n      swap2\n      swap1\n      tag_24\n      jump\t// in\n    tag_23:\n      mload(0x40)\n      dup1\n      swap2\n      sub\n      swap1\n      return\n        /* \"src/CrowdFundingFactory.sol\":2872:3029  function getCampaignInfo(... */\n    tag_6:\n      callvalue\n      dup1\n      iszero\n      tag_25\n      jumpi\n      revert(0x00, 0x00)\n    tag_25:\n      pop\n      tag_26\n      0x04\n      dup1\n      calldatasize\n      sub\n      dup2\n      add\n      swap1\n      tag_27\n      swap2\n      swap1\n      tag_28\n      jump\t// in\n    tag_27:\n      tag_29\n      jump\t// in\n    tag_26:\n      mload(0x40)\n      tag_30\n      swap2\n      swap1\n      tag_31\n      jump\t// in\n    tag_30:\n      mload(0x40)\n      dup1\n      swap2\n      sub\n      swap1\n      return\n        /* \"@openzeppelin/contracts/access/Ownable.sol\":2543:2758  function transferOwnership(address newOwner) public virtual onlyOwner {... */\n    tag_7:\n      callvalue\n      dup1\n      iszero\n      tag_32\n      jumpi\n      revert(0x00, 0x00)\n    tag_32:\n      pop\n      tag_33\n      0x04\n      dup1\n      calldatasize\n      sub\n      dup2\n      add\n      swap1\n      tag_34\n      swap2\n      swap1\n      tag_35\n      jump\t// in\n    tag_34:\n      tag_36\n      jump\t// in\n    tag_33:\n      stop\n        /* \"src/CrowdFundingFactory.sol\":1190:2839  function createCampaign(uint256 _goal, uint256 _deadine) external payable {... */\n    tag_11:\n        /* \"src/CrowdFundingFactory.sol\":1275:1297  uint256 durationInDays */\n      0x00\n        /* \"src/CrowdFundingFactory.sol\":1311:1317  1 days */\n      0x015180\n        /* \"src/CrowdFundingFactory.sol\":1300:1308  _deadine */\n      dup3\n        /* \"src/CrowdFundingFactory.sol\":1300:1317  _deadine * 1 days */\n      tag_38\n      swap2\n      swap1\n      tag_39\n      jump\t// in\n    tag_38:\n        /* \"src/CrowdFundingFactory.sol\":1275:1317  uint256 durationInDays = _deadine * 1 days */\n      swap1\n      pop\n        /* \"src/CrowdFundingFactory.sol\":1330:1353  uint256 campaignCounter */\n      0x00\n        /* \"src/CrowdFundingFactory.sol\":1356:1373  s_campaignCounter */\n      sload(0x01)\n        /* \"src/CrowdFundingFactory.sol\":1330:1373  uint256 campaignCounter = s_campaignCounter */\n      swap1\n      pop\n        /* \"src/CrowdFundingFactory.sol\":1399:1400  0 */\n      0x00\n        /* \"src/CrowdFundingFactory.sol\":1390:1395  _goal */\n      dup5\n        /* \"src/CrowdFundingFactory.sol\":1390:1400  _goal == 0 */\n      sub\n        /* \"src/CrowdFundingFactory.sol\":1386:1443  if (_goal == 0) revert CrowdFundingFactory__InvalidGoal() */\n      tag_40\n      jumpi\n        /* \"src/CrowdFundingFactory.sol\":1409:1443  CrowdFundingFactory__InvalidGoal() */\n      mload(0x40)\n      0xd2ae31de00000000000000000000000000000000000000000000000000000000\n      dup2\n      mstore\n      0x04\n      add\n      mload(0x40)\n      dup1\n      swap2\n      sub\n      swap1\n      revert\n        /* \"src/CrowdFundingFactory.sol\":1386:1443  if (_goal == 0) revert CrowdFundingFactory__InvalidGoal() */\n    tag_40:\n        /* \"src/CrowdFundingFactory.sol\":490:494  1e16 */\n      0x2386f26fc10000\n        /* \"src/CrowdFundingFactory.sol\":1460:1465  _goal */\n      dup5\n        /* \"src/CrowdFundingFactory.sol\":1460:1479  _goal < MINIMUM_USD */\n      lt\n        /* \"src/CrowdFundingFactory.sol\":1456:1543  if (_goal < MINIMUM_USD)... */\n      iszero\n      tag_41\n      jumpi\n        /* \"src/CrowdFundingFactory.sol\":1501:1543  CrowdFundingFactory__LessThanMinimumGoal() */\n      mload(0x40)\n      0xfdfbe1b200000000000000000000000000000000000000000000000000000000\n      dup2\n      mstore\n      0x04\n      add\n      mload(0x40)\n      dup1\n      swap2\n      sub\n      swap1\n      revert\n        /* \"src/CrowdFundingFactory.sol\":1456:1543  if (_goal < MINIMUM_USD)... */\n    tag_41:\n        /* \"src/CrowdFundingFactory.sol\":1578:1579  0 */\n      0x00\n        /* \"src/CrowdFundingFactory.sol\":1560:1574  durationInDays */\n      dup3\n        /* \"src/CrowdFundingFactory.sol\":1560:1579  durationInDays == 0 */\n      sub\n        /* \"src/CrowdFundingFactory.sol\":1556:1626  if (durationInDays == 0) revert CrowdFundingFactory__InvalidDeadLine() */\n      tag_42\n      jumpi\n        /* \"src/CrowdFundingFactory.sol\":1588:1626  CrowdFundingFactory__InvalidDeadLine() */\n      mload(0x40)\n      0x7ac98a3e00000000000000000000000000000000000000000000000000000000\n      dup2\n      mstore\n      0x04\n      add\n      mload(0x40)\n      dup1\n      swap2\n      sub\n      swap1\n      revert\n        /* \"src/CrowdFundingFactory.sol\":1556:1626  if (durationInDays == 0) revert CrowdFundingFactory__InvalidDeadLine() */\n    tag_42:\n        /* \"src/CrowdFundingFactory.sol\":1661:1667  1 days */\n      0x015180\n        /* \"src/CrowdFundingFactory.sol\":1643:1657  durationInDays */\n      dup3\n        /* \"src/CrowdFundingFactory.sol\":1643:1667  durationInDays <= 1 days */\n      gt\n        /* \"src/CrowdFundingFactory.sol\":1639:1728  if (durationInDays <= 1 days)... */\n      tag_43\n      jumpi\n        /* \"src/CrowdFundingFactory.sol\":1689:1728  CrowdFundingFactory__DeadLineTooClose() */\n      mload(0x40)\n      0xc49f871b00000000000000000000000000000000000000000000000000000000\n      dup2\n      mstore\n      0x04\n      add\n      mload(0x40)\n      dup1\n      swap2\n      sub\n      swap1\n      revert\n        /* \"src/CrowdFundingFactory.sol\":1639:1728  if (durationInDays <= 1 days)... */\n    tag_43:\n        /* \"src/CrowdFundingFactory.sol\":1763:1771  365 days */\n      0x01e13380\n        /* \"src/CrowdFundingFactory.sol\":1745:1759  durationInDays */\n      dup3\n        /* \"src/CrowdFundingFactory.sol\":1745:1771  durationInDays >= 365 days */\n      lt\n        /* \"src/CrowdFundingFactory.sol\":1741:1829  if (durationInDays >= 365 days)... */\n      tag_44\n      jumpi\n        /* \"src/CrowdFundingFactory.sol\":1793:1829  CrowdFundingFactory__DeadLineToFar() */\n      mload(0x40)\n      0x960056eb00000000000000000000000000000000000000000000000000000000\n      dup2\n      mstore\n      0x04\n      add\n      mload(0x40)\n      dup1\n      swap2\n      sub\n      swap1\n      revert\n        /* \"src/CrowdFundingFactory.sol\":1741:1829  if (durationInDays >= 365 days)... */\n    tag_44:\n        /* \"src/CrowdFundingFactory.sol\":541:552  0.010 ether */\n      0x2386f26fc10000\n        /* \"src/CrowdFundingFactory.sol\":1846:1855  msg.value */\n      callvalue\n        /* \"src/CrowdFundingFactory.sol\":1846:1871  msg.value <= CREATION_FEE */\n      gt\n        /* \"src/CrowdFundingFactory.sol\":1842:1931  if (msg.value <= CREATION_FEE)... */\n      tag_45\n      jumpi\n        /* \"src/CrowdFundingFactory.sol\":1893:1931  CrowdFundingFactory__InsufficientFee() */\n      mload(0x40)\n      0xe3005d3400000000000000000000000000000000000000000000000000000000\n      dup2\n      mstore\n      0x04\n      add\n      mload(0x40)\n      dup1\n      swap2\n      sub\n      swap1\n      revert\n        /* \"src/CrowdFundingFactory.sol\":1842:1931  if (msg.value <= CREATION_FEE)... */\n    tag_45:\n        /* \"src/CrowdFundingFactory.sol\":1944:1956  uint256 goal */\n      0x00\n        /* \"src/CrowdFundingFactory.sol\":1959:1985  UnitConverter.toWei(_goal) */\n      tag_46\n        /* \"src/CrowdFundingFactory.sol\":1979:1984  _goal */\n      dup6\n        /* \"src/CrowdFundingFactory.sol\":1959:1978  UnitConverter.toWei */\n      tag_47\n        /* \"src/CrowdFundingFactory.sol\":1959:1985  UnitConverter.toWei(_goal) */\n      jump\t// in\n    tag_46:\n        /* \"src/CrowdFundingFactory.sol\":1944:1985  uint256 goal = UnitConverter.toWei(_goal) */\n      swap1\n      pop\n        /* \"src/CrowdFundingFactory.sol\":1998:2016  Campaign _campaign */\n      0x00\n        /* \"src/CrowdFundingFactory.sol\":2046:2056  msg.sender */\n      caller\n        /* \"src/CrowdFundingFactory.sol\":2071:2075  goal */\n      dup3\n        /* \"src/CrowdFundingFactory.sol\":2108:2122  durationInDays */\n      dup6\n        /* \"src/CrowdFundingFactory.sol\":2090:2105  block.timestamp */\n      timestamp\n        /* \"src/CrowdFundingFactory.sol\":2090:2122  block.timestamp + durationInDays */\n      tag_48\n      swap2\n      swap1\n      tag_49\n      jump\t// in\n    tag_48:\n        /* \"src/CrowdFundingFactory.sol\":2019:2133  new Campaign(... */\n      mload(0x40)\n      tag_50\n      swap1\n      tag_51\n      jump\t// in\n    tag_50:\n      tag_52\n      swap4\n      swap3\n      swap2\n      swap1\n      tag_53\n      jump\t// in\n    tag_52:\n      mload(0x40)\n      dup1\n      swap2\n      sub\n      swap1\n      0x00\n      create\n      dup1\n      iszero\n      dup1\n      iszero\n      tag_54\n      jumpi\n      returndatacopy(0x00, 0x00, returndatasize)\n      revert(0x00, returndatasize)\n    tag_54:\n      pop\n        /* \"src/CrowdFundingFactory.sol\":1998:2133  Campaign _campaign = new Campaign(... */\n      swap1\n      pop\n        /* \"src/CrowdFundingFactory.sol\":2146:2157  s_campaigns */\n      0x02\n        /* \"src/CrowdFundingFactory.sol\":2171:2180  _campaign */\n      dup2\n        /* \"src/CrowdFundingFactory.sol\":2146:2182  s_campaigns.push(address(_campaign)) */\n      swap1\n      dup1\n      0x01\n      dup2\n      sload\n      add\n      dup1\n      dup3\n      sstore\n      dup1\n      swap2\n      pop\n      pop\n      0x01\n      swap1\n      sub\n      swap1\n      0x00\n      mstore\n      keccak256(0x00, 0x20)\n      add\n      0x00\n      swap1\n      swap2\n      swap1\n      swap2\n      swap1\n      swap2\n      0x0100\n      exp\n      dup2\n      sload\n      dup2\n      0xffffffffffffffffffffffffffffffffffffffff\n      mul\n      not\n      and\n      swap1\n      dup4\n      0xffffffffffffffffffffffffffffffffffffffff\n      and\n      mul\n      or\n      swap1\n      sstore\n      pop\n        /* \"src/CrowdFundingFactory.sol\":2227:2402  CampaignInfo({... */\n      mload(0x40)\n      dup1\n      0x80\n      add\n      0x40\n      mstore\n      dup1\n        /* \"src/CrowdFundingFactory.sol\":2280:2289  _campaign */\n      dup3\n        /* \"src/CrowdFundingFactory.sol\":2227:2402  CampaignInfo({... */\n      0xffffffffffffffffffffffffffffffffffffffff\n      and\n      dup2\n      mstore\n      0x20\n      add\n        /* \"src/CrowdFundingFactory.sol\":2314:2324  msg.sender */\n      caller\n        /* \"src/CrowdFundingFactory.sol\":2227:2402  CampaignInfo({... */\n      0xffffffffffffffffffffffffffffffffffffffff\n      and\n      dup2\n      mstore\n      0x20\n      add\n        /* \"src/CrowdFundingFactory.sol\":2345:2349  goal */\n      dup4\n        /* \"src/CrowdFundingFactory.sol\":2227:2402  CampaignInfo({... */\n      dup2\n      mstore\n      0x20\n      add\n        /* \"src/CrowdFundingFactory.sol\":2375:2390  block.timestamp */\n      timestamp\n        /* \"src/CrowdFundingFactory.sol\":2227:2402  CampaignInfo({... */\n      dup2\n      mstore\n      pop\n        /* \"src/CrowdFundingFactory.sol\":2195:2207  campaignInfo */\n      0x03\n        /* \"src/CrowdFundingFactory.sol\":2195:2224  campaignInfo[campaignCounter] */\n      0x00\n        /* \"src/CrowdFundingFactory.sol\":2208:2223  campaignCounter */\n      dup6\n        /* \"src/CrowdFundingFactory.sol\":2195:2224  campaignInfo[campaignCounter] */\n      dup2\n      mstore\n      0x20\n      add\n      swap1\n      dup2\n      mstore\n      0x20\n      add\n      0x00\n      keccak256\n        /* \"src/CrowdFundingFactory.sol\":2195:2402  campaignInfo[campaignCounter] = CampaignInfo({... */\n      0x00\n      dup3\n      add\n      mload\n      dup2\n      0x00\n      add\n      exp(0x0100, 0x00)\n      dup2\n      sload\n      dup2\n      0xffffffffffffffffffffffffffffffffffffffff\n      mul\n      not\n      and\n      swap1\n      dup4\n      0xffffffffffffffffffffffffffffffffffffffff\n      and\n      mul\n      or\n      swap1\n      sstore\n      pop\n      0x20\n      dup3\n      add\n      mload\n      dup2\n      0x01\n      add\n      exp(0x0100, 0x00)\n      dup2\n      sload\n      dup2\n      0xffffffffffffffffffffffffffffffffffffffff\n      mul\n      not\n      and\n      swap1\n      dup4\n      0xffffffffffffffffffffffffffffffffffffffff\n      and\n      mul\n      or\n      swap1\n      sstore\n      pop\n      0x40\n      dup3\n      add\n      mload\n      dup2\n      0x02\n      add\n      sstore\n      0x60\n      dup3\n      add\n      mload\n      dup2\n      0x03\n      add\n      sstore\n      swap1\n      pop\n      pop\n        /* \"src/CrowdFundingFactory.sol\":2448:2452  true */\n      0x01\n        /* \"src/CrowdFundingFactory.sol\":2415:2425  isCampaign */\n      0x04\n        /* \"src/CrowdFundingFactory.sol\":2415:2445  isCampaign[address(_campaign)] */\n      0x00\n        /* \"src/CrowdFundingFactory.sol\":2434:2443  _campaign */\n      dup4\n        /* \"src/CrowdFundingFactory.sol\":2415:2445  isCampaign[address(_campaign)] */\n      0xffffffffffffffffffffffffffffffffffffffff\n      and\n      0xffffffffffffffffffffffffffffffffffffffff\n      and\n      dup2\n      mstore\n      0x20\n      add\n      swap1\n      dup2\n      mstore\n      0x20\n      add\n      0x00\n      keccak256\n      0x00\n        /* \"src/CrowdFundingFactory.sol\":2415:2452  isCampaign[address(_campaign)] = true */\n      0x0100\n      exp\n      dup2\n      sload\n      dup2\n      0xff\n      mul\n      not\n      and\n      swap1\n      dup4\n      iszero\n      iszero\n      mul\n      or\n      swap1\n      sstore\n      pop\n        /* \"src/CrowdFundingFactory.sol\":2465:2482  campaignCounter++ */\n      dup3\n      dup1\n      tag_56\n      swap1\n      tag_57\n      jump\t// in\n    tag_56:\n      swap4\n      pop\n      pop\n        /* \"src/CrowdFundingFactory.sol\":2516:2526  msg.sender */\n      caller\n        /* \"src/CrowdFundingFactory.sol\":2500:2555  CampaignCreated(msg.sender, msg.value, campaignCounter) */\n      0xffffffffffffffffffffffffffffffffffffffff\n      and\n      0x681f945f90ca3793b37315ed6a012353c82c1b37ca023ef835c746461359f552\n        /* \"src/CrowdFundingFactory.sol\":2528:2537  msg.value */\n      callvalue\n        /* \"src/CrowdFundingFactory.sol\":2539:2554  campaignCounter */\n      dup6\n        /* \"src/CrowdFundingFactory.sol\":2500:2555  CampaignCreated(msg.sender, msg.value, campaignCounter) */\n      mload(0x40)\n      tag_58\n      swap3\n      swap2\n      swap1\n      tag_59\n      jump\t// in\n    tag_58:\n      mload(0x40)\n      dup1\n      swap2\n      sub\n      swap1\n      log2\n        /* \"src/CrowdFundingFactory.sol\":541:552  0.010 ether */\n      0x2386f26fc10000\n        /* \"src/CrowdFundingFactory.sol\":2611:2620  msg.value */\n      callvalue\n        /* \"src/CrowdFundingFactory.sol\":2611:2635  msg.value > CREATION_FEE */\n      gt\n        /* \"src/CrowdFundingFactory.sol\":2607:2832  if (msg.value > CREATION_FEE) {... */\n      iszero\n      tag_60\n      jumpi\n        /* \"src/CrowdFundingFactory.sol\":2652:2666  uint256 refund */\n      0x00\n        /* \"src/CrowdFundingFactory.sol\":541:552  0.010 ether */\n      0x2386f26fc10000\n        /* \"src/CrowdFundingFactory.sol\":2669:2678  msg.value */\n      callvalue\n        /* \"src/CrowdFundingFactory.sol\":2669:2693  msg.value - CREATION_FEE */\n      tag_61\n      swap2\n      swap1\n      tag_62\n      jump\t// in\n    tag_61:\n        /* \"src/CrowdFundingFactory.sol\":2652:2693  uint256 refund = msg.value - CREATION_FEE */\n      swap1\n      pop\n        /* \"src/CrowdFundingFactory.sol\":2711:2722  bool sucess */\n      0x00\n        /* \"src/CrowdFundingFactory.sol\":2736:2746  msg.sender */\n      caller\n        /* \"src/CrowdFundingFactory.sol\":2728:2752  payable(msg.sender).call */\n      0xffffffffffffffffffffffffffffffffffffffff\n      and\n        /* \"src/CrowdFundingFactory.sol\":2760:2766  refund */\n      dup3\n        /* \"src/CrowdFundingFactory.sol\":2728:2771  payable(msg.sender).call{value: refund}(\"\") */\n      mload(0x40)\n      tag_63\n      swap1\n      tag_64\n      jump\t// in\n    tag_63:\n      0x00\n      mload(0x40)\n      dup1\n      dup4\n      sub\n      dup2\n      dup6\n      dup8\n      gas\n      call\n      swap3\n      pop\n      pop\n      pop\n      returndatasize\n      dup1\n      0x00\n      dup2\n      eq\n      tag_67\n      jumpi\n      mload(0x40)\n      swap2\n      pop\n      and(add(returndatasize, 0x3f), not(0x1f))\n      dup3\n      add\n      0x40\n      mstore\n      returndatasize\n      dup3\n      mstore\n      returndatasize\n      0x00\n      0x20\n      dup5\n      add\n      returndatacopy\n      jump(tag_66)\n    tag_67:\n      0x60\n      swap2\n      pop\n    tag_66:\n      pop\n        /* \"src/CrowdFundingFactory.sol\":2710:2771  (bool sucess, ) = payable(msg.sender).call{value: refund}(\"\") */\n      pop\n      swap1\n      pop\n        /* \"src/CrowdFundingFactory.sol\":2796:2802  sucess */\n      dup1\n        /* \"src/CrowdFundingFactory.sol\":2788:2820  require(sucess, \"Refund Failed\") */\n      tag_68\n      jumpi\n      mload(0x40)\n      0x08c379a000000000000000000000000000000000000000000000000000000000\n      dup2\n      mstore\n      0x04\n      add\n      tag_69\n      swap1\n      tag_70\n      jump\t// in\n    tag_69:\n      mload(0x40)\n      dup1\n      swap2\n      sub\n      swap1\n      revert\n    tag_68:\n        /* \"src/CrowdFundingFactory.sol\":2637:2832  {... */\n      pop\n      pop\n        /* \"src/CrowdFundingFactory.sol\":2607:2832  if (msg.value > CREATION_FEE) {... */\n    tag_60:\n        /* \"src/CrowdFundingFactory.sol\":1264:2839  {... */\n      pop\n      pop\n      pop\n      pop\n        /* \"src/CrowdFundingFactory.sol\":1190:2839  function createCampaign(uint256 _goal, uint256 _deadine) external payable {... */\n      pop\n      pop\n      jump\t// out\n        /* \"@openzeppelin/contracts/access/Ownable.sol\":2293:2394  function renounceOwnership() public virtual onlyOwner {... */\n    tag_14:\n        /* \"@openzeppelin/contracts/access/Ownable.sol\":1531:1544  _checkOwner() */\n      tag_72\n        /* \"@openzeppelin/contracts/access/Ownable.sol\":1531:1542  _checkOwner */\n      tag_73\n        /* \"@openzeppelin/contracts/access/Ownable.sol\":1531:1544  _checkOwner() */\n      jump\t// in\n    tag_72:\n        /* \"@openzeppelin/contracts/access/Ownable.sol\":2357:2387  _transferOwnership(address(0)) */\n      tag_75\n        /* \"@openzeppelin/contracts/access/Ownable.sol\":2384:2385  0 */\n      0x00\n        /* \"@openzeppelin/contracts/access/Ownable.sol\":2357:2375  _transferOwnership */\n      tag_76\n        /* \"@openzeppelin/contracts/access/Ownable.sol\":2357:2387  _transferOwnership(address(0)) */\n      jump\t// in\n    tag_75:\n        /* \"@openzeppelin/contracts/access/Ownable.sol\":2293:2394  function renounceOwnership() public virtual onlyOwner {... */\n      jump\t// out\n        /* \"src/CrowdFundingFactory.sol\":3037:3142  function getAllCampaigns() external view returns (address[] memory) {... */\n    tag_17:\n        /* \"src/CrowdFundingFactory.sol\":3087:3103  address[] memory */\n      0x60\n        /* \"src/CrowdFundingFactory.sol\":3123:3134  s_campaigns */\n      0x02\n        /* \"src/CrowdFundingFactory.sol\":3116:3134  return s_campaigns */\n      dup1\n      sload\n      dup1\n      0x20\n      mul\n      0x20\n      add\n      mload(0x40)\n      swap1\n      dup2\n      add\n      0x40\n      mstore\n      dup1\n      swap3\n      swap2\n      swap1\n      dup2\n      dup2\n      mstore\n      0x20\n      add\n      dup3\n      dup1\n      sload\n      dup1\n      iszero\n      tag_78\n      jumpi\n      0x20\n      mul\n      dup3\n      add\n      swap2\n      swap1\n      0x00\n      mstore\n      keccak256(0x00, 0x20)\n      swap1\n    tag_79:\n      dup2\n      0x00\n      swap1\n      sload\n      swap1\n      0x0100\n      exp\n      swap1\n      div\n      0xffffffffffffffffffffffffffffffffffffffff\n      and\n      0xffffffffffffffffffffffffffffffffffffffff\n      and\n      dup2\n      mstore\n      0x20\n      add\n      swap1\n      0x01\n      add\n      swap1\n      dup1\n      dup4\n      gt\n      tag_79\n      jumpi\n    tag_78:\n      pop\n      pop\n      pop\n      pop\n      pop\n      swap1\n      pop\n        /* \"src/CrowdFundingFactory.sol\":3037:3142  function getAllCampaigns() external view returns (address[] memory) {... */\n      swap1\n      jump\t// out\n        /* \"@openzeppelin/contracts/access/Ownable.sol\":1638:1723  function owner() public view virtual returns (address) {... */\n    tag_22:\n        /* \"@openzeppelin/contracts/access/Ownable.sol\":1684:1691  address */\n      0x00\n        /* \"@openzeppelin/contracts/access/Ownable.sol\":1710:1716  _owner */\n      0x00\n      0x00\n      swap1\n      sload\n      swap1\n      0x0100\n      exp\n      swap1\n      div\n      0xffffffffffffffffffffffffffffffffffffffff\n      and\n        /* \"@openzeppelin/contracts/access/Ownable.sol\":1703:1716  return _owner */\n      swap1\n      pop\n        /* \"@openzeppelin/contracts/access/Ownable.sol\":1638:1723  function owner() public view virtual returns (address) {... */\n      swap1\n      jump\t// out\n        /* \"src/CrowdFundingFactory.sol\":2872:3029  function getCampaignInfo(... */\n    tag_29:\n        /* \"src/CrowdFundingFactory.sol\":2957:2976  CampaignInfo memory */\n      tag_81\n      tag_82\n      jump\t// in\n    tag_81:\n        /* \"src/CrowdFundingFactory.sol\":2996:3008  campaignInfo */\n      0x03\n        /* \"src/CrowdFundingFactory.sol\":2996:3021  campaignInfo[_campaignId] */\n      0x00\n        /* \"src/CrowdFundingFactory.sol\":3009:3020  _campaignId */\n      dup4\n        /* \"src/CrowdFundingFactory.sol\":2996:3021  campaignInfo[_campaignId] */\n      dup2\n      mstore\n      0x20\n      add\n      swap1\n      dup2\n      mstore\n      0x20\n      add\n      0x00\n      keccak256\n        /* \"src/CrowdFundingFactory.sol\":2989:3021  return campaignInfo[_campaignId] */\n      mload(0x40)\n      dup1\n      0x80\n      add\n      0x40\n      mstore\n      swap1\n      dup2\n      0x00\n      dup3\n      add\n      0x00\n      swap1\n      sload\n      swap1\n      0x0100\n      exp\n      swap1\n      div\n      0xffffffffffffffffffffffffffffffffffffffff\n      and\n      0xffffffffffffffffffffffffffffffffffffffff\n      and\n      0xffffffffffffffffffffffffffffffffffffffff\n      and\n      dup2\n      mstore\n      0x20\n      add\n      0x01\n      dup3\n      add\n      0x00\n      swap1\n      sload\n      swap1\n      0x0100\n      exp\n      swap1\n      div\n      0xffffffffffffffffffffffffffffffffffffffff\n      and\n      0xffffffffffffffffffffffffffffffffffffffff\n      and\n      0xffffffffffffffffffffffffffffffffffffffff\n      and\n      dup2\n      mstore\n      0x20\n      add\n      0x02\n      dup3\n      add\n      sload\n      dup2\n      mstore\n      0x20\n      add\n      0x03\n      dup3\n      add\n      sload\n      dup2\n      mstore\n      pop\n      pop\n      swap1\n      pop\n        /* \"src/CrowdFundingFactory.sol\":2872:3029  function getCampaignInfo(... */\n      swap2\n      swap1\n      pop\n      jump\t// out\n        /* \"@openzeppelin/contracts/access/Ownable.sol\":2543:2758  function transferOwnership(address newOwner) public virtual onlyOwner {... */\n    tag_36:\n        /* \"@openzeppelin/contracts/access/Ownable.sol\":1531:1544  _checkOwner() */\n      tag_85\n        /* \"@openzeppelin/contracts/access/Ownable.sol\":1531:1542  _checkOwner */\n      tag_73\n        /* \"@openzeppelin/contracts/access/Ownable.sol\":1531:1544  _checkOwner() */\n      jump\t// in\n    tag_85:\n        /* \"@openzeppelin/contracts/access/Ownable.sol\":2647:2648  0 */\n      0x00\n        /* \"@openzeppelin/contracts/access/Ownable.sol\":2627:2649  newOwner == address(0) */\n      0xffffffffffffffffffffffffffffffffffffffff\n      and\n        /* \"@openzeppelin/contracts/access/Ownable.sol\":2627:2635  newOwner */\n      dup2\n        /* \"@openzeppelin/contracts/access/Ownable.sol\":2627:2649  newOwner == address(0) */\n      0xffffffffffffffffffffffffffffffffffffffff\n      and\n      sub\n        /* \"@openzeppelin/contracts/access/Ownable.sol\":2623:2714  if (newOwner == address(0)) {... */\n      tag_87\n      jumpi\n        /* \"@openzeppelin/contracts/access/Ownable.sol\":2700:2701  0 */\n      0x00\n        /* \"@openzeppelin/contracts/access/Ownable.sol\":2672:2703  OwnableInvalidOwner(address(0)) */\n      mload(0x40)\n      0x1e4fbdf700000000000000000000000000000000000000000000000000000000\n      dup2\n      mstore\n      0x04\n      add\n      tag_88\n      swap2\n      swap1\n      tag_24\n      jump\t// in\n    tag_88:\n      mload(0x40)\n      dup1\n      swap2\n      sub\n      swap1\n      revert\n        /* \"@openzeppelin/contracts/access/Ownable.sol\":2623:2714  if (newOwner == address(0)) {... */\n    tag_87:\n        /* \"@openzeppelin/contracts/access/Ownable.sol\":2723:2751  _transferOwnership(newOwner) */\n      tag_89\n        /* \"@openzeppelin/contracts/access/Ownable.sol\":2742:2750  newOwner */\n      dup2\n        /* \"@openzeppelin/contracts/access/Ownable.sol\":2723:2741  _transferOwnership */\n      tag_76\n        /* \"@openzeppelin/contracts/access/Ownable.sol\":2723:2751  _transferOwnership(newOwner) */\n      jump\t// in\n    tag_89:\n        /* \"@openzeppelin/contracts/access/Ownable.sol\":2543:2758  function transferOwnership(address newOwner) public virtual onlyOwner {... */\n      pop\n      jump\t// out\n        /* \"src/UnitConverter.sol\":95:195  function toWei(uint256 amount) internal pure returns(uint256){... */\n    tag_47:\n        /* \"src/UnitConverter.sol\":148:155  uint256 */\n      0x00\n        /* \"src/UnitConverter.sol\":183:187  1e18 */\n      0x0de0b6b3a7640000\n        /* \"src/UnitConverter.sol\":174:180  amount */\n      dup3\n        /* \"src/UnitConverter.sol\":174:187  amount * 1e18 */\n      tag_91\n      swap2\n      swap1\n      tag_39\n      jump\t// in\n    tag_91:\n        /* \"src/UnitConverter.sol\":167:187  return amount * 1e18 */\n      swap1\n      pop\n        /* \"src/UnitConverter.sol\":95:195  function toWei(uint256 amount) internal pure returns(uint256){... */\n      swap2\n      swap1\n      pop\n      jump\t// out\n        /* \"@openzeppelin/contracts/access/Ownable.sol\":1796:1958  function _checkOwner() internal view virtual {... */\n    tag_73:\n        /* \"@openzeppelin/contracts/access/Ownable.sol\":1866:1878  _msgSender() */\n      tag_93\n        /* \"@openzeppelin/contracts/access/Ownable.sol\":1866:1876  _msgSender */\n      tag_94\n        /* \"@openzeppelin/contracts/access/Ownable.sol\":1866:1878  _msgSender() */\n      jump\t// in\n    tag_93:\n        /* \"@openzeppelin/contracts/access/Ownable.sol\":1855:1878  owner() != _msgSender() */\n      0xffffffffffffffffffffffffffffffffffffffff\n      and\n        /* \"@openzeppelin/contracts/access/Ownable.sol\":1855:1862  owner() */\n      tag_95\n        /* \"@openzeppelin/contracts/access/Ownable.sol\":1855:1860  owner */\n      tag_22\n        /* \"@openzeppelin/contracts/access/Ownable.sol\":1855:1862  owner() */\n      jump\t// in\n    tag_95:\n        /* \"@openzeppelin/contracts/access/Ownable.sol\":1855:1878  owner() != _msgSender() */\n      0xffffffffffffffffffffffffffffffffffffffff\n      and\n      eq\n        /* \"@openzeppelin/contracts/access/Ownable.sol\":1851:1952  if (owner() != _msgSender()) {... */\n      tag_96\n      jumpi\n        /* \"@openzeppelin/contracts/access/Ownable.sol\":1928:1940  _msgSender() */\n      tag_97\n        /* \"@openzeppelin/contracts/access/Ownable.sol\":1928:1938  _msgSender */\n      tag_94\n        /* \"@openzeppelin/contracts/access/Ownable.sol\":1928:1940  _msgSender() */\n      jump\t// in\n    tag_97:\n        /* \"@openzeppelin/contracts/access/Ownable.sol\":1901:1941  OwnableUnauthorizedAccount(_msgSender()) */\n      mload(0x40)\n      0x118cdaa700000000000000000000000000000000000000000000000000000000\n      dup2\n      mstore\n      0x04\n      add\n      tag_98\n      swap2\n      swap1\n      tag_24\n      jump\t// in\n    tag_98:\n      mload(0x40)\n      dup1\n      swap2\n      sub\n      swap1\n      revert\n        /* \"@openzeppelin/contracts/access/Ownable.sol\":1851:1952  if (owner() != _msgSender()) {... */\n    tag_96:\n        /* \"@openzeppelin/contracts/access/Ownable.sol\":1796:1958  function _checkOwner() internal view virtual {... */\n      jump\t// out\n        /* \"@openzeppelin/contracts/access/Ownable.sol\":2912:3099  function _transferOwnership(address newOwner) internal virtual {... */\n    tag_76:\n        /* \"@openzeppelin/contracts/access/Ownable.sol\":2985:3001  address oldOwner */\n      0x00\n        /* \"@openzeppelin/contracts/access/Ownable.sol\":3004:3010  _owner */\n      0x00\n      0x00\n      swap1\n      sload\n      swap1\n      0x0100\n      exp\n      swap1\n      div\n      0xffffffffffffffffffffffffffffffffffffffff\n      and\n        /* \"@openzeppelin/contracts/access/Ownable.sol\":2985:3010  address oldOwner = _owner */\n      swap1\n      pop\n        /* \"@openzeppelin/contracts/access/Ownable.sol\":3029:3037  newOwner */\n      dup2\n        /* \"@openzeppelin/contracts/access/Ownable.sol\":3020:3026  _owner */\n      0x00\n      0x00\n        /* \"@openzeppelin/contracts/access/Ownable.sol\":3020:3037  _owner = newOwner */\n      0x0100\n      exp\n      dup2\n      sload\n      dup2\n      0xffffffffffffffffffffffffffffffffffffffff\n      mul\n      not\n      and\n      swap1\n      dup4\n      0xffffffffffffffffffffffffffffffffffffffff\n      and\n      mul\n      or\n      swap1\n      sstore\n      pop\n        /* \"@openzeppelin/contracts/access/Ownable.sol\":3083:3091  newOwner */\n      dup2\n        /* \"@openzeppelin/contracts/access/Ownable.sol\":3052:3092  OwnershipTransferred(oldOwner, newOwner) */\n      0xffffffffffffffffffffffffffffffffffffffff\n      and\n        /* \"@openzeppelin/contracts/access/Ownable.sol\":3073:3081  oldOwner */\n      dup2\n        /* \"@openzeppelin/contracts/access/Ownable.sol\":3052:3092  OwnershipTransferred(oldOwner, newOwner) */\n      0xffffffffffffffffffffffffffffffffffffffff\n      and\n      0x8be0079c531659141344cd1fd0a4f28419497f9722a3daafe3b4186f6b6457e0\n      mload(0x40)\n      mload(0x40)\n      dup1\n      swap2\n      sub\n      swap1\n      log3\n        /* \"@openzeppelin/contracts/access/Ownable.sol\":2975:3099  {... */\n      pop\n        /* \"@openzeppelin/contracts/access/Ownable.sol\":2912:3099  function _transferOwnership(address newOwner) internal virtual {... */\n      pop\n      jump\t// out\n        /* \"@openzeppelin/contracts/utils/Context.sol\":656:752  function _msgSender() internal view virtual returns (address) {... */\n    tag_94:\n        /* \"@openzeppelin/contracts/utils/Context.sol\":709:716  address */\n      0x00\n        /* \"@openzeppelin/contracts/utils/Context.sol\":735:745  msg.sender */\n      caller\n        /* \"@openzeppelin/contracts/utils/Context.sol\":728:745  return msg.sender */\n      swap1\n      pop\n        /* \"@openzeppelin/contracts/utils/Context.sol\":656:752  function _msgSender() internal view virtual returns (address) {... */\n      swap1\n      jump\t// out\n    tag_51:\n      dataSize(sub_0)\n      dup1\n      dataOffset(sub_0)\n      dup4\n      codecopy\n      add\n      swap1\n      jump\t// out\n    tag_82:\n      mload(0x40)\n      dup1\n      0x80\n      add\n      0x40\n      mstore\n      dup1\n      and(0xffffffffffffffffffffffffffffffffffffffff, 0x00)\n      dup2\n      mstore\n      0x20\n      add\n      and(0xffffffffffffffffffffffffffffffffffffffff, 0x00)\n      dup2\n      mstore\n      0x20\n      add\n      0x00\n      dup2\n      mstore\n      0x20\n      add\n      0x00\n      dup2\n      mstore\n      pop\n      swap1\n      jump\t// out\n        /* \"#utility.yul\":88:205   */\n    tag_102:\n        /* \"#utility.yul\":197:198   */\n      0x00\n        /* \"#utility.yul\":194:195   */\n      0x00\n        /* \"#utility.yul\":187:199   */\n      revert\n        /* \"#utility.yul\":334:411   */\n    tag_104:\n        /* \"#utility.yul\":371:378   */\n      0x00\n        /* \"#utility.yul\":400:405   */\n      dup2\n        /* \"#utility.yul\":389:405   */\n      swap1\n      pop\n        /* \"#utility.yul\":334:411   */\n      swap2\n      swap1\n      pop\n      jump\t// out\n        /* \"#utility.yul\":417:539   */\n    tag_105:\n        /* \"#utility.yul\":490:514   */\n      tag_135\n        /* \"#utility.yul\":508:513   */\n      dup2\n        /* \"#utility.yul\":490:514   */\n      tag_104\n      jump\t// in\n    tag_135:\n        /* \"#utility.yul\":483:488   */\n      dup2\n        /* \"#utility.yul\":480:515   */\n      eq\n        /* \"#utility.yul\":470:533   */\n      tag_136\n      jumpi\n        /* \"#utility.yul\":529:530   */\n      0x00\n        /* \"#utility.yul\":526:527   */\n      0x00\n        /* \"#utility.yul\":519:531   */\n      revert\n        /* \"#utility.yul\":470:533   */\n    tag_136:\n        /* \"#utility.yul\":417:539   */\n      pop\n      jump\t// out\n        /* \"#utility.yul\":545:684   */\n    tag_106:\n        /* \"#utility.yul\":591:596   */\n      0x00\n        /* \"#utility.yul\":629:635   */\n      dup2\n        /* \"#utility.yul\":616:636   */\n      calldataload\n        /* \"#utility.yul\":607:636   */\n      swap1\n      pop\n        /* \"#utility.yul\":645:678   */\n      tag_138\n        /* \"#utility.yul\":672:677   */\n      dup2\n        /* \"#utility.yul\":645:678   */\n      tag_105\n      jump\t// in\n    tag_138:\n        /* \"#utility.yul\":545:684   */\n      swap3\n      swap2\n      pop\n      pop\n      jump\t// out\n        /* \"#utility.yul\":690:1164   */\n    tag_10:\n        /* \"#utility.yul\":758:764   */\n      0x00\n        /* \"#utility.yul\":766:772   */\n      0x00\n        /* \"#utility.yul\":815:817   */\n      0x40\n        /* \"#utility.yul\":803:812   */\n      dup4\n        /* \"#utility.yul\":794:801   */\n      dup6\n        /* \"#utility.yul\":790:813   */\n      sub\n        /* \"#utility.yul\":786:818   */\n      slt\n        /* \"#utility.yul\":783:902   */\n      iszero\n      tag_140\n      jumpi\n        /* \"#utility.yul\":821:900   */\n      tag_141\n      tag_102\n      jump\t// in\n    tag_141:\n        /* \"#utility.yul\":783:902   */\n    tag_140:\n        /* \"#utility.yul\":941:942   */\n      0x00\n        /* \"#utility.yul\":966:1019   */\n      tag_142\n        /* \"#utility.yul\":1011:1018   */\n      dup6\n        /* \"#utility.yul\":1002:1008   */\n      dup3\n        /* \"#utility.yul\":991:1000   */\n      dup7\n        /* \"#utility.yul\":987:1009   */\n      add\n        /* \"#utility.yul\":966:1019   */\n      tag_106\n      jump\t// in\n    tag_142:\n        /* \"#utility.yul\":956:1019   */\n      swap3\n      pop\n        /* \"#utility.yul\":912:1029   */\n      pop\n        /* \"#utility.yul\":1068:1070   */\n      0x20\n        /* \"#utility.yul\":1094:1147   */\n      tag_143\n        /* \"#utility.yul\":1139:1146   */\n      dup6\n        /* \"#utility.yul\":1130:1136   */\n      dup3\n        /* \"#utility.yul\":1119:1128   */\n      dup7\n        /* \"#utility.yul\":1115:1137   */\n      add\n        /* \"#utility.yul\":1094:1147   */\n      tag_106\n      jump\t// in\n    tag_143:\n        /* \"#utility.yul\":1084:1147   */\n      swap2\n      pop\n        /* \"#utility.yul\":1039:1157   */\n      pop\n        /* \"#utility.yul\":690:1164   */\n      swap3\n      pop\n      swap3\n      swap1\n      pop\n      jump\t// out\n        /* \"#utility.yul\":1170:1284   */\n    tag_107:\n        /* \"#utility.yul\":1237:1243   */\n      0x00\n        /* \"#utility.yul\":1271:1276   */\n      dup2\n        /* \"#utility.yul\":1265:1277   */\n      mload\n        /* \"#utility.yul\":1255:1277   */\n      swap1\n      pop\n        /* \"#utility.yul\":1170:1284   */\n      swap2\n      swap1\n      pop\n      jump\t// out\n        /* \"#utility.yul\":1290:1474   */\n    tag_108:\n        /* \"#utility.yul\":1389:1400   */\n      0x00\n        /* \"#utility.yul\":1423:1429   */\n      dup3\n        /* \"#utility.yul\":1418:1421   */\n      dup3\n        /* \"#utility.yul\":1411:1430   */\n      mstore\n        /* \"#utility.yul\":1463:1467   */\n      0x20\n        /* \"#utility.yul\":1458:1461   */\n      dup3\n        /* \"#utility.yul\":1454:1468   */\n      add\n        /* \"#utility.yul\":1439:1468   */\n      swap1\n      pop\n        /* \"#utility.yul\":1290:1474   */\n      swap3\n      swap2\n      pop\n      pop\n      jump\t// out\n        /* \"#utility.yul\":1480:1612   */\n    tag_109:\n        /* \"#utility.yul\":1547:1551   */\n      0x00\n        /* \"#utility.yul\":1570:1573   */\n      dup2\n        /* \"#utility.yul\":1562:1573   */\n      swap1\n      pop\n        /* \"#utility.yul\":1600:1604   */\n      0x20\n        /* \"#utility.yul\":1595:1598   */\n      dup3\n        /* \"#utility.yul\":1591:1605   */\n      add\n        /* \"#utility.yul\":1583:1605   */\n      swap1\n      pop\n        /* \"#utility.yul\":1480:1612   */\n      swap2\n      swap1\n      pop\n      jump\t// out\n        /* \"#utility.yul\":1618:1744   */\n    tag_110:\n        /* \"#utility.yul\":1655:1662   */\n      0x00\n        /* \"#utility.yul\":1695:1737   */\n      0xffffffffffffffffffffffffffffffffffffffff\n        /* \"#utility.yul\":1688:1693   */\n      dup3\n        /* \"#utility.yul\":1684:1738   */\n      and\n        /* \"#utility.yul\":1673:1738   */\n      swap1\n      pop\n        /* \"#utility.yul\":1618:1744   */\n      swap2\n      swap1\n      pop\n      jump\t// out\n        /* \"#utility.yul\":1750:1846   */\n    tag_111:\n        /* \"#utility.yul\":1787:1794   */\n      0x00\n        /* \"#utility.yul\":1816:1840   */\n      tag_149\n        /* \"#utility.yul\":1834:1839   */\n      dup3\n        /* \"#utility.yul\":1816:1840   */\n      tag_110\n      jump\t// in\n    tag_149:\n        /* \"#utility.yul\":1805:1840   */\n      swap1\n      pop\n        /* \"#utility.yul\":1750:1846   */\n      swap2\n      swap1\n      pop\n      jump\t// out\n        /* \"#utility.yul\":1852:1960   */\n    tag_112:\n        /* \"#utility.yul\":1929:1953   */\n      tag_151\n        /* \"#utility.yul\":1947:1952   */\n      dup2\n        /* \"#utility.yul\":1929:1953   */\n      tag_111\n      jump\t// in\n    tag_151:\n        /* \"#utility.yul\":1924:1927   */\n      dup3\n        /* \"#utility.yul\":1917:1954   */\n      mstore\n        /* \"#utility.yul\":1852:1960   */\n      pop\n      pop\n      jump\t// out\n        /* \"#utility.yul\":1966:2145   */\n    tag_113:\n        /* \"#utility.yul\":2035:2045   */\n      0x00\n        /* \"#utility.yul\":2056:2102   */\n      tag_153\n        /* \"#utility.yul\":2098:2101   */\n      dup4\n        /* \"#utility.yul\":2090:2096   */\n      dup4\n        /* \"#utility.yul\":2056:2102   */\n      tag_112\n      jump\t// in\n    tag_153:\n        /* \"#utility.yul\":2134:2138   */\n      0x20\n        /* \"#utility.yul\":2129:2132   */\n      dup4\n        /* \"#utility.yul\":2125:2139   */\n      add\n        /* \"#utility.yul\":2111:2139   */\n      swap1\n      pop\n        /* \"#utility.yul\":1966:2145   */\n      swap3\n      swap2\n      pop\n      pop\n      jump\t// out\n        /* \"#utility.yul\":2151:2264   */\n    tag_114:\n        /* \"#utility.yul\":2221:2225   */\n      0x00\n        /* \"#utility.yul\":2253:2257   */\n      0x20\n        /* \"#utility.yul\":2248:2251   */\n      dup3\n        /* \"#utility.yul\":2244:2258   */\n      add\n        /* \"#utility.yul\":2236:2258   */\n      swap1\n      pop\n        /* \"#utility.yul\":2151:2264   */\n      swap2\n      swap1\n      pop\n      jump\t// out\n        /* \"#utility.yul\":2300:3032   */\n    tag_115:\n        /* \"#utility.yul\":2419:2422   */\n      0x00\n        /* \"#utility.yul\":2448:2502   */\n      tag_156\n        /* \"#utility.yul\":2496:2501   */\n      dup3\n        /* \"#utility.yul\":2448:2502   */\n      tag_107\n      jump\t// in\n    tag_156:\n        /* \"#utility.yul\":2518:2604   */\n      tag_157\n        /* \"#utility.yul\":2597:2603   */\n      dup2\n        /* \"#utility.yul\":2592:2595   */\n      dup6\n        /* \"#utility.yul\":2518:2604   */\n      tag_108\n      jump\t// in\n    tag_157:\n        /* \"#utility.yul\":2511:2604   */\n      swap4\n      pop\n        /* \"#utility.yul\":2628:2684   */\n      tag_158\n        /* \"#utility.yul\":2678:2683   */\n      dup4\n        /* \"#utility.yul\":2628:2684   */\n      tag_109\n      jump\t// in\n    tag_158:\n        /* \"#utility.yul\":2707:2714   */\n      dup1\n        /* \"#utility.yul\":2738:2739   */\n      0x00\n        /* \"#utility.yul\":2723:3007   */\n    tag_159:\n        /* \"#utility.yul\":2748:2754   */\n      dup4\n        /* \"#utility.yul\":2745:2746   */\n      dup2\n        /* \"#utility.yul\":2742:2755   */\n      lt\n        /* \"#utility.yul\":2723:3007   */\n      iszero\n      tag_161\n      jumpi\n        /* \"#utility.yul\":2824:2830   */\n      dup2\n        /* \"#utility.yul\":2818:2831   */\n      mload\n        /* \"#utility.yul\":2851:2914   */\n      tag_162\n        /* \"#utility.yul\":2910:2913   */\n      dup9\n        /* \"#utility.yul\":2895:2908   */\n      dup3\n        /* \"#utility.yul\":2851:2914   */\n      tag_113\n      jump\t// in\n    tag_162:\n        /* \"#utility.yul\":2844:2914   */\n      swap8\n      pop\n        /* \"#utility.yul\":2937:2997   */\n      tag_163\n        /* \"#utility.yul\":2990:2996   */\n      dup4\n        /* \"#utility.yul\":2937:2997   */\n      tag_114\n      jump\t// in\n    tag_163:\n        /* \"#utility.yul\":2927:2997   */\n      swap3\n      pop\n        /* \"#utility.yul\":2783:3007   */\n      pop\n        /* \"#utility.yul\":2770:2771   */\n      0x01\n        /* \"#utility.yul\":2767:2768   */\n      dup2\n        /* \"#utility.yul\":2763:2772   */\n      add\n        /* \"#utility.yul\":2758:2772   */\n      swap1\n      pop\n        /* \"#utility.yul\":2723:3007   */\n      jump(tag_159)\n    tag_161:\n        /* \"#utility.yul\":2727:2741   */\n      pop\n        /* \"#utility.yul\":3023:3026   */\n      dup6\n        /* \"#utility.yul\":3016:3026   */\n      swap4\n      pop\n        /* \"#utility.yul\":2424:3032   */\n      pop\n      pop\n      pop\n        /* \"#utility.yul\":2300:3032   */\n      swap3\n      swap2\n      pop\n      pop\n      jump\t// out\n        /* \"#utility.yul\":3038:3411   */\n    tag_19:\n        /* \"#utility.yul\":3181:3185   */\n      0x00\n        /* \"#utility.yul\":3219:3221   */\n      0x20\n        /* \"#utility.yul\":3208:3217   */\n      dup3\n        /* \"#utility.yul\":3204:3222   */\n      add\n        /* \"#utility.yul\":3196:3222   */\n      swap1\n      pop\n        /* \"#utility.yul\":3268:3277   */\n      dup2\n        /* \"#utility.yul\":3262:3266   */\n      dup2\n        /* \"#utility.yul\":3258:3278   */\n      sub\n        /* \"#utility.yul\":3254:3255   */\n      0x00\n        /* \"#utility.yul\":3243:3252   */\n      dup4\n        /* \"#utility.yul\":3239:3256   */\n      add\n        /* \"#utility.yul\":3232:3279   */\n      mstore\n        /* \"#utility.yul\":3296:3404   */\n      tag_165\n        /* \"#utility.yul\":3399:3403   */\n      dup2\n        /* \"#utility.yul\":3390:3396   */\n      dup5\n        /* \"#utility.yul\":3296:3404   */\n      tag_115\n      jump\t// in\n    tag_165:\n        /* \"#utility.yul\":3288:3404   */\n      swap1\n      pop\n        /* \"#utility.yul\":3038:3411   */\n      swap3\n      swap2\n      pop\n      pop\n      jump\t// out\n        /* \"#utility.yul\":3417:3535   */\n    tag_116:\n        /* \"#utility.yul\":3504:3528   */\n      tag_167\n        /* \"#utility.yul\":3522:3527   */\n      dup2\n        /* \"#utility.yul\":3504:3528   */\n      tag_111\n      jump\t// in\n    tag_167:\n        /* \"#utility.yul\":3499:3502   */\n      dup3\n        /* \"#utility.yul\":3492:3529   */\n      mstore\n        /* \"#utility.yul\":3417:3535   */\n      pop\n      pop\n      jump\t// out\n        /* \"#utility.yul\":3541:3763   */\n    tag_24:\n        /* \"#utility.yul\":3634:3638   */\n      0x00\n        /* \"#utility.yul\":3672:3674   */\n      0x20\n        /* \"#utility.yul\":3661:3670   */\n      dup3\n        /* \"#utility.yul\":3657:3675   */\n      add\n        /* \"#utility.yul\":3649:3675   */\n      swap1\n      pop\n        /* \"#utility.yul\":3685:3756   */\n      tag_169\n        /* \"#utility.yul\":3753:3754   */\n      0x00\n        /* \"#utility.yul\":3742:3751   */\n      dup4\n        /* \"#utility.yul\":3738:3755   */\n      add\n        /* \"#utility.yul\":3729:3735   */\n      dup5\n        /* \"#utility.yul\":3685:3756   */\n      tag_116\n      jump\t// in\n    tag_169:\n        /* \"#utility.yul\":3541:3763   */\n      swap3\n      swap2\n      pop\n      pop\n      jump\t// out\n        /* \"#utility.yul\":3769:4098   */\n    tag_28:\n        /* \"#utility.yul\":3828:3834   */\n      0x00\n        /* \"#utility.yul\":3877:3879   */\n      0x20\n        /* \"#utility.yul\":3865:3874   */\n      dup3\n        /* \"#utility.yul\":3856:3863   */\n      dup5\n        /* \"#utility.yul\":3852:3875   */\n      sub\n        /* \"#utility.yul\":3848:3880   */\n      slt\n        /* \"#utility.yul\":3845:3964   */\n      iszero\n      tag_171\n      jumpi\n        /* \"#utility.yul\":3883:3962   */\n      tag_172\n      tag_102\n      jump\t// in\n    tag_172:\n        /* \"#utility.yul\":3845:3964   */\n    tag_171:\n        /* \"#utility.yul\":4003:4004   */\n      0x00\n        /* \"#utility.yul\":4028:4081   */\n      tag_173\n        /* \"#utility.yul\":4073:4080   */\n      dup5\n        /* \"#utility.yul\":4064:4070   */\n      dup3\n        /* \"#utility.yul\":4053:4062   */\n      dup6\n        /* \"#utility.yul\":4049:4071   */\n      add\n        /* \"#utility.yul\":4028:4081   */\n      tag_106\n      jump\t// in\n    tag_173:\n        /* \"#utility.yul\":4018:4081   */\n      swap2\n      pop\n        /* \"#utility.yul\":3974:4091   */\n      pop\n        /* \"#utility.yul\":3769:4098   */\n      swap3\n      swap2\n      pop\n      pop\n      jump\t// out\n        /* \"#utility.yul\":4104:4212   */\n    tag_117:\n        /* \"#utility.yul\":4181:4205   */\n      tag_175\n        /* \"#utility.yul\":4199:4204   */\n      dup2\n        /* \"#utility.yul\":4181:4205   */\n      tag_104\n      jump\t// in\n    tag_175:\n        /* \"#utility.yul\":4176:4179   */\n      dup3\n        /* \"#utility.yul\":4169:4206   */\n      mstore\n        /* \"#utility.yul\":4104:4212   */\n      pop\n      pop\n      jump\t// out\n        /* \"#utility.yul\":4308:5190   */\n    tag_118:\n        /* \"#utility.yul\":4463:4467   */\n      0x80\n        /* \"#utility.yul\":4458:4461   */\n      dup3\n        /* \"#utility.yul\":4454:4468   */\n      add\n        /* \"#utility.yul\":4561:4565   */\n      0x00\n        /* \"#utility.yul\":4554:4559   */\n      dup3\n        /* \"#utility.yul\":4550:4566   */\n      add\n        /* \"#utility.yul\":4544:4567   */\n      mload\n        /* \"#utility.yul\":4580:4643   */\n      tag_177\n        /* \"#utility.yul\":4637:4641   */\n      0x00\n        /* \"#utility.yul\":4632:4635   */\n      dup6\n        /* \"#utility.yul\":4628:4642   */\n      add\n        /* \"#utility.yul\":4614:4626   */\n      dup3\n        /* \"#utility.yul\":4580:4643   */\n      tag_112\n      jump\t// in\n    tag_177:\n        /* \"#utility.yul\":4478:4653   */\n      pop\n        /* \"#utility.yul\":4738:4742   */\n      0x20\n        /* \"#utility.yul\":4731:4736   */\n      dup3\n        /* \"#utility.yul\":4727:4743   */\n      add\n        /* \"#utility.yul\":4721:4744   */\n      mload\n        /* \"#utility.yul\":4757:4820   */\n      tag_178\n        /* \"#utility.yul\":4814:4818   */\n      0x20\n        /* \"#utility.yul\":4809:4812   */\n      dup6\n        /* \"#utility.yul\":4805:4819   */\n      add\n        /* \"#utility.yul\":4791:4803   */\n      dup3\n        /* \"#utility.yul\":4757:4820   */\n      tag_112\n      jump\t// in\n    tag_178:\n        /* \"#utility.yul\":4663:4830   */\n      pop\n        /* \"#utility.yul\":4912:4916   */\n      0x40\n        /* \"#utility.yul\":4905:4910   */\n      dup3\n        /* \"#utility.yul\":4901:4917   */\n      add\n        /* \"#utility.yul\":4895:4918   */\n      mload\n        /* \"#utility.yul\":4931:4994   */\n      tag_179\n        /* \"#utility.yul\":4988:4992   */\n      0x40\n        /* \"#utility.yul\":4983:4986   */\n      dup6\n        /* \"#utility.yul\":4979:4993   */\n      add\n        /* \"#utility.yul\":4965:4977   */\n      dup3\n        /* \"#utility.yul\":4931:4994   */\n      tag_117\n      jump\t// in\n    tag_179:\n        /* \"#utility.yul\":4840:5004   */\n      pop\n        /* \"#utility.yul\":5091:5095   */\n      0x60\n        /* \"#utility.yul\":5084:5089   */\n      dup3\n        /* \"#utility.yul\":5080:5096   */\n      add\n        /* \"#utility.yul\":5074:5097   */\n      mload\n        /* \"#utility.yul\":5110:5173   */\n      tag_180\n        /* \"#utility.yul\":5167:5171   */\n      0x60\n        /* \"#utility.yul\":5162:5165   */\n      dup6\n        /* \"#utility.yul\":5158:5172   */\n      add\n        /* \"#utility.yul\":5144:5156   */\n      dup3\n        /* \"#utility.yul\":5110:5173   */\n      tag_117\n      jump\t// in\n    tag_180:\n        /* \"#utility.yul\":5014:5183   */\n      pop\n        /* \"#utility.yul\":4432:5190   */\n      pop\n        /* \"#utility.yul\":4308:5190   */\n      pop\n      pop\n      jump\t// out\n        /* \"#utility.yul\":5196:5535   */\n    tag_31:\n        /* \"#utility.yul\":5347:5351   */\n      0x00\n        /* \"#utility.yul\":5385:5388   */\n      0x80\n        /* \"#utility.yul\":5374:5383   */\n      dup3\n        /* \"#utility.yul\":5370:5389   */\n      add\n        /* \"#utility.yul\":5362:5389   */\n      swap1\n      pop\n        /* \"#utility.yul\":5399:5528   */\n      tag_182\n        /* \"#utility.yul\":5525:5526   */\n      0x00\n        /* \"#utility.yul\":5514:5523   */\n      dup4\n        /* \"#utility.yul\":5510:5527   */\n      add\n        /* \"#utility.yul\":5501:5507   */\n      dup5\n        /* \"#utility.yul\":5399:5528   */\n      tag_118\n      jump\t// in\n    tag_182:\n        /* \"#utility.yul\":5196:5535   */\n      swap3\n      swap2\n      pop\n      pop\n      jump\t// out\n        /* \"#utility.yul\":5541:5663   */\n    tag_119:\n        /* \"#utility.yul\":5614:5638   */\n      tag_184\n        /* \"#utility.yul\":5632:5637   */\n      dup2\n        /* \"#utility.yul\":5614:5638   */\n      tag_111\n      jump\t// in\n    tag_184:\n        /* \"#utility.yul\":5607:5612   */\n      dup2\n        /* \"#utility.yul\":5604:5639   */\n      eq\n        /* \"#utility.yul\":5594:5657   */\n      tag_185\n      jumpi\n        /* \"#utility.yul\":5653:5654   */\n      0x00\n        /* \"#utility.yul\":5650:5651   */\n      0x00\n        /* \"#utility.yul\":5643:5655   */\n      revert\n        /* \"#utility.yul\":5594:5657   */\n    tag_185:\n        /* \"#utility.yul\":5541:5663   */\n      pop\n      jump\t// out\n        /* \"#utility.yul\":5669:5808   */\n    tag_120:\n        /* \"#utility.yul\":5715:5720   */\n      0x00\n        /* \"#utility.yul\":5753:5759   */\n      dup2\n        /* \"#utility.yul\":5740:5760   */\n      calldataload\n        /* \"#utility.yul\":5731:5760   */\n      swap1\n      pop\n        /* \"#utility.yul\":5769:5802   */\n      tag_187\n        /* \"#utility.yul\":5796:5801   */\n      dup2\n        /* \"#utility.yul\":5769:5802   */\n      tag_119\n      jump\t// in\n    tag_187:\n        /* \"#utility.yul\":5669:5808   */\n      swap3\n      swap2\n      pop\n      pop\n      jump\t// out\n        /* \"#utility.yul\":5814:6143   */\n    tag_35:\n        /* \"#utility.yul\":5873:5879   */\n      0x00\n        /* \"#utility.yul\":5922:5924   */\n      0x20\n        /* \"#utility.yul\":5910:5919   */\n      dup3\n        /* \"#utility.yul\":5901:5908   */\n      dup5\n        /* \"#utility.yul\":5897:5920   */\n      sub\n        /* \"#utility.yul\":5893:5925   */\n      slt\n        /* \"#utility.yul\":5890:6009   */\n      iszero\n      tag_189\n      jumpi\n        /* \"#utility.yul\":5928:6007   */\n      tag_190\n      tag_102\n      jump\t// in\n    tag_190:\n        /* \"#utility.yul\":5890:6009   */\n    tag_189:\n        /* \"#utility.yul\":6048:6049   */\n      0x00\n        /* \"#utility.yul\":6073:6126   */\n      tag_191\n        /* \"#utility.yul\":6118:6125   */\n      dup5\n        /* \"#utility.yul\":6109:6115   */\n      dup3\n        /* \"#utility.yul\":6098:6107   */\n      dup6\n        /* \"#utility.yul\":6094:6116   */\n      add\n        /* \"#utility.yul\":6073:6126   */\n      tag_120\n      jump\t// in\n    tag_191:\n        /* \"#utility.yul\":6063:6126   */\n      swap2\n      pop\n        /* \"#utility.yul\":6019:6136   */\n      pop\n        /* \"#utility.yul\":5814:6143   */\n      swap3\n      swap2\n      pop\n      pop\n      jump\t// out\n        /* \"#utility.yul\":6149:6329   */\n    tag_121:\n        /* \"#utility.yul\":6197:6274   */\n      0x4e487b7100000000000000000000000000000000000000000000000000000000\n        /* \"#utility.yul\":6194:6195   */\n      0x00\n        /* \"#utility.yul\":6187:6275   */\n      mstore\n        /* \"#utility.yul\":6294:6298   */\n      0x11\n        /* \"#utility.yul\":6291:6292   */\n      0x04\n        /* \"#utility.yul\":6284:6299   */\n      mstore\n        /* \"#utility.yul\":6318:6322   */\n      0x24\n        /* \"#utility.yul\":6315:6316   */\n      0x00\n        /* \"#utility.yul\":6308:6323   */\n      revert\n        /* \"#utility.yul\":6335:6745   */\n    tag_39:\n        /* \"#utility.yul\":6375:6382   */\n      0x00\n        /* \"#utility.yul\":6398:6418   */\n      tag_194\n        /* \"#utility.yul\":6416:6417   */\n      dup3\n        /* \"#utility.yul\":6398:6418   */\n      tag_104\n      jump\t// in\n    tag_194:\n        /* \"#utility.yul\":6393:6418   */\n      swap2\n      pop\n        /* \"#utility.yul\":6432:6452   */\n      tag_195\n        /* \"#utility.yul\":6450:6451   */\n      dup4\n        /* \"#utility.yul\":6432:6452   */\n      tag_104\n      jump\t// in\n    tag_195:\n        /* \"#utility.yul\":6427:6452   */\n      swap3\n      pop\n        /* \"#utility.yul\":6487:6488   */\n      dup3\n        /* \"#utility.yul\":6484:6485   */\n      dup3\n        /* \"#utility.yul\":6480:6489   */\n      mul\n        /* \"#utility.yul\":6509:6539   */\n      tag_196\n        /* \"#utility.yul\":6527:6538   */\n      dup2\n        /* \"#utility.yul\":6509:6539   */\n      tag_104\n      jump\t// in\n    tag_196:\n        /* \"#utility.yul\":6498:6539   */\n      swap2\n      pop\n        /* \"#utility.yul\":6688:6689   */\n      dup3\n        /* \"#utility.yul\":6679:6686   */\n      dup3\n        /* \"#utility.yul\":6675:6690   */\n      div\n        /* \"#utility.yul\":6672:6673   */\n      dup5\n        /* \"#utility.yul\":6669:6691   */\n      eq\n        /* \"#utility.yul\":6649:6650   */\n      dup4\n        /* \"#utility.yul\":6642:6651   */\n      iszero\n        /* \"#utility.yul\":6622:6705   */\n      or\n        /* \"#utility.yul\":6599:6738   */\n      tag_197\n      jumpi\n        /* \"#utility.yul\":6718:6736   */\n      tag_198\n      tag_121\n      jump\t// in\n    tag_198:\n        /* \"#utility.yul\":6599:6738   */\n    tag_197:\n        /* \"#utility.yul\":6383:6745   */\n      pop\n        /* \"#utility.yul\":6335:6745   */\n      swap3\n      swap2\n      pop\n      pop\n      jump\t// out\n        /* \"#utility.yul\":6751:6942   */\n    tag_49:\n        /* \"#utility.yul\":6791:6794   */\n      0x00\n        /* \"#utility.yul\":6810:6830   */\n      tag_200\n        /* \"#utility.yul\":6828:6829   */\n      dup3\n        /* \"#utility.yul\":6810:6830   */\n      tag_104\n      jump\t// in\n    tag_200:\n        /* \"#utility.yul\":6805:6830   */\n      swap2\n      pop\n        /* \"#utility.yul\":6844:6864   */\n      tag_201\n        /* \"#utility.yul\":6862:6863   */\n      dup4\n        /* \"#utility.yul\":6844:6864   */\n      tag_104\n      jump\t// in\n    tag_201:\n        /* \"#utility.yul\":6839:6864   */\n      swap3\n      pop\n        /* \"#utility.yul\":6887:6888   */\n      dup3\n        /* \"#utility.yul\":6884:6885   */\n      dup3\n        /* \"#utility.yul\":6880:6889   */\n      add\n        /* \"#utility.yul\":6873:6889   */\n      swap1\n      pop\n        /* \"#utility.yul\":6908:6911   */\n      dup1\n        /* \"#utility.yul\":6905:6906   */\n      dup3\n        /* \"#utility.yul\":6902:6912   */\n      gt\n        /* \"#utility.yul\":6899:6935   */\n      iszero\n      tag_202\n      jumpi\n        /* \"#utility.yul\":6915:6933   */\n      tag_203\n      tag_121\n      jump\t// in\n    tag_203:\n        /* \"#utility.yul\":6899:6935   */\n    tag_202:\n        /* \"#utility.yul\":6751:6942   */\n      swap3\n      swap2\n      pop\n      pop\n      jump\t// out\n        /* \"#utility.yul\":6948:7066   */\n    tag_122:\n        /* \"#utility.yul\":7035:7059   */\n      tag_205\n        /* \"#utility.yul\":7053:7058   */\n      dup2\n        /* \"#utility.yul\":7035:7059   */\n      tag_104\n      jump\t// in\n    tag_205:\n        /* \"#utility.yul\":7030:7033   */\n      dup3\n        /* \"#utility.yul\":7023:7060   */\n      mstore\n        /* \"#utility.yul\":6948:7066   */\n      pop\n      pop\n      jump\t// out\n        /* \"#utility.yul\":7072:7514   */\n    tag_53:\n        /* \"#utility.yul\":7221:7225   */\n      0x00\n        /* \"#utility.yul\":7259:7261   */\n      0x60\n        /* \"#utility.yul\":7248:7257   */\n      dup3\n        /* \"#utility.yul\":7244:7262   */\n      add\n        /* \"#utility.yul\":7236:7262   */\n      swap1\n      pop\n        /* \"#utility.yul\":7272:7343   */\n      tag_207\n        /* \"#utility.yul\":7340:7341   */\n      0x00\n        /* \"#utility.yul\":7329:7338   */\n      dup4\n        /* \"#utility.yul\":7325:7342   */\n      add\n        /* \"#utility.yul\":7316:7322   */\n      dup7\n        /* \"#utility.yul\":7272:7343   */\n      tag_116\n      jump\t// in\n    tag_207:\n        /* \"#utility.yul\":7353:7425   */\n      tag_208\n        /* \"#utility.yul\":7421:7423   */\n      0x20\n        /* \"#utility.yul\":7410:7419   */\n      dup4\n        /* \"#utility.yul\":7406:7424   */\n      add\n        /* \"#utility.yul\":7397:7403   */\n      dup6\n        /* \"#utility.yul\":7353:7425   */\n      tag_122\n      jump\t// in\n    tag_208:\n        /* \"#utility.yul\":7435:7507   */\n      tag_209\n        /* \"#utility.yul\":7503:7505   */\n      0x40\n        /* \"#utility.yul\":7492:7501   */\n      dup4\n        /* \"#utility.yul\":7488:7506   */\n      add\n        /* \"#utility.yul\":7479:7485   */\n      dup5\n        /* \"#utility.yul\":7435:7507   */\n      tag_122\n      jump\t// in\n    tag_209:\n        /* \"#utility.yul\":7072:7514   */\n      swap5\n      swap4\n      pop\n      pop\n      pop\n      pop\n      jump\t// out\n        /* \"#utility.yul\":7520:7753   */\n    tag_57:\n        /* \"#utility.yul\":7559:7562   */\n      0x00\n        /* \"#utility.yul\":7582:7606   */\n      tag_211\n        /* \"#utility.yul\":7600:7605   */\n      dup3\n        /* \"#utility.yul\":7582:7606   */\n      tag_104\n      jump\t// in\n    tag_211:\n        /* \"#utility.yul\":7573:7606   */\n      swap2\n      pop\n        /* \"#utility.yul\":7628:7694   */\n      0xffffffffffffffffffffffffffffffffffffffffffffffffffffffffffffffff\n        /* \"#utility.yul\":7621:7626   */\n      dup3\n        /* \"#utility.yul\":7618:7695   */\n      sub\n        /* \"#utility.yul\":7615:7718   */\n      tag_212\n      jumpi\n        /* \"#utility.yul\":7698:7716   */\n      tag_213\n      tag_121\n      jump\t// in\n    tag_213:\n        /* \"#utility.yul\":7615:7718   */\n    tag_212:\n        /* \"#utility.yul\":7745:7746   */\n      0x01\n        /* \"#utility.yul\":7738:7743   */\n      dup3\n        /* \"#utility.yul\":7734:7747   */\n      add\n        /* \"#utility.yul\":7727:7747   */\n      swap1\n      pop\n        /* \"#utility.yul\":7520:7753   */\n      swap2\n      swap1\n      pop\n      jump\t// out\n        /* \"#utility.yul\":7759:8091   */\n    tag_59:\n        /* \"#utility.yul\":7880:7884   */\n      0x00\n        /* \"#utility.yul\":7918:7920   */\n      0x40\n        /* \"#utility.yul\":7907:7916   */\n      dup3\n        /* \"#utility.yul\":7903:7921   */\n      add\n        /* \"#utility.yul\":7895:7921   */\n      swap1\n      pop\n        /* \"#utility.yul\":7931:8002   */\n      tag_215\n        /* \"#utility.yul\":7999:8000   */\n      0x00\n        /* \"#utility.yul\":7988:7997   */\n      dup4\n        /* \"#utility.yul\":7984:8001   */\n      add\n        /* \"#utility.yul\":7975:7981   */\n      dup6\n        /* \"#utility.yul\":7931:8002   */\n      tag_122\n      jump\t// in\n    tag_215:\n        /* \"#utility.yul\":8012:8084   */\n      tag_216\n        /* \"#utility.yul\":8080:8082   */\n      0x20\n        /* \"#utility.yul\":8069:8078   */\n      dup4\n        /* \"#utility.yul\":8065:8083   */\n      add\n        /* \"#utility.yul\":8056:8062   */\n      dup5\n        /* \"#utility.yul\":8012:8084   */\n      tag_122\n      jump\t// in\n    tag_216:\n        /* \"#utility.yul\":7759:8091   */\n      swap4\n      swap3\n      pop\n      pop\n      pop\n      jump\t// out\n        /* \"#utility.yul\":8097:8291   */\n    tag_62:\n        /* \"#utility.yul\":8137:8141   */\n      0x00\n        /* \"#utility.yul\":8157:8177   */\n      tag_218\n        /* \"#utility.yul\":8175:8176   */\n      dup3\n        /* \"#utility.yul\":8157:8177   */\n      tag_104\n      jump\t// in\n    tag_218:\n        /* \"#utility.yul\":8152:8177   */\n      swap2\n      pop\n        /* \"#utility.yul\":8191:8211   */\n      tag_219\n        /* \"#utility.yul\":8209:8210   */\n      dup4\n        /* \"#utility.yul\":8191:8211   */\n      tag_104\n      jump\t// in\n    tag_219:\n        /* \"#utility.yul\":8186:8211   */\n      swap3\n      pop\n        /* \"#utility.yul\":8235:8236   */\n      dup3\n        /* \"#utility.yul\":8232:8233   */\n      dup3\n        /* \"#utility.yul\":8228:8237   */\n      sub\n        /* \"#utility.yul\":8220:8237   */\n      swap1\n      pop\n        /* \"#utility.yul\":8259:8260   */\n      dup2\n        /* \"#utility.yul\":8253:8257   */\n      dup2\n        /* \"#utility.yul\":8250:8261   */\n      gt\n        /* \"#utility.yul\":8247:8284   */\n      iszero\n      tag_220\n      jumpi\n        /* \"#utility.yul\":8264:8282   */\n      tag_221\n      tag_121\n      jump\t// in\n    tag_221:\n        /* \"#utility.yul\":8247:8284   */\n    tag_220:\n        /* \"#utility.yul\":8097:8291   */\n      swap3\n      swap2\n      pop\n      pop\n      jump\t// out\n        /* \"#utility.yul\":8297:8444   */\n    tag_123:\n        /* \"#utility.yul\":8398:8409   */\n      0x00\n        /* \"#utility.yul\":8435:8438   */\n      dup2\n        /* \"#utility.yul\":8420:8438   */\n      swap1\n      pop\n        /* \"#utility.yul\":8297:8444   */\n      swap3\n      swap2\n      pop\n      pop\n      jump\t// out\n        /* \"#utility.yul\":8450:8564   */\n    tag_124:\n      pop\n      jump\t// out\n        /* \"#utility.yul\":8570:8968   */\n    tag_125:\n        /* \"#utility.yul\":8729:8732   */\n      0x00\n        /* \"#utility.yul\":8750:8833   */\n      tag_225\n        /* \"#utility.yul\":8831:8832   */\n      0x00\n        /* \"#utility.yul\":8826:8829   */\n      dup4\n        /* \"#utility.yul\":8750:8833   */\n      tag_123\n      jump\t// in\n    tag_225:\n        /* \"#utility.yul\":8743:8833   */\n      swap2\n      pop\n        /* \"#utility.yul\":8842:8935   */\n      tag_226\n        /* \"#utility.yul\":8931:8934   */\n      dup3\n        /* \"#utility.yul\":8842:8935   */\n      tag_124\n      jump\t// in\n    tag_226:\n        /* \"#utility.yul\":8960:8961   */\n      0x00\n        /* \"#utility.yul\":8955:8958   */\n      dup3\n        /* \"#utility.yul\":8951:8962   */\n      add\n        /* \"#utility.yul\":8944:8962   */\n      swap1\n      pop\n        /* \"#utility.yul\":8570:8968   */\n      swap2\n      swap1\n      pop\n      jump\t// out\n        /* \"#utility.yul\":8974:9353   */\n    tag_64:\n        /* \"#utility.yul\":9158:9161   */\n      0x00\n        /* \"#utility.yul\":9180:9327   */\n      tag_228\n        /* \"#utility.yul\":9323:9326   */\n      dup3\n        /* \"#utility.yul\":9180:9327   */\n      tag_125\n      jump\t// in\n    tag_228:\n        /* \"#utility.yul\":9173:9327   */\n      swap2\n      pop\n        /* \"#utility.yul\":9344:9347   */\n      dup2\n        /* \"#utility.yul\":9337:9347   */\n      swap1\n      pop\n        /* \"#utility.yul\":8974:9353   */\n      swap2\n      swap1\n      pop\n      jump\t// out\n        /* \"#utility.yul\":9359:9528   */\n    tag_126:\n        /* \"#utility.yul\":9443:9454   */\n      0x00\n        /* \"#utility.yul\":9477:9483   */\n      dup3\n        /* \"#utility.yul\":9472:9475   */\n      dup3\n        /* \"#utility.yul\":9465:9484   */\n      mstore\n        /* \"#utility.yul\":9517:9521   */\n      0x20\n        /* \"#utility.yul\":9512:9515   */\n      dup3\n        /* \"#utility.yul\":9508:9522   */\n      add\n        /* \"#utility.yul\":9493:9522   */\n      swap1\n      pop\n        /* \"#utility.yul\":9359:9528   */\n      swap3\n      swap2\n      pop\n      pop\n      jump\t// out\n        /* \"#utility.yul\":9534:9697   */\n    tag_127:\n        /* \"#utility.yul\":9674:9689   */\n      0x526566756e64204661696c656400000000000000000000000000000000000000\n        /* \"#utility.yul\":9670:9671   */\n      0x00\n        /* \"#utility.yul\":9662:9668   */\n      dup3\n        /* \"#utility.yul\":9658:9672   */\n      add\n        /* \"#utility.yul\":9651:9690   */\n      mstore\n        /* \"#utility.yul\":9534:9697   */\n      pop\n      jump\t// out\n        /* \"#utility.yul\":9703:10069   */\n    tag_128:\n        /* \"#utility.yul\":9845:9848   */\n      0x00\n        /* \"#utility.yul\":9866:9933   */\n      tag_232\n        /* \"#utility.yul\":9930:9932   */\n      0x0d\n        /* \"#utility.yul\":9925:9928   */\n      dup4\n        /* \"#utility.yul\":9866:9933   */\n      tag_126\n      jump\t// in\n    tag_232:\n        /* \"#utility.yul\":9859:9933   */\n      swap2\n      pop\n        /* \"#utility.yul\":9942:10035   */\n      tag_233\n        /* \"#utility.yul\":10031:10034   */\n      dup3\n        /* \"#utility.yul\":9942:10035   */\n      tag_127\n      jump\t// in\n    tag_233:\n        /* \"#utility.yul\":10060:10062   */\n      0x20\n        /* \"#utility.yul\":10055:10058   */\n      dup3\n        /* \"#utility.yul\":10051:10063   */\n      add\n        /* \"#utility.yul\":10044:10063   */\n      swap1\n      pop\n        /* \"#utility.yul\":9703:10069   */\n      swap2\n      swap1\n      pop\n      jump\t// out\n        /* \"#utility.yul\":10075:10494   */\n    tag_70:\n        /* \"#utility.yul\":10241:10245   */\n      0x00\n        /* \"#utility.yul\":10279:10281   */\n      0x20\n        /* \"#utility.yul\":10268:10277   */\n      dup3\n        /* \"#utility.yul\":10264:10282   */\n      add\n        /* \"#utility.yul\":10256:10282   */\n      swap1\n      pop\n        /* \"#utility.yul\":10328:10337   */\n      dup2\n        /* \"#utility.yul\":10322:10326   */\n      dup2\n        /* \"#utility.yul\":10318:10338   */\n      sub\n        /* \"#utility.yul\":10314:10315   */\n      0x00\n        /* \"#utility.yul\":10303:10312   */\n      dup4\n        /* \"#utility.yul\":10299:10316   */\n      add\n        /* \"#utility.yul\":10292:10339   */\n      mstore\n        /* \"#utility.yul\":10356:10487   */\n      tag_235\n        /* \"#utility.yul\":10482:10486   */\n      dup2\n        /* \"#utility.yul\":10356:10487   */\n      tag_128\n      jump\t// in\n    tag_235:\n        /* \"#utility.yul\":10348:10487   */\n      swap1\n      pop\n        /* \"#utility.yul\":10075:10494   */\n      swap2\n      swap1\n      pop\n      jump\t// out\n    stop\n\n    sub_0: assembly {\n            /* \"src/Campaign.sol\":190:1029  contract Campaign is Ownable {... */\n          mstore(0x40, 0xa0)\n            /* \"src/Campaign.sol\":613:822  constructor(... */\n          callvalue\n          dup1\n          iszero\n          tag_1\n          jumpi\n          revert(0x00, 0x00)\n        tag_1:\n          pop\n          mload(0x40)\n          sub(codesize, bytecodeSize)\n          dup1\n          bytecodeSize\n          dup4\n          codecopy\n          dup2\n          dup2\n          add\n          0x40\n          mstore\n          dup2\n          add\n          swap1\n          tag_2\n          swap2\n          swap1\n          tag_3\n          jump\t// in\n        tag_2:\n            /* \"src/Campaign.sol\":718:726  _creator */\n          dup3\n            /* \"@openzeppelin/contracts/access/Ownable.sol\":1297:1298  0 */\n          0x00\n            /* \"@openzeppelin/contracts/access/Ownable.sol\":1273:1299  initialOwner == address(0) */\n          0xffffffffffffffffffffffffffffffffffffffff\n          and\n            /* \"@openzeppelin/contracts/access/Ownable.sol\":1273:1285  initialOwner */\n          dup2\n            /* \"@openzeppelin/contracts/access/Ownable.sol\":1273:1299  initialOwner == address(0) */\n          0xffffffffffffffffffffffffffffffffffffffff\n          and\n          sub\n            /* \"@openzeppelin/contracts/access/Ownable.sol\":1269:1364  if (initialOwner == address(0)) {... */\n          tag_7\n          jumpi\n            /* \"@openzeppelin/contracts/access/Ownable.sol\":1350:1351  0 */\n          0x00\n            /* \"@openzeppelin/contracts/access/Ownable.sol\":1322:1353  OwnableInvalidOwner(address(0)) */\n          mload(0x40)\n          0x1e4fbdf700000000000000000000000000000000000000000000000000000000\n          dup2\n          mstore\n          0x04\n          add\n          tag_8\n          swap2\n          swap1\n          tag_9\n          jump\t// in\n        tag_8:\n          mload(0x40)\n          dup1\n          swap2\n          sub\n          swap1\n          revert\n            /* \"@openzeppelin/contracts/access/Ownable.sol\":1269:1364  if (initialOwner == address(0)) {... */\n        tag_7:\n            /* \"@openzeppelin/contracts/access/Ownable.sol\":1373:1405  _transferOwnership(initialOwner) */\n          tag_10\n            /* \"@openzeppelin/contracts/access/Ownable.sol\":1392:1404  initialOwner */\n          dup2\n            /* \"@openzeppelin/contracts/access/Ownable.sol\":1373:1391  _transferOwnership */\n          shl(0x20, tag_11)\n            /* \"@openzeppelin/contracts/access/Ownable.sol\":1373:1405  _transferOwnership(initialOwner) */\n          0x20\n          shr\n          jump\t// in\n        tag_10:\n            /* \"@openzeppelin/contracts/access/Ownable.sol\":1225:1412  constructor(address initialOwner) {... */\n          pop\n            /* \"src/Campaign.sol\":746:751  _goal */\n          dup2\n            /* \"src/Campaign.sol\":739:743  goal */\n          0x01\n            /* \"src/Campaign.sol\":739:751  goal = _goal */\n          dup2\n          swap1\n          sstore\n          pop\n            /* \"src/Campaign.sol\":773:781  _deadine */\n          dup1\n            /* \"src/Campaign.sol\":762:770  deadline */\n          0x02\n            /* \"src/Campaign.sol\":762:781  deadline = _deadine */\n          dup2\n          swap1\n          sstore\n          pop\n            /* \"src/Campaign.sol\":804:814  msg.sender */\n          caller\n            /* \"src/Campaign.sol\":792:814  i_factory = msg.sender */\n          0xffffffffffffffffffffffffffffffffffffffff\n          and\n          0x80\n          dup2\n          0xffffffffffffffffffffffffffffffffffffffff\n          and\n          dup2\n          mstore\n          pop\n          pop\n            /* \"src/Campaign.sol\":613:822  constructor(... */\n          pop\n          pop\n          pop\n            /* \"src/Campaign.sol\":190:1029  contract Campaign is Ownable {... */\n          jump(tag_13)\n            /* \"@openzeppelin/contracts/access/Ownable.sol\":2912:3099  function _transferOwnership(address newOwner) internal virtual {... */\n        tag_11:\n            /* \"@openzeppelin/contracts/access/Ownable.sol\":2985:3001  address oldOwner */\n          0x00\n            /* \"@openzeppelin/contracts/access/Ownable.sol\":3004:3010  _owner */\n          0x00\n          0x00\n          swap1\n          sload\n          swap1\n          0x0100\n          exp\n          swap1\n          div\n          0xffffffffffffffffffffffffffffffffffffffff\n          and\n            /* \"@openzeppelin/contracts/access/Ownable.sol\":2985:3010  address oldOwner = _owner */\n          swap1\n          pop\n            /* \"@openzeppelin/contracts/access/Ownable.sol\":3029:3037  newOwner */\n          dup2\n            /* \"@openzeppelin/contracts/access/Ownable.sol\":3020:3026  _owner */\n          0x00\n          0x00\n            /* \"@openzeppelin/contracts/access/Ownable.sol\":3020:3037  _owner = newOwner */\n          0x0100\n          exp\n          dup2\n          sload\n          dup2\n          0xffffffffffffffffffffffffffffffffffffffff\n          mul\n          not\n          and\n          swap1\n          dup4\n          0xffffffffffffffffffffffffffffffffffffffff\n          and\n          mul\n          or\n          swap1\n          sstore\n          pop\n            /* \"@openzeppelin/contracts/access/Ownable.sol\":3083:3091  newOwner */\n          dup2\n            /* \"@openzeppelin/contracts/access/Ownable.sol\":3052:3092  OwnershipTransferred(oldOwner, newOwner) */\n          0xffffffffffffffffffffffffffffffffffffffff\n          and\n            /* \"@openzeppelin/contracts/access/Ownable.sol\":3073:3081  oldOwner */\n          dup2\n            /* \"@openzeppelin/contracts/access/Ownable.sol\":3052:3092  OwnershipTransferred(oldOwner, newOwner) */\n          0xffffffffffffffffffffffffffffffffffffffff\n          and\n          0x8be0079c531659141344cd1fd0a4f28419497f9722a3daafe3b4186f6b6457e0\n          mload(0x40)\n          mload(0x40)\n          dup1\n          swap2\n          sub\n          swap1\n          log3\n            /* \"@openzeppelin/contracts/access/Ownable.sol\":2975:3099  {... */\n          pop\n            /* \"@openzeppelin/contracts/access/Ownable.sol\":2912:3099  function _transferOwnership(address newOwner) internal virtual {... */\n          pop\n          jump\t// out\n            /* \"#utility.yul\":88:205   */\n        tag_16:\n            /* \"#utility.yul\":197:198   */\n          0x00\n            /* \"#utility.yul\":194:195   */\n          0x00\n            /* \"#utility.yul\":187:199   */\n          revert\n            /* \"#utility.yul\":334:460   */\n        tag_18:\n            /* \"#utility.yul\":371:378   */\n          0x00\n            /* \"#utility.yul\":411:453   */\n          0xffffffffffffffffffffffffffffffffffffffff\n            /* \"#utility.yul\":404:409   */\n          dup3\n            /* \"#utility.yul\":400:454   */\n          and\n            /* \"#utility.yul\":389:454   */\n          swap1\n          pop\n            /* \"#utility.yul\":334:460   */\n          swap2\n          swap1\n          pop\n          jump\t// out\n            /* \"#utility.yul\":466:562   */\n        tag_19:\n            /* \"#utility.yul\":503:510   */\n          0x00\n            /* \"#utility.yul\":532:556   */\n          tag_32\n            /* \"#utility.yul\":550:555   */\n          dup3\n            /* \"#utility.yul\":532:556   */\n          tag_18\n          jump\t// in\n        tag_32:\n            /* \"#utility.yul\":521:556   */\n          swap1\n          pop\n            /* \"#utility.yul\":466:562   */\n          swap2\n          swap1\n          pop\n          jump\t// out\n            /* \"#utility.yul\":568:690   */\n        tag_20:\n            /* \"#utility.yul\":641:665   */\n          tag_34\n            /* \"#utility.yul\":659:664   */\n          dup2\n            /* \"#utility.yul\":641:665   */\n          tag_19\n          jump\t// in\n        tag_34:\n            /* \"#utility.yul\":634:639   */\n          dup2\n            /* \"#utility.yul\":631:666   */\n          eq\n            /* \"#utility.yul\":621:684   */\n          tag_35\n          jumpi\n            /* \"#utility.yul\":680:681   */\n          0x00\n            /* \"#utility.yul\":677:678   */\n          0x00\n            /* \"#utility.yul\":670:682   */\n          revert\n            /* \"#utility.yul\":621:684   */\n        tag_35:\n            /* \"#utility.yul\":568:690   */\n          pop\n          jump\t// out\n            /* \"#utility.yul\":696:839   */\n        tag_21:\n            /* \"#utility.yul\":753:758   */\n          0x00\n            /* \"#utility.yul\":784:790   */\n          dup2\n            /* \"#utility.yul\":778:791   */\n          mload\n            /* \"#utility.yul\":769:791   */\n          swap1\n          pop\n            /* \"#utility.yul\":800:833   */\n          tag_37\n            /* \"#utility.yul\":827:832   */\n          dup2\n            /* \"#utility.yul\":800:833   */\n          tag_20\n          jump\t// in\n        tag_37:\n            /* \"#utility.yul\":696:839   */\n          swap3\n          swap2\n          pop\n          pop\n          jump\t// out\n            /* \"#utility.yul\":845:922   */\n        tag_22:\n            /* \"#utility.yul\":882:889   */\n          0x00\n            /* \"#utility.yul\":911:916   */\n          dup2\n            /* \"#utility.yul\":900:916   */\n          swap1\n          pop\n            /* \"#utility.yul\":845:922   */\n          swap2\n          swap1\n          pop\n          jump\t// out\n            /* \"#utility.yul\":928:1050   */\n        tag_23:\n            /* \"#utility.yul\":1001:1025   */\n          tag_40\n            /* \"#utility.yul\":1019:1024   */\n          dup2\n            /* \"#utility.yul\":1001:1025   */\n          tag_22\n          jump\t// in\n        tag_40:\n            /* \"#utility.yul\":994:999   */\n          dup2\n            /* \"#utility.yul\":991:1026   */\n          eq\n            /* \"#utility.yul\":981:1044   */\n          tag_41\n          jumpi\n            /* \"#utility.yul\":1040:1041   */\n          0x00\n            /* \"#utility.yul\":1037:1038   */\n          0x00\n            /* \"#utility.yul\":1030:1042   */\n          revert\n            /* \"#utility.yul\":981:1044   */\n        tag_41:\n            /* \"#utility.yul\":928:1050   */\n          pop\n          jump\t// out\n            /* \"#utility.yul\":1056:1199   */\n        tag_24:\n            /* \"#utility.yul\":1113:1118   */\n          0x00\n            /* \"#utility.yul\":1144:1150   */\n          dup2\n            /* \"#utility.yul\":1138:1151   */\n          mload\n            /* \"#utility.yul\":1129:1151   */\n          swap1\n          pop\n            /* \"#utility.yul\":1160:1193   */\n          tag_43\n            /* \"#utility.yul\":1187:1192   */\n          dup2\n            /* \"#utility.yul\":1160:1193   */\n          tag_23\n          jump\t// in\n        tag_43:\n            /* \"#utility.yul\":1056:1199   */\n          swap3\n          swap2\n          pop\n          pop\n          jump\t// out\n            /* \"#utility.yul\":1205:1868   */\n        tag_3:\n            /* \"#utility.yul\":1293:1299   */\n          0x00\n            /* \"#utility.yul\":1301:1307   */\n          0x00\n            /* \"#utility.yul\":1309:1315   */\n          0x00\n            /* \"#utility.yul\":1358:1360   */\n          0x60\n            /* \"#utility.yul\":1346:1355   */\n          dup5\n            /* \"#utility.yul\":1337:1344   */\n          dup7\n            /* \"#utility.yul\":1333:1356   */\n          sub\n            /* \"#utility.yul\":1329:1361   */\n          slt\n            /* \"#utility.yul\":1326:1445   */\n          iszero\n          tag_45\n          jumpi\n            /* \"#utility.yul\":1364:1443   */\n          tag_46\n          tag_16\n          jump\t// in\n        tag_46:\n            /* \"#utility.yul\":1326:1445   */\n        tag_45:\n            /* \"#utility.yul\":1484:1485   */\n          0x00\n            /* \"#utility.yul\":1509:1573   */\n          tag_47\n            /* \"#utility.yul\":1565:1572   */\n          dup7\n            /* \"#utility.yul\":1556:1562   */\n          dup3\n            /* \"#utility.yul\":1545:1554   */\n          dup8\n            /* \"#utility.yul\":1541:1563   */\n          add\n            /* \"#utility.yul\":1509:1573   */\n          tag_21\n          jump\t// in\n        tag_47:\n            /* \"#utility.yul\":1499:1573   */\n          swap4\n          pop\n            /* \"#utility.yul\":1455:1583   */\n          pop\n            /* \"#utility.yul\":1622:1624   */\n          0x20\n            /* \"#utility.yul\":1648:1712   */\n          tag_48\n            /* \"#utility.yul\":1704:1711   */\n          dup7\n            /* \"#utility.yul\":1695:1701   */\n          dup3\n            /* \"#utility.yul\":1684:1693   */\n          dup8\n            /* \"#utility.yul\":1680:1702   */\n          add\n            /* \"#utility.yul\":1648:1712   */\n          tag_24\n          jump\t// in\n        tag_48:\n            /* \"#utility.yul\":1638:1712   */\n          swap3\n          pop\n            /* \"#utility.yul\":1593:1722   */\n          pop\n            /* \"#utility.yul\":1761:1763   */\n          0x40\n            /* \"#utility.yul\":1787:1851   */\n          tag_49\n            /* \"#utility.yul\":1843:1850   */\n          dup7\n            /* \"#utility.yul\":1834:1840   */\n          dup3\n            /* \"#utility.yul\":1823:1832   */\n          dup8\n            /* \"#utility.yul\":1819:1841   */\n          add\n            /* \"#utility.yul\":1787:1851   */\n          tag_24\n          jump\t// in\n        tag_49:\n            /* \"#utility.yul\":1777:1851   */\n          swap2\n          pop\n            /* \"#utility.yul\":1732:1861   */\n          pop\n            /* \"#utility.yul\":1205:1868   */\n          swap3\n          pop\n          swap3\n          pop\n          swap3\n          jump\t// out\n            /* \"#utility.yul\":1874:1992   */\n        tag_25:\n            /* \"#utility.yul\":1961:1985   */\n          tag_51\n            /* \"#utility.yul\":1979:1984   */\n          dup2\n            /* \"#utility.yul\":1961:1985   */\n          tag_19\n          jump\t// in\n        tag_51:\n            /* \"#utility.yul\":1956:1959   */\n          dup3\n            /* \"#utility.yul\":1949:1986   */\n          mstore\n            /* \"#utility.yul\":1874:1992   */\n          pop\n          pop\n          jump\t// out\n            /* \"#utility.yul\":1998:2220   */\n        tag_9:\n            /* \"#utility.yul\":2091:2095   */\n          0x00\n            /* \"#utility.yul\":2129:2131   */\n          0x20\n            /* \"#utility.yul\":2118:2127   */\n          dup3\n            /* \"#utility.yul\":2114:2132   */\n          add\n            /* \"#utility.yul\":2106:2132   */\n          swap1\n          pop\n            /* \"#utility.yul\":2142:2213   */\n          tag_53\n            /* \"#utility.yul\":2210:2211   */\n          0x00\n            /* \"#utility.yul\":2199:2208   */\n          dup4\n            /* \"#utility.yul\":2195:2212   */\n          add\n            /* \"#utility.yul\":2186:2192   */\n          dup5\n            /* \"#utility.yul\":2142:2213   */\n          tag_25\n          jump\t// in\n        tag_53:\n            /* \"#utility.yul\":1998:2220   */\n          swap3\n          swap2\n          pop\n          pop\n          jump\t// out\n            /* \"src/Campaign.sol\":190:1029  contract Campaign is Ownable {... */\n        tag_13:\n          mload(0x80)\n          codecopy(0x00, dataOffset(sub_0), dataSize(sub_0))\n          0x00\n          assignImmutable(\"0x1a65db4f2ea95c4a38ef67ec9eb02656311df27569f1d2e5f15fb9ffe8498721\")\n          return(0x00, dataSize(sub_0))\n        stop\n\n        sub_0: assembly {\n                /* \"src/Campaign.sol\":190:1029  contract Campaign is Ownable {... */\n              mstore(0x40, 0x80)\n              callvalue\n              dup1\n              iszero\n              tag_1\n              jumpi\n              revert(0x00, 0x00)\n            tag_1:\n              pop\n              jumpi(tag_2, lt(calldatasize, 0x04))\n              shr(0xe0, calldataload(0x00))\n              dup1\n              0x2c78655e\n              eq\n              tag_3\n              jumpi\n              dup1\n              0x715018a6\n              eq\n              tag_4\n              jumpi\n              dup1\n              0x88cc58e4\n              eq\n              tag_5\n              jumpi\n              dup1\n              0x8da5cb5b\n              eq\n              tag_6\n              jumpi\n              dup1\n              0xb77b47a9\n              eq\n              tag_7\n              jumpi\n              dup1\n              0xf2fde38b\n              eq\n              tag_8\n              jumpi\n            tag_2:\n              revert(0x00, 0x00)\n                /* \"src/Campaign.sol\":830:931  function addMilestone() external view onlyOwner returns (address) {... */\n            tag_3:\n              tag_9\n              tag_10\n              jump\t// in\n            tag_9:\n              mload(0x40)\n              tag_11\n              swap2\n              swap1\n              tag_12\n              jump\t// in\n            tag_11:\n              mload(0x40)\n              dup1\n              swap2\n              sub\n              swap1\n              return\n                /* \"@openzeppelin/contracts/access/Ownable.sol\":2293:2394  function renounceOwnership() public virtual onlyOwner {... */\n            tag_4:\n              tag_13\n              tag_14\n              jump\t// in\n            tag_13:\n              stop\n                /* \"src/Campaign.sol\":939:1026  function getFactory() public view returns (address) {... */\n            tag_5:\n              tag_15\n              tag_16\n              jump\t// in\n            tag_15:\n              mload(0x40)\n              tag_17\n              swap2\n              swap1\n              tag_12\n              jump\t// in\n            tag_17:\n              mload(0x40)\n              dup1\n              swap2\n              sub\n              swap1\n              return\n                /* \"@openzeppelin/contracts/access/Ownable.sol\":1638:1723  function owner() public view virtual returns (address) {... */\n            tag_6:\n              tag_18\n              tag_19\n              jump\t// in\n            tag_18:\n              mload(0x40)\n              tag_20\n              swap2\n              swap1\n              tag_12\n              jump\t// in\n            tag_20:\n              mload(0x40)\n              dup1\n              swap2\n              sub\n              swap1\n              return\n                /* \"src/Campaign.sol\":290:324  address public immutable i_factory */\n            tag_7:\n              tag_21\n              tag_22\n              jump\t// in\n            tag_21:\n              mload(0x40)\n              tag_23\n              swap2\n              swap1\n              tag_12\n              jump\t// in\n            tag_23:\n              mload(0x40)\n              dup1\n              swap2\n              sub\n              swap1\n              return\n                /* \"@openzeppelin/contracts/access/Ownable.sol\":2543:2758  function transferOwnership(address newOwner) public virtual onlyOwner {... */\n            tag_8:\n              tag_24\n              0x04\n              dup1\n              calldatasize\n              sub\n              dup2\n              add\n              swap1\n              tag_25\n              swap2\n              swap1\n              tag_26\n              jump\t// in\n            tag_25:\n              tag_27\n              jump\t// in\n            tag_24:\n              stop\n                /* \"src/Campaign.sol\":830:931  function addMilestone() external view onlyOwner returns (address) {... */\n            tag_10:\n                /* \"src/Campaign.sol\":887:894  address */\n              0x00\n                /* \"@openzeppelin/contracts/access/Ownable.sol\":1531:1544  _checkOwner() */\n              tag_29\n                /* \"@openzeppelin/contracts/access/Ownable.sol\":1531:1542  _checkOwner */\n              tag_30\n                /* \"@openzeppelin/contracts/access/Ownable.sol\":1531:1544  _checkOwner() */\n              jump\t// in\n            tag_29:\n                /* \"src/Campaign.sol\":914:923  i_factory */\n              immutable(\"0x1a65db4f2ea95c4a38ef67ec9eb02656311df27569f1d2e5f15fb9ffe8498721\")\n                /* \"src/Campaign.sol\":907:923  return i_factory */\n              swap1\n              pop\n                /* \"src/Campaign.sol\":830:931  function addMilestone() external view onlyOwner returns (address) {... */\n              swap1\n              jump\t// out\n                /* \"@openzeppelin/contracts/access/Ownable.sol\":2293:2394  function renounceOwnership() public virtual onlyOwner {... */\n            tag_14:\n                /* \"@openzeppelin/contracts/access/Ownable.sol\":1531:1544  _checkOwner() */\n              tag_33\n                /* \"@openzeppelin/contracts/access/Ownable.sol\":1531:1542  _checkOwner */\n              tag_30\n                /* \"@openzeppelin/contracts/access/Ownable.sol\":1531:1544  _checkOwner() */\n              jump\t// in\n            tag_33:\n                /* \"@openzeppelin/contracts/access/Ownable.sol\":2357:2387  _transferOwnership(address(0)) */\n              tag_35\n                /* \"@openzeppelin/contracts/access/Ownable.sol\":2384:2385  0 */\n              0x00\n                /* \"@openzeppelin/contracts/access/Ownable.sol\":2357:2375  _transferOwnership */\n              tag_36\n                /* \"@openzeppelin/contracts/access/Ownable.sol\":2357:2387  _transferOwnership(address(0)) */\n              jump\t// in\n            tag_35:\n                /* \"@openzeppelin/contracts/access/Ownable.sol\":2293:2394  function renounceOwnership() public virtual onlyOwner {... */\n              jump\t// out\n                /* \"src/Campaign.sol\":939:1026  function getFactory() public view returns (address) {... */\n            tag_16:\n                /* \"src/Campaign.sol\":982:989  address */\n              0x00\n                /* \"src/Campaign.sol\":1009:1018  i_factory */\n              immutable(\"0x1a65db4f2ea95c4a38ef67ec9eb02656311df27569f1d2e5f15fb9ffe8498721\")\n                /* \"src/Campaign.sol\":1002:1018  return i_factory */\n              swap1\n              pop\n                /* \"src/Campaign.sol\":939:1026  function getFactory() public view returns (address) {... */\n              swap1\n              jump\t// out\n                /* \"@openzeppelin/contracts/access/Ownable.sol\":1638:1723  function owner() public view virtual returns (address) {... */\n            tag_19:\n                /* \"@openzeppelin/contracts/access/Ownable.sol\":1684:1691  address */\n              0x00\n                /* \"@openzeppelin/contracts/access/Ownable.sol\":1710:1716  _owner */\n              0x00\n              0x00\n              swap1\n              sload\n              swap1\n              0x0100\n              exp\n              swap1\n              div\n              0xffffffffffffffffffffffffffffffffffffffff\n              and\n                /* \"@openzeppelin/contracts/access/Ownable.sol\":1703:1716  return _owner */\n              swap1\n              pop\n                /* \"@openzeppelin/contracts/access/Ownable.sol\":1638:1723  function owner() public view virtual returns (address) {... */\n              swap1\n              jump\t// out\n                /* \"src/Campaign.sol\":290:324  address public immutable i_factory */\n            tag_22:\n              immutable(\"0x1a65db4f2ea95c4a38ef67ec9eb02656311df27569f1d2e5f15fb9ffe8498721\")\n              dup2\n              jump\t// out\n                /* \"@openzeppelin/contracts/access/Ownable.sol\":2543:2758  function transferOwnership(address newOwner) public virtual onlyOwner {... */\n            tag_27:\n                /* \"@openzeppelin/contracts/access/Ownable.sol\":1531:1544  _checkOwner() */\n              tag_40\n                /* \"@openzeppelin/contracts/access/Ownable.sol\":1531:1542  _checkOwner */\n              tag_30\n                /* \"@openzeppelin/contracts/access/Ownable.sol\":1531:1544  _checkOwner() */\n              jump\t// in\n            tag_40:\n                /* \"@openzeppelin/contracts/access/Ownable.sol\":2647:2648  0 */\n              0x00\n                /* \"@openzeppelin/contracts/access/Ownable.sol\":2627:2649  newOwner == address(0) */\n              0xffffffffffffffffffffffffffffffffffffffff\n              and\n                /* \"@openzeppelin/contracts/access/Ownable.sol\":2627:2635  newOwner */\n              dup2\n                /* \"@openzeppelin/contracts/access/Ownable.sol\":2627:2649  newOwner == address(0) */\n              0xffffffffffffffffffffffffffffffffffffffff\n              and\n              sub\n                /* \"@openzeppelin/contracts/access/Ownable.sol\":2623:2714  if (newOwner == address(0)) {... */\n              tag_42\n              jumpi\n                /* \"@openzeppelin/contracts/access/Ownable.sol\":2700:2701  0 */\n              0x00\n                /* \"@openzeppelin/contracts/access/Ownable.sol\":2672:2703  OwnableInvalidOwner(address(0)) */\n              mload(0x40)\n              0x1e4fbdf700000000000000000000000000000000000000000000000000000000\n              dup2\n              mstore\n              0x04\n              add\n              tag_43\n              swap2\n              swap1\n              tag_12\n              jump\t// in\n            tag_43:\n              mload(0x40)\n              dup1\n              swap2\n              sub\n              swap1\n              revert\n                /* \"@openzeppelin/contracts/access/Ownable.sol\":2623:2714  if (newOwner == address(0)) {... */\n            tag_42:\n                /* \"@openzeppelin/contracts/access/Ownable.sol\":2723:2751  _transferOwnership(newOwner) */\n              tag_44\n                /* \"@openzeppelin/contracts/access/Ownable.sol\":2742:2750  newOwner */\n              dup2\n                /* \"@openzeppelin/contracts/access/Ownable.sol\":2723:2741  _transferOwnership */\n              tag_36\n                /* \"@openzeppelin/contracts/access/Ownable.sol\":2723:2751  _transferOwnership(newOwner) */\n              jump\t// in\n            tag_44:\n                /* \"@openzeppelin/contracts/access/Ownable.sol\":2543:2758  function transferOwnership(address newOwner) public virtual onlyOwner {... */\n              pop\n              jump\t// out\n                /* \"@openzeppelin/contracts/access/Ownable.sol\":1796:1958  function _checkOwner() internal view virtual {... */\n            tag_30:\n                /* \"@openzeppelin/contracts/access/Ownable.sol\":1866:1878  _msgSender() */\n              tag_46\n                /* \"@openzeppelin/contracts/access/Ownable.sol\":1866:1876  _msgSender */\n              tag_47\n                /* \"@openzeppelin/contracts/access/Ownable.sol\":1866:1878  _msgSender() */\n              jump\t// in\n            tag_46:\n                /* \"@openzeppelin/contracts/access/Ownable.sol\":1855:1878  owner() != _msgSender() */\n              0xffffffffffffffffffffffffffffffffffffffff\n              and\n                /* \"@openzeppelin/contracts/access/Ownable.sol\":1855:1862  owner() */\n              tag_48\n                /* \"@openzeppelin/contracts/access/Ownable.sol\":1855:1860  owner */\n              tag_19\n                /* \"@openzeppelin/contracts/access/Ownable.sol\":1855:1862  owner() */\n              jump\t// in\n            tag_48:\n                /* \"@openzeppelin/contracts/access/Ownable.sol\":1855:1878  owner() != _msgSender() */\n              0xffffffffffffffffffffffffffffffffffffffff\n              and\n              eq\n                /* \"@openzeppelin/contracts/access/Ownable.sol\":1851:1952  if (owner() != _msgSender()) {... */\n              tag_49\n              jumpi\n                /* \"@openzeppelin/contracts/access/Ownable.sol\":1928:1940  _msgSender() */\n              tag_50\n                /* \"@openzeppelin/contracts/access/Ownable.sol\":1928:1938  _msgSender */\n              tag_47\n                /* \"@openzeppelin/contracts/access/Ownable.sol\":1928:1940  _msgSender() */\n              jump\t// in\n            tag_50:\n                /* \"@openzeppelin/contracts/access/Ownable.sol\":1901:1941  OwnableUnauthorizedAccount(_msgSender()) */\n              mload(0x40)\n              0x118cdaa700000000000000000000000000000000000000000000000000000000\n              dup2\n              mstore\n              0x04\n              add\n              tag_51\n              swap2\n              swap1\n              tag_12\n              jump\t// in\n            tag_51:\n              mload(0x40)\n              dup1\n              swap2\n              sub\n              swap1\n              revert\n                /* \"@openzeppelin/contracts/access/Ownable.sol\":1851:1952  if (owner() != _msgSender()) {... */\n            tag_49:\n                /* \"@openzeppelin/contracts/access/Ownable.sol\":1796:1958  function _checkOwner() internal view virtual {... */\n              jump\t// out\n                /* \"@openzeppelin/contracts/access/Ownable.sol\":2912:3099  function _transferOwnership(address newOwner) internal virtual {... */\n            tag_36:\n                /* \"@openzeppelin/contracts/access/Ownable.sol\":2985:3001  address oldOwner */\n              0x00\n                /* \"@openzeppelin/contracts/access/Ownable.sol\":3004:3010  _owner */\n              0x00\n              0x00\n              swap1\n              sload\n              swap1\n              0x0100\n              exp\n              swap1\n              div\n              0xffffffffffffffffffffffffffffffffffffffff\n              and\n                /* \"@openzeppelin/contracts/access/Ownable.sol\":2985:3010  address oldOwner = _owner */\n              swap1\n              pop\n                /* \"@openzeppelin/contracts/access/Ownable.sol\":3029:3037  newOwner */\n              dup2\n                /* \"@openzeppelin/contracts/access/Ownable.sol\":3020:3026  _owner */\n              0x00\n              0x00\n                /* \"@openzeppelin/contracts/access/Ownable.sol\":3020:3037  _owner = newOwner */\n              0x0100\n              exp\n              dup2\n              sload\n              dup2\n              0xffffffffffffffffffffffffffffffffffffffff\n              mul\n              not\n              and\n              swap1\n              dup4\n              0xffffffffffffffffffffffffffffffffffffffff\n              and\n              mul\n              or\n              swap1\n              sstore\n              pop\n                /* \"@openzeppelin/contracts/access/Ownable.sol\":3083:3091  newOwner */\n              dup2\n                /* \"@openzeppelin/contracts/access/Ownable.sol\":3052:3092  OwnershipTransferred(oldOwner, newOwner) */\n              0xffffffffffffffffffffffffffffffffffffffff\n              and\n                /* \"@openzeppelin/contracts/access/Ownable.sol\":3073:3081  oldOwner */\n              dup2\n                /* \"@openzeppelin/contracts/access/Ownable.sol\":3052:3092  OwnershipTransferred(oldOwner, newOwner) */\n              0xffffffffffffffffffffffffffffffffffffffff\n              and\n              0x8be0079c531659141344cd1fd0a4f28419497f9722a3daafe3b4186f6b6457e0\n              mload(0x40)\n              mload(0x40)\n              dup1\n              swap2\n              sub\n              swap1\n              log3\n                /* \"@openzeppelin/contracts/access/Ownable.sol\":2975:3099  {... */\n              pop\n                /* \"@openzeppelin/contracts/access/Ownable.sol\":2912:3099  function _transferOwnership(address newOwner) internal virtual {... */\n              pop\n              jump\t// out\n                /* \"@openzeppelin/contracts/utils/Context.sol\":656:752  function _msgSender() internal view virtual returns (address) {... */\n            tag_47:\n                /* \"@openzeppelin/contracts/utils/Context.sol\":709:716  address */\n              0x00\n                /* \"@openzeppelin/contracts/utils/Context.sol\":735:745  msg.sender */\n              caller\n                /* \"@openzeppelin/contracts/utils/Context.sol\":728:745  return msg.sender */\n              swap1\n              pop\n                /* \"@openzeppelin/contracts/utils/Context.sol\":656:752  function _msgSender() internal view virtual returns (address) {... */\n              swap1\n              jump\t// out\n                /* \"#utility.yul\":7:133   */\n            tag_54:\n                /* \"#utility.yul\":44:51   */\n              0x00\n                /* \"#utility.yul\":84:126   */\n              0xffffffffffffffffffffffffffffffffffffffff\n                /* \"#utility.yul\":77:82   */\n              dup3\n                /* \"#utility.yul\":73:127   */\n              and\n                /* \"#utility.yul\":62:127   */\n              swap1\n              pop\n                /* \"#utility.yul\":7:133   */\n              swap2\n              swap1\n              pop\n              jump\t// out\n                /* \"#utility.yul\":139:235   */\n            tag_55:\n                /* \"#utility.yul\":176:183   */\n              0x00\n                /* \"#utility.yul\":205:229   */\n              tag_65\n                /* \"#utility.yul\":223:228   */\n              dup3\n                /* \"#utility.yul\":205:229   */\n              tag_54\n              jump\t// in\n            tag_65:\n                /* \"#utility.yul\":194:229   */\n              swap1\n              pop\n                /* \"#utility.yul\":139:235   */\n              swap2\n              swap1\n              pop\n              jump\t// out\n                /* \"#utility.yul\":241:359   */\n            tag_56:\n                /* \"#utility.yul\":328:352   */\n              tag_67\n                /* \"#utility.yul\":346:351   */\n              dup2\n                /* \"#utility.yul\":328:352   */\n              tag_55\n              jump\t// in\n            tag_67:\n                /* \"#utility.yul\":323:326   */\n              dup3\n                /* \"#utility.yul\":316:353   */\n              mstore\n                /* \"#utility.yul\":241:359   */\n              pop\n              pop\n              jump\t// out\n                /* \"#utility.yul\":365:587   */\n            tag_12:\n                /* \"#utility.yul\":458:462   */\n              0x00\n                /* \"#utility.yul\":496:498   */\n              0x20\n                /* \"#utility.yul\":485:494   */\n              dup3\n                /* \"#utility.yul\":481:499   */\n              add\n                /* \"#utility.yul\":473:499   */\n              swap1\n              pop\n                /* \"#utility.yul\":509:580   */\n              tag_69\n                /* \"#utility.yul\":577:578   */\n              0x00\n                /* \"#utility.yul\":566:575   */\n              dup4\n                /* \"#utility.yul\":562:579   */\n              add\n                /* \"#utility.yul\":553:559   */\n              dup5\n                /* \"#utility.yul\":509:580   */\n              tag_56\n              jump\t// in\n            tag_69:\n                /* \"#utility.yul\":365:587   */\n              swap3\n              swap2\n              pop\n              pop\n              jump\t// out\n                /* \"#utility.yul\":674:791   */\n            tag_58:\n                /* \"#utility.yul\":783:784   */\n              0x00\n                /* \"#utility.yul\":780:781   */\n              0x00\n                /* \"#utility.yul\":773:785   */\n              revert\n                /* \"#utility.yul\":920:1042   */\n            tag_60:\n                /* \"#utility.yul\":993:1017   */\n              tag_74\n                /* \"#utility.yul\":1011:1016   */\n              dup2\n                /* \"#utility.yul\":993:1017   */\n              tag_55\n              jump\t// in\n            tag_74:\n                /* \"#utility.yul\":986:991   */\n              dup2\n                /* \"#utility.yul\":983:1018   */\n              eq\n                /* \"#utility.yul\":973:1036   */\n              tag_75\n              jumpi\n                /* \"#utility.yul\":1032:1033   */\n              0x00\n                /* \"#utility.yul\":1029:1030   */\n              0x00\n                /* \"#utility.yul\":1022:1034   */\n              revert\n                /* \"#utility.yul\":973:1036   */\n            tag_75:\n                /* \"#utility.yul\":920:1042   */\n              pop\n              jump\t// out\n                /* \"#utility.yul\":1048:1187   */\n            tag_61:\n                /* \"#utility.yul\":1094:1099   */\n              0x00\n                /* \"#utility.yul\":1132:1138   */\n              dup2\n                /* \"#utility.yul\":1119:1139   */\n              calldataload\n                /* \"#utility.yul\":1110:1139   */\n              swap1\n              pop\n                /* \"#utility.yul\":1148:1181   */\n              tag_77\n                /* \"#utility.yul\":1175:1180   */\n              dup2\n                /* \"#utility.yul\":1148:1181   */\n              tag_60\n              jump\t// in\n            tag_77:\n                /* \"#utility.yul\":1048:1187   */\n              swap3\n              swap2\n              pop\n              pop\n              jump\t// out\n                /* \"#utility.yul\":1193:1522   */\n            tag_26:\n                /* \"#utility.yul\":1252:1258   */\n              0x00\n                /* \"#utility.yul\":1301:1303   */\n              0x20\n                /* \"#utility.yul\":1289:1298   */\n              dup3\n                /* \"#utility.yul\":1280:1287   */\n              dup5\n                /* \"#utility.yul\":1276:1299   */\n              sub\n                /* \"#utility.yul\":1272:1304   */\n              slt\n                /* \"#utility.yul\":1269:1388   */\n              iszero\n              tag_79\n              jumpi\n                /* \"#utility.yul\":1307:1386   */\n              tag_80\n              tag_58\n              jump\t// in\n            tag_80:\n                /* \"#utility.yul\":1269:1388   */\n            tag_79:\n                /* \"#utility.yul\":1427:1428   */\n              0x00\n                /* \"#utility.yul\":1452:1505   */\n              tag_81\n                /* \"#utility.yul\":1497:1504   */\n              dup5\n                /* \"#utility.yul\":1488:1494   */\n              dup3\n                /* \"#utility.yul\":1477:1486   */\n              dup6\n                /* \"#utility.yul\":1473:1495   */\n              add\n                /* \"#utility.yul\":1452:1505   */\n              tag_61\n              jump\t// in\n            tag_81:\n                /* \"#utility.yul\":1442:1505   */\n              swap2\n              pop\n                /* \"#utility.yul\":1398:1515   */\n              pop\n                /* \"#utility.yul\":1193:1522   */\n              swap3\n              swap2\n              pop\n              pop\n              jump\t// out\n\n            auxdata: 0xa26469706673582212207ac909b110551e04db42861d8501510844c7fdd146a43f3a2eabfe57534d3ec264736f6c634300081e0033\n        }\n    }\n\n    auxdata: 0xa26469706673582212206fa2896b1b0d0a580d7d2f4946e7adc23cf33204645ab39d194c23f5d882917864736f6c634300081e0033\n}\n",
				"bytecode": {
					"linkReferences": {},
					"object": "608060405234801561000f575f5ffd5b50335f73ffffffffffffffffffffffffffffffffffffffff168173ffffffffffffffffffffffffffffffffffffffff1603610081575f6040517f1e4fbdf70000000000000000000000000000000000000000000000000000000081526004016100789190610196565b60405180910390fd5b6100908161009660201b60201c565b506101af565b5f5f5f9054906101000a900473ffffffffffffffffffffffffffffffffffffffff169050815f5f6101000a81548173ffffffffffffffffffffffffffffffffffffffff021916908373ffffffffffffffffffffffffffffffffffffffff1602179055508173ffffffffffffffffffffffffffffffffffffffff168173ffffffffffffffffffffffffffffffffffffffff167f8be0079c531659141344cd1fd0a4f28419497f9722a3daafe3b4186f6b6457e060405160405180910390a35050565b5f73ffffffffffffffffffffffffffffffffffffffff82169050919050565b5f61018082610157565b9050919050565b61019081610176565b82525050565b5f6020820190506101a95f830184610187565b92915050565b611668806101bc5f395ff3fe608060405260043610610054575f3560e01c80632250226814610058578063715018a61461007457806386cdf6041461008a5780638da5cb5b146100b4578063e38e2b82146100de578063f2fde38b1461011a575b5f5ffd5b610072600480360381019061006d9190610a2f565b610142565b005b34801561007f575f5ffd5b506100886105ff565b005b348015610095575f5ffd5b5061009e610612565b6040516100ab9190610b54565b60405180910390f35b3480156100bf575f5ffd5b506100c861069d565b6040516100d59190610b83565b60405180910390f35b3480156100e9575f5ffd5b5061010460048036038101906100ff9190610b9c565b6106c4565b6040516101119190610c29565b60405180910390f35b348015610125575f5ffd5b50610140600480360381019061013b9190610c6c565b6107ac565b005b5f62015180826101529190610cc4565b90505f60015490505f8403610193576040517fd2ae31de00000000000000000000000000000000000000000000000000000000815260040160405180910390fd5b662386f26fc100008410156101d4576040517ffdfbe1b200000000000000000000000000000000000000000000000000000000815260040160405180910390fd5b5f820361020d576040517f7ac98a3e00000000000000000000000000000000000000000000000000000000815260040160405180910390fd5b620151808211610249576040517fc49f871b00000000000000000000000000000000000000000000000000000000815260040160405180910390fd5b6301e133808210610286576040517f960056eb00000000000000000000000000000000000000000000000000000000815260040160405180910390fd5b662386f26fc1000034116102c6576040517fe3005d3400000000000000000000000000000000000000000000000000000000815260040160405180910390fd5b5f6102d085610830565b90505f338285426102e19190610d05565b6040516102ed9061099b565b6102f993929190610d47565b604051809103905ff080158015610312573d5f5f3e3d5ffd5b509050600281908060018154018082558091505060019003905f5260205f20015f9091909190916101000a81548173ffffffffffffffffffffffffffffffffffffffff021916908373ffffffffffffffffffffffffffffffffffffffff16021790555060405180608001604052808273ffffffffffffffffffffffffffffffffffffffff1681526020013373ffffffffffffffffffffffffffffffffffffffff1681526020018381526020014281525060035f8581526020019081526020015f205f820151815f015f6101000a81548173ffffffffffffffffffffffffffffffffffffffff021916908373ffffffffffffffffffffffffffffffffffffffff1602179055506020820151816001015f6101000a81548173ffffffffffffffffffffffffffffffffffffffff021916908373ffffffffffffffffffffffffffffffffffffffff1602179055506040820151816002015560608201518160030155905050600160045f8373ffffffffffffffffffffffffffffffffffffffff1673ffffffffffffffffffffffffffffffffffffffff1681526020019081526020015f205f6101000a81548160ff02191690831515021790555082806104d490610d7c565b9350503373ffffffffffffffffffffffffffffffffffffffff167f681f945f90ca3793b37315ed6a012353c82c1b37ca023ef835c746461359f552348560405161051f929190610dc3565b60405180910390a2662386f26fc100003411156105f7575f662386f26fc100003461054a9190610dea565b90505f3373ffffffffffffffffffffffffffffffffffffffff168260405161057190610e4a565b5f6040518083038185875af1925050503d805f81146105ab576040519150601f19603f3d011682016040523d82523d5f602084013e6105b0565b606091505b50509050806105f4576040517f08c379a00000000000000000000000000000000000000000000000000000000081526004016105eb90610eb8565b60405180910390fd5b50505b505050505050565b61060761084c565b6106105f6108d3565b565b6060600280548060200260200160405190810160405280929190818152602001828054801561069357602002820191905f5260205f20905b815f9054906101000a900473ffffffffffffffffffffffffffffffffffffffff1673ffffffffffffffffffffffffffffffffffffffff168152602001906001019080831161064a575b5050505050905090565b5f5f5f9054906101000a900473ffffffffffffffffffffffffffffffffffffffff16905090565b6106cc6109a8565b60035f8381526020019081526020015f206040518060800160405290815f82015f9054906101000a900473ffffffffffffffffffffffffffffffffffffffff1673ffffffffffffffffffffffffffffffffffffffff1673ffffffffffffffffffffffffffffffffffffffff168152602001600182015f9054906101000a900473ffffffffffffffffffffffffffffffffffffffff1673ffffffffffffffffffffffffffffffffffffffff1673ffffffffffffffffffffffffffffffffffffffff168152602001600282015481526020016003820154815250509050919050565b6107b461084c565b5f73ffffffffffffffffffffffffffffffffffffffff168173ffffffffffffffffffffffffffffffffffffffff1603610824575f6040517f1e4fbdf700000000000000000000000000000000000000000000000000000000815260040161081b9190610b83565b60405180910390fd5b61082d816108d3565b50565b5f670de0b6b3a7640000826108459190610cc4565b9050919050565b610854610994565b73ffffffffffffffffffffffffffffffffffffffff1661087261069d565b73ffffffffffffffffffffffffffffffffffffffff16146108d157610895610994565b6040517f118cdaa70000000000000000000000000000000000000000000000000000000081526004016108c89190610b83565b60405180910390fd5b565b5f5f5f9054906101000a900473ffffffffffffffffffffffffffffffffffffffff169050815f5f6101000a81548173ffffffffffffffffffffffffffffffffffffffff021916908373ffffffffffffffffffffffffffffffffffffffff1602179055508173ffffffffffffffffffffffffffffffffffffffff168173ffffffffffffffffffffffffffffffffffffffff167f8be0079c531659141344cd1fd0a4f28419497f9722a3daafe3b4186f6b6457e060405160405180910390a35050565b5f33905090565b61075c80610ed783390190565b60405180608001604052805f73ffffffffffffffffffffffffffffffffffffffff1681526020015f73ffffffffffffffffffffffffffffffffffffffff1681526020015f81526020015f81525090565b5f5ffd5b5f819050919050565b610a0e816109fc565b8114610a18575f5ffd5b50565b5f81359050610a2981610a05565b92915050565b5f5f60408385031215610a4557610a446109f8565b5b5f610a5285828601610a1b565b9250506020610a6385828601610a1b565b9150509250929050565b5f81519050919050565b5f82825260208201905092915050565b5f819050602082019050919050565b5f73ffffffffffffffffffffffffffffffffffffffff82169050919050565b5f610abf82610a96565b9050919050565b610acf81610ab5565b82525050565b5f610ae08383610ac6565b60208301905092915050565b5f602082019050919050565b5f610b0282610a6d565b610b0c8185610a77565b9350610b1783610a87565b805f5b83811015610b47578151610b2e8882610ad5565b9750610b3983610aec565b925050600181019050610b1a565b5085935050505092915050565b5f6020820190508181035f830152610b6c8184610af8565b905092915050565b610b7d81610ab5565b82525050565b5f602082019050610b965f830184610b74565b92915050565b5f60208284031215610bb157610bb06109f8565b5b5f610bbe84828501610a1b565b91505092915050565b610bd0816109fc565b82525050565b608082015f820151610bea5f850182610ac6565b506020820151610bfd6020850182610ac6565b506040820151610c106040850182610bc7565b506060820151610c236060850182610bc7565b50505050565b5f608082019050610c3c5f830184610bd6565b92915050565b610c4b81610ab5565b8114610c55575f5ffd5b50565b5f81359050610c6681610c42565b92915050565b5f60208284031215610c8157610c806109f8565b5b5f610c8e84828501610c58565b91505092915050565b7f4e487b71000000000000000000000000000000000000000000000000000000005f52601160045260245ffd5b5f610cce826109fc565b9150610cd9836109fc565b9250828202610ce7816109fc565b91508282048414831517610cfe57610cfd610c97565b5b5092915050565b5f610d0f826109fc565b9150610d1a836109fc565b9250828201905080821115610d3257610d31610c97565b5b92915050565b610d41816109fc565b82525050565b5f606082019050610d5a5f830186610b74565b610d676020830185610d38565b610d746040830184610d38565b949350505050565b5f610d86826109fc565b91507fffffffffffffffffffffffffffffffffffffffffffffffffffffffffffffffff8203610db857610db7610c97565b5b600182019050919050565b5f604082019050610dd65f830185610d38565b610de36020830184610d38565b9392505050565b5f610df4826109fc565b9150610dff836109fc565b9250828203905081811115610e1757610e16610c97565b5b92915050565b5f81905092915050565b50565b5f610e355f83610e1d565b9150610e4082610e27565b5f82019050919050565b5f610e5482610e2a565b9150819050919050565b5f82825260208201905092915050565b7f526566756e64204661696c6564000000000000000000000000000000000000005f82015250565b5f610ea2600d83610e5e565b9150610ead82610e6e565b602082019050919050565b5f6020820190508181035f830152610ecf81610e96565b905091905056fe60a060405234801561000f575f5ffd5b5060405161075c38038061075c8339818101604052810190610031919061024e565b825f73ffffffffffffffffffffffffffffffffffffffff168173ffffffffffffffffffffffffffffffffffffffff16036100a2575f6040517f1e4fbdf700000000000000000000000000000000000000000000000000000000815260040161009991906102ad565b60405180910390fd5b6100b1816100fc60201b60201c565b5081600181905550806002819055503373ffffffffffffffffffffffffffffffffffffffff1660808173ffffffffffffffffffffffffffffffffffffffff16815250505050506102c6565b5f5f5f9054906101000a900473ffffffffffffffffffffffffffffffffffffffff169050815f5f6101000a81548173ffffffffffffffffffffffffffffffffffffffff021916908373ffffffffffffffffffffffffffffffffffffffff1602179055508173ffffffffffffffffffffffffffffffffffffffff168173ffffffffffffffffffffffffffffffffffffffff167f8be0079c531659141344cd1fd0a4f28419497f9722a3daafe3b4186f6b6457e060405160405180910390a35050565b5f5ffd5b5f73ffffffffffffffffffffffffffffffffffffffff82169050919050565b5f6101ea826101c1565b9050919050565b6101fa816101e0565b8114610204575f5ffd5b50565b5f81519050610215816101f1565b92915050565b5f819050919050565b61022d8161021b565b8114610237575f5ffd5b50565b5f8151905061024881610224565b92915050565b5f5f5f60608486031215610265576102646101bd565b5b5f61027286828701610207565b93505060206102838682870161023a565b92505060406102948682870161023a565b9150509250925092565b6102a7816101e0565b82525050565b5f6020820190506102c05f83018461029e565b92915050565b6080516104706102ec5f395f818161010d01528181610147015261019401526104705ff3fe608060405234801561000f575f5ffd5b5060043610610060575f3560e01c80632c78655e14610064578063715018a61461008257806388cc58e41461008c5780638da5cb5b146100aa578063b77b47a9146100c8578063f2fde38b146100e6575b5f5ffd5b61006c610102565b60405161007991906103c8565b60405180910390f35b61008a610131565b005b610094610144565b6040516100a191906103c8565b60405180910390f35b6100b261016b565b6040516100bf91906103c8565b60405180910390f35b6100d0610192565b6040516100dd91906103c8565b60405180910390f35b61010060048036038101906100fb919061040f565b6101b6565b005b5f61010b61023a565b7f0000000000000000000000000000000000000000000000000000000000000000905090565b61013961023a565b6101425f6102c1565b565b5f7f0000000000000000000000000000000000000000000000000000000000000000905090565b5f5f5f9054906101000a900473ffffffffffffffffffffffffffffffffffffffff16905090565b7f000000000000000000000000000000000000000000000000000000000000000081565b6101be61023a565b5f73ffffffffffffffffffffffffffffffffffffffff168173ffffffffffffffffffffffffffffffffffffffff160361022e575f6040517f1e4fbdf700000000000000000000000000000000000000000000000000000000815260040161022591906103c8565b60405180910390fd5b610237816102c1565b50565b610242610382565b73ffffffffffffffffffffffffffffffffffffffff1661026061016b565b73ffffffffffffffffffffffffffffffffffffffff16146102bf57610283610382565b6040517f118cdaa70000000000000000000000000000000000000000000000000000000081526004016102b691906103c8565b60405180910390fd5b565b5f5f5f9054906101000a900473ffffffffffffffffffffffffffffffffffffffff169050815f5f6101000a81548173ffffffffffffffffffffffffffffffffffffffff021916908373ffffffffffffffffffffffffffffffffffffffff1602179055508173ffffffffffffffffffffffffffffffffffffffff168173ffffffffffffffffffffffffffffffffffffffff167f8be0079c531659141344cd1fd0a4f28419497f9722a3daafe3b4186f6b6457e060405160405180910390a35050565b5f33905090565b5f73ffffffffffffffffffffffffffffffffffffffff82169050919050565b5f6103b282610389565b9050919050565b6103c2816103a8565b82525050565b5f6020820190506103db5f8301846103b9565b92915050565b5f5ffd5b6103ee816103a8565b81146103f8575f5ffd5b50565b5f81359050610409816103e5565b92915050565b5f60208284031215610424576104236103e1565b5b5f610431848285016103fb565b9150509291505056fea26469706673582212207ac909b110551e04db42861d8501510844c7fdd146a43f3a2eabfe57534d3ec264736f6c634300081e0033a26469706673582212206fa2896b1b0d0a580d7d2f4946e7adc23cf33204645ab39d194c23f5d882917864736f6c634300081e0033",
					"opcodes": "PUSH1 0x80 PUSH1 0x40 MSTORE CALLVALUE DUP1 ISZERO PUSH2 0xF JUMPI PUSH0 PUSH0 REVERT JUMPDEST POP CALLER PUSH0 PUSH20 0xFFFFFFFFFFFFFFFFFFFFFFFFFFFFFFFFFFFFFFFF AND DUP2 PUSH20 0xFFFFFFFFFFFFFFFFFFFFFFFFFFFFFFFFFFFFFFFF AND SUB PUSH2 0x81 JUMPI PUSH0 PUSH1 0x40 MLOAD PUSH32 0x1E4FBDF700000000000000000000000000000000000000000000000000000000 DUP2 MSTORE PUSH1 0x4 ADD PUSH2 0x78 SWAP2 SWAP1 PUSH2 0x196 JUMP JUMPDEST PUSH1 0x40 MLOAD DUP1 SWAP2 SUB SWAP1 REVERT JUMPDEST PUSH2 0x90 DUP2 PUSH2 0x96 PUSH1 0x20 SHL PUSH1 0x20 SHR JUMP JUMPDEST POP PUSH2 0x1AF JUMP JUMPDEST PUSH0 PUSH0 PUSH0 SWAP1 SLOAD SWAP1 PUSH2 0x100 EXP SWAP1 DIV PUSH20 0xFFFFFFFFFFFFFFFFFFFFFFFFFFFFFFFFFFFFFFFF AND SWAP1 POP DUP2 PUSH0 PUSH0 PUSH2 0x100 EXP DUP2 SLOAD DUP2 PUSH20 0xFFFFFFFFFFFFFFFFFFFFFFFFFFFFFFFFFFFFFFFF MUL NOT AND SWAP1 DUP4 PUSH20 0xFFFFFFFFFFFFFFFFFFFFFFFFFFFFFFFFFFFFFFFF AND MUL OR SWAP1 SSTORE POP DUP2 PUSH20 0xFFFFFFFFFFFFFFFFFFFFFFFFFFFFFFFFFFFFFFFF AND DUP2 PUSH20 0xFFFFFFFFFFFFFFFFFFFFFFFFFFFFFFFFFFFFFFFF AND PUSH32 0x8BE0079C531659141344CD1FD0A4F28419497F9722A3DAAFE3B4186F6B6457E0 PUSH1 0x40 MLOAD PUSH1 0x40 MLOAD DUP1 SWAP2 SUB SWAP1 LOG3 POP POP JUMP JUMPDEST PUSH0 PUSH20 0xFFFFFFFFFFFFFFFFFFFFFFFFFFFFFFFFFFFFFFFF DUP3 AND SWAP1 POP SWAP2 SWAP1 POP JUMP JUMPDEST PUSH0 PUSH2 0x180 DUP3 PUSH2 0x157 JUMP JUMPDEST SWAP1 POP SWAP2 SWAP1 POP JUMP JUMPDEST PUSH2 0x190 DUP2 PUSH2 0x176 JUMP JUMPDEST DUP3 MSTORE POP POP JUMP JUMPDEST PUSH0 PUSH1 0x20 DUP3 ADD SWAP1 POP PUSH2 0x1A9 PUSH0 DUP4 ADD DUP5 PUSH2 0x187 JUMP JUMPDEST SWAP3 SWAP2 POP POP JUMP JUMPDEST PUSH2 0x1668 DUP1 PUSH2 0x1BC PUSH0 CODECOPY PUSH0 RETURN INVALID PUSH1 0x80 PUSH1 0x40 MSTORE PUSH1 0x4 CALLDATASIZE LT PUSH2 0x54 JUMPI PUSH0 CALLDATALOAD PUSH1 0xE0 SHR DUP1 PUSH4 0x22502268 EQ PUSH2 0x58 JUMPI DUP1 PUSH4 0x715018A6 EQ PUSH2 0x74 JUMPI DUP1 PUSH4 0x86CDF604 EQ PUSH2 0x8A JUMPI DUP1 PUSH4 0x8DA5CB5B EQ PUSH2 0xB4 JUMPI DUP1 PUSH4 0xE38E2B82 EQ PUSH2 0xDE JUMPI DUP1 PUSH4 0xF2FDE38B EQ PUSH2 0x11A JUMPI JUMPDEST PUSH0 PUSH0 REVERT JUMPDEST PUSH2 0x72 PUSH1 0x4 DUP1 CALLDATASIZE SUB DUP2 ADD SWAP1 PUSH2 0x6D SWAP2 SWAP1 PUSH2 0xA2F JUMP JUMPDEST PUSH2 0x142 JUMP JUMPDEST STOP JUMPDEST CALLVALUE DUP1 ISZERO PUSH2 0x7F JUMPI PUSH0 PUSH0 REVERT JUMPDEST POP PUSH2 0x88 PUSH2 0x5FF JUMP JUMPDEST STOP JUMPDEST CALLVALUE DUP1 ISZERO PUSH2 0x95 JUMPI PUSH0 PUSH0 REVERT JUMPDEST POP PUSH2 0x9E PUSH2 0x612 JUMP JUMPDEST PUSH1 0x40 MLOAD PUSH2 0xAB SWAP2 SWAP1 PUSH2 0xB54 JUMP JUMPDEST PUSH1 0x40 MLOAD DUP1 SWAP2 SUB SWAP1 RETURN JUMPDEST CALLVALUE DUP1 ISZERO PUSH2 0xBF JUMPI PUSH0 PUSH0 REVERT JUMPDEST POP PUSH2 0xC8 PUSH2 0x69D JUMP JUMPDEST PUSH1 0x40 MLOAD PUSH2 0xD5 SWAP2 SWAP1 PUSH2 0xB83 JUMP JUMPDEST PUSH1 0x40 MLOAD DUP1 SWAP2 SUB SWAP1 RETURN JUMPDEST CALLVALUE DUP1 ISZERO PUSH2 0xE9 JUMPI PUSH0 PUSH0 REVERT JUMPDEST POP PUSH2 0x104 PUSH1 0x4 DUP1 CALLDATASIZE SUB DUP2 ADD SWAP1 PUSH2 0xFF SWAP2 SWAP1 PUSH2 0xB9C JUMP JUMPDEST PUSH2 0x6C4 JUMP JUMPDEST PUSH1 0x40 MLOAD PUSH2 0x111 SWAP2 SWAP1 PUSH2 0xC29 JUMP JUMPDEST PUSH1 0x40 MLOAD DUP1 SWAP2 SUB SWAP1 RETURN JUMPDEST CALLVALUE DUP1 ISZERO PUSH2 0x125 JUMPI PUSH0 PUSH0 REVERT JUMPDEST POP PUSH2 0x140 PUSH1 0x4 DUP1 CALLDATASIZE SUB DUP2 ADD SWAP1 PUSH2 0x13B SWAP2 SWAP1 PUSH2 0xC6C JUMP JUMPDEST PUSH2 0x7AC JUMP JUMPDEST STOP JUMPDEST PUSH0 PUSH3 0x15180 DUP3 PUSH2 0x152 SWAP2 SWAP1 PUSH2 0xCC4 JUMP JUMPDEST SWAP1 POP PUSH0 PUSH1 0x1 SLOAD SWAP1 POP PUSH0 DUP5 SUB PUSH2 0x193 JUMPI PUSH1 0x40 MLOAD PUSH32 0xD2AE31DE00000000000000000000000000000000000000000000000000000000 DUP2 MSTORE PUSH1 0x4 ADD PUSH1 0x40 MLOAD DUP1 SWAP2 SUB SWAP1 REVERT JUMPDEST PUSH7 0x2386F26FC10000 DUP5 LT ISZERO PUSH2 0x1D4 JUMPI PUSH1 0x40 MLOAD PUSH32 0xFDFBE1B200000000000000000000000000000000000000000000000000000000 DUP2 MSTORE PUSH1 0x4 ADD PUSH1 0x40 MLOAD DUP1 SWAP2 SUB SWAP1 REVERT JUMPDEST PUSH0 DUP3 SUB PUSH2 0x20D JUMPI PUSH1 0x40 MLOAD PUSH32 0x7AC98A3E00000000000000000000000000000000000000000000000000000000 DUP2 MSTORE PUSH1 0x4 ADD PUSH1 0x40 MLOAD DUP1 SWAP2 SUB SWAP1 REVERT JUMPDEST PUSH3 0x15180 DUP3 GT PUSH2 0x249 JUMPI PUSH1 0x40 MLOAD PUSH32 0xC49F871B00000000000000000000000000000000000000000000000000000000 DUP2 MSTORE PUSH1 0x4 ADD PUSH1 0x40 MLOAD DUP1 SWAP2 SUB SWAP1 REVERT JUMPDEST PUSH4 0x1E13380 DUP3 LT PUSH2 0x286 JUMPI PUSH1 0x40 MLOAD PUSH32 0x960056EB00000000000000000000000000000000000000000000000000000000 DUP2 MSTORE PUSH1 0x4 ADD PUSH1 0x40 MLOAD DUP1 SWAP2 SUB SWAP1 REVERT JUMPDEST PUSH7 0x2386F26FC10000 CALLVALUE GT PUSH2 0x2C6 JUMPI PUSH1 0x40 MLOAD PUSH32 0xE3005D3400000000000000000000000000000000000000000000000000000000 DUP2 MSTORE PUSH1 0x4 ADD PUSH1 0x40 MLOAD DUP1 SWAP2 SUB SWAP1 REVERT JUMPDEST PUSH0 PUSH2 0x2D0 DUP6 PUSH2 0x830 JUMP JUMPDEST SWAP1 POP PUSH0 CALLER DUP3 DUP6 TIMESTAMP PUSH2 0x2E1 SWAP2 SWAP1 PUSH2 0xD05 JUMP JUMPDEST PUSH1 0x40 MLOAD PUSH2 0x2ED SWAP1 PUSH2 0x99B JUMP JUMPDEST PUSH2 0x2F9 SWAP4 SWAP3 SWAP2 SWAP1 PUSH2 0xD47 JUMP JUMPDEST PUSH1 0x40 MLOAD DUP1 SWAP2 SUB SWAP1 PUSH0 CREATE DUP1 ISZERO DUP1 ISZERO PUSH2 0x312 JUMPI RETURNDATASIZE PUSH0 PUSH0 RETURNDATACOPY RETURNDATASIZE PUSH0 REVERT JUMPDEST POP SWAP1 POP PUSH1 0x2 DUP2 SWAP1 DUP1 PUSH1 0x1 DUP2 SLOAD ADD DUP1 DUP3 SSTORE DUP1 SWAP2 POP POP PUSH1 0x1 SWAP1 SUB SWAP1 PUSH0 MSTORE PUSH1 0x20 PUSH0 KECCAK256 ADD PUSH0 SWAP1 SWAP2 SWAP1 SWAP2 SWAP1 SWAP2 PUSH2 0x100 EXP DUP2 SLOAD DUP2 PUSH20 0xFFFFFFFFFFFFFFFFFFFFFFFFFFFFFFFFFFFFFFFF MUL NOT AND SWAP1 DUP4 PUSH20 0xFFFFFFFFFFFFFFFFFFFFFFFFFFFFFFFFFFFFFFFF AND MUL OR SWAP1 SSTORE POP PUSH1 0x40 MLOAD DUP1 PUSH1 0x80 ADD PUSH1 0x40 MSTORE DUP1 DUP3 PUSH20 0xFFFFFFFFFFFFFFFFFFFFFFFFFFFFFFFFFFFFFFFF AND DUP2 MSTORE PUSH1 0x20 ADD CALLER PUSH20 0xFFFFFFFFFFFFFFFFFFFFFFFFFFFFFFFFFFFFFFFF AND DUP2 MSTORE PUSH1 0x20 ADD DUP4 DUP2 MSTORE PUSH1 0x20 ADD TIMESTAMP DUP2 MSTORE POP PUSH1 0x3 PUSH0 DUP6 DUP2 MSTORE PUSH1 0x20 ADD SWAP1 DUP2 MSTORE PUSH1 0x20 ADD PUSH0 KECCAK256 PUSH0 DUP3 ADD MLOAD DUP2 PUSH0 ADD PUSH0 PUSH2 0x100 EXP DUP2 SLOAD DUP2 PUSH20 0xFFFFFFFFFFFFFFFFFFFFFFFFFFFFFFFFFFFFFFFF MUL NOT AND SWAP1 DUP4 PUSH20 0xFFFFFFFFFFFFFFFFFFFFFFFFFFFFFFFFFFFFFFFF AND MUL OR SWAP1 SSTORE POP PUSH1 0x20 DUP3 ADD MLOAD DUP2 PUSH1 0x1 ADD PUSH0 PUSH2 0x100 EXP DUP2 SLOAD DUP2 PUSH20 0xFFFFFFFFFFFFFFFFFFFFFFFFFFFFFFFFFFFFFFFF MUL NOT AND SWAP1 DUP4 PUSH20 0xFFFFFFFFFFFFFFFFFFFFFFFFFFFFFFFFFFFFFFFF AND MUL OR SWAP1 SSTORE POP PUSH1 0x40 DUP3 ADD MLOAD DUP2 PUSH1 0x2 ADD SSTORE PUSH1 0x60 DUP3 ADD MLOAD DUP2 PUSH1 0x3 ADD SSTORE SWAP1 POP POP PUSH1 0x1 PUSH1 0x4 PUSH0 DUP4 PUSH20 0xFFFFFFFFFFFFFFFFFFFFFFFFFFFFFFFFFFFFFFFF AND PUSH20 0xFFFFFFFFFFFFFFFFFFFFFFFFFFFFFFFFFFFFFFFF AND DUP2 MSTORE PUSH1 0x20 ADD SWAP1 DUP2 MSTORE PUSH1 0x20 ADD PUSH0 KECCAK256 PUSH0 PUSH2 0x100 EXP DUP2 SLOAD DUP2 PUSH1 0xFF MUL NOT AND SWAP1 DUP4 ISZERO ISZERO MUL OR SWAP1 SSTORE POP DUP3 DUP1 PUSH2 0x4D4 SWAP1 PUSH2 0xD7C JUMP JUMPDEST SWAP4 POP POP CALLER PUSH20 0xFFFFFFFFFFFFFFFFFFFFFFFFFFFFFFFFFFFFFFFF AND PUSH32 0x681F945F90CA3793B37315ED6A012353C82C1B37CA023EF835C746461359F552 CALLVALUE DUP6 PUSH1 0x40 MLOAD PUSH2 0x51F SWAP3 SWAP2 SWAP1 PUSH2 0xDC3 JUMP JUMPDEST PUSH1 0x40 MLOAD DUP1 SWAP2 SUB SWAP1 LOG2 PUSH7 0x2386F26FC10000 CALLVALUE GT ISZERO PUSH2 0x5F7 JUMPI PUSH0 PUSH7 0x2386F26FC10000 CALLVALUE PUSH2 0x54A SWAP2 SWAP1 PUSH2 0xDEA JUMP JUMPDEST SWAP1 POP PUSH0 CALLER PUSH20 0xFFFFFFFFFFFFFFFFFFFFFFFFFFFFFFFFFFFFFFFF AND DUP3 PUSH1 0x40 MLOAD PUSH2 0x571 SWAP1 PUSH2 0xE4A JUMP JUMPDEST PUSH0 PUSH1 0x40 MLOAD DUP1 DUP4 SUB DUP2 DUP6 DUP8 GAS CALL SWAP3 POP POP POP RETURNDATASIZE DUP1 PUSH0 DUP2 EQ PUSH2 0x5AB JUMPI PUSH1 0x40 MLOAD SWAP2 POP PUSH1 0x1F NOT PUSH1 0x3F RETURNDATASIZE ADD AND DUP3 ADD PUSH1 0x40 MSTORE RETURNDATASIZE DUP3 MSTORE RETURNDATASIZE PUSH0 PUSH1 0x20 DUP5 ADD RETURNDATACOPY PUSH2 0x5B0 JUMP JUMPDEST PUSH1 0x60 SWAP2 POP JUMPDEST POP POP SWAP1 POP DUP1 PUSH2 0x5F4 JUMPI PUSH1 0x40 MLOAD PUSH32 0x8C379A000000000000000000000000000000000000000000000000000000000 DUP2 MSTORE PUSH1 0x4 ADD PUSH2 0x5EB SWAP1 PUSH2 0xEB8 JUMP JUMPDEST PUSH1 0x40 MLOAD DUP1 SWAP2 SUB SWAP1 REVERT JUMPDEST POP POP JUMPDEST POP POP POP POP POP POP JUMP JUMPDEST PUSH2 0x607 PUSH2 0x84C JUMP JUMPDEST PUSH2 0x610 PUSH0 PUSH2 0x8D3 JUMP JUMPDEST JUMP JUMPDEST PUSH1 0x60 PUSH1 0x2 DUP1 SLOAD DUP1 PUSH1 0x20 MUL PUSH1 0x20 ADD PUSH1 0x40 MLOAD SWAP1 DUP2 ADD PUSH1 0x40 MSTORE DUP1 SWAP3 SWAP2 SWAP1 DUP2 DUP2 MSTORE PUSH1 0x20 ADD DUP3 DUP1 SLOAD DUP1 ISZERO PUSH2 0x693 JUMPI PUSH1 0x20 MUL DUP3 ADD SWAP2 SWAP1 PUSH0 MSTORE PUSH1 0x20 PUSH0 KECCAK256 SWAP1 JUMPDEST DUP2 PUSH0 SWAP1 SLOAD SWAP1 PUSH2 0x100 EXP SWAP1 DIV PUSH20 0xFFFFFFFFFFFFFFFFFFFFFFFFFFFFFFFFFFFFFFFF AND PUSH20 0xFFFFFFFFFFFFFFFFFFFFFFFFFFFFFFFFFFFFFFFF AND DUP2 MSTORE PUSH1 0x20 ADD SWAP1 PUSH1 0x1 ADD SWAP1 DUP1 DUP4 GT PUSH2 0x64A JUMPI JUMPDEST POP POP POP POP POP SWAP1 POP SWAP1 JUMP JUMPDEST PUSH0 PUSH0 PUSH0 SWAP1 SLOAD SWAP1 PUSH2 0x100 EXP SWAP1 DIV PUSH20 0xFFFFFFFFFFFFFFFFFFFFFFFFFFFFFFFFFFFFFFFF AND SWAP1 POP SWAP1 JUMP JUMPDEST PUSH2 0x6CC PUSH2 0x9A8 JUMP JUMPDEST PUSH1 0x3 PUSH0 DUP4 DUP2 MSTORE PUSH1 0x20 ADD SWAP1 DUP2 MSTORE PUSH1 0x20 ADD PUSH0 KECCAK256 PUSH1 0x40 MLOAD DUP1 PUSH1 0x80 ADD PUSH1 0x40 MSTORE SWAP1 DUP2 PUSH0 DUP3 ADD PUSH0 SWAP1 SLOAD SWAP1 PUSH2 0x100 EXP SWAP1 DIV PUSH20 0xFFFFFFFFFFFFFFFFFFFFFFFFFFFFFFFFFFFFFFFF AND PUSH20 0xFFFFFFFFFFFFFFFFFFFFFFFFFFFFFFFFFFFFFFFF AND PUSH20 0xFFFFFFFFFFFFFFFFFFFFFFFFFFFFFFFFFFFFFFFF AND DUP2 MSTORE PUSH1 0x20 ADD PUSH1 0x1 DUP3 ADD PUSH0 SWAP1 SLOAD SWAP1 PUSH2 0x100 EXP SWAP1 DIV PUSH20 0xFFFFFFFFFFFFFFFFFFFFFFFFFFFFFFFFFFFFFFFF AND PUSH20 0xFFFFFFFFFFFFFFFFFFFFFFFFFFFFFFFFFFFFFFFF AND PUSH20 0xFFFFFFFFFFFFFFFFFFFFFFFFFFFFFFFFFFFFFFFF AND DUP2 MSTORE PUSH1 0x20 ADD PUSH1 0x2 DUP3 ADD SLOAD DUP2 MSTORE PUSH1 0x20 ADD PUSH1 0x3 DUP3 ADD SLOAD DUP2 MSTORE POP POP SWAP1 POP SWAP2 SWAP1 POP JUMP JUMPDEST PUSH2 0x7B4 PUSH2 0x84C JUMP JUMPDEST PUSH0 PUSH20 0xFFFFFFFFFFFFFFFFFFFFFFFFFFFFFFFFFFFFFFFF AND DUP2 PUSH20 0xFFFFFFFFFFFFFFFFFFFFFFFFFFFFFFFFFFFFFFFF AND SUB PUSH2 0x824 JUMPI PUSH0 PUSH1 0x40 MLOAD PUSH32 0x1E4FBDF700000000000000000000000000000000000000000000000000000000 DUP2 MSTORE PUSH1 0x4 ADD PUSH2 0x81B SWAP2 SWAP1 PUSH2 0xB83 JUMP JUMPDEST PUSH1 0x40 MLOAD DUP1 SWAP2 SUB SWAP1 REVERT JUMPDEST PUSH2 0x82D DUP2 PUSH2 0x8D3 JUMP JUMPDEST POP JUMP JUMPDEST PUSH0 PUSH8 0xDE0B6B3A7640000 DUP3 PUSH2 0x845 SWAP2 SWAP1 PUSH2 0xCC4 JUMP JUMPDEST SWAP1 POP SWAP2 SWAP1 POP JUMP JUMPDEST PUSH2 0x854 PUSH2 0x994 JUMP JUMPDEST PUSH20 0xFFFFFFFFFFFFFFFFFFFFFFFFFFFFFFFFFFFFFFFF AND PUSH2 0x872 PUSH2 0x69D JUMP JUMPDEST PUSH20 0xFFFFFFFFFFFFFFFFFFFFFFFFFFFFFFFFFFFFFFFF AND EQ PUSH2 0x8D1 JUMPI PUSH2 0x895 PUSH2 0x994 JUMP JUMPDEST PUSH1 0x40 MLOAD PUSH32 0x118CDAA700000000000000000000000000000000000000000000000000000000 DUP2 MSTORE PUSH1 0x4 ADD PUSH2 0x8C8 SWAP2 SWAP1 PUSH2 0xB83 JUMP JUMPDEST PUSH1 0x40 MLOAD DUP1 SWAP2 SUB SWAP1 REVERT JUMPDEST JUMP JUMPDEST PUSH0 PUSH0 PUSH0 SWAP1 SLOAD SWAP1 PUSH2 0x100 EXP SWAP1 DIV PUSH20 0xFFFFFFFFFFFFFFFFFFFFFFFFFFFFFFFFFFFFFFFF AND SWAP1 POP DUP2 PUSH0 PUSH0 PUSH2 0x100 EXP DUP2 SLOAD DUP2 PUSH20 0xFFFFFFFFFFFFFFFFFFFFFFFFFFFFFFFFFFFFFFFF MUL NOT AND SWAP1 DUP4 PUSH20 0xFFFFFFFFFFFFFFFFFFFFFFFFFFFFFFFFFFFFFFFF AND MUL OR SWAP1 SSTORE POP DUP2 PUSH20 0xFFFFFFFFFFFFFFFFFFFFFFFFFFFFFFFFFFFFFFFF AND DUP2 PUSH20 0xFFFFFFFFFFFFFFFFFFFFFFFFFFFFFFFFFFFFFFFF AND PUSH32 0x8BE0079C531659141344CD1FD0A4F28419497F9722A3DAAFE3B4186F6B6457E0 PUSH1 0x40 MLOAD PUSH1 0x40 MLOAD DUP1 SWAP2 SUB SWAP1 LOG3 POP POP JUMP JUMPDEST PUSH0 CALLER SWAP1 POP SWAP1 JUMP JUMPDEST PUSH2 0x75C DUP1 PUSH2 0xED7 DUP4 CODECOPY ADD SWAP1 JUMP JUMPDEST PUSH1 0x40 MLOAD DUP1 PUSH1 0x80 ADD PUSH1 0x40 MSTORE DUP1 PUSH0 PUSH20 0xFFFFFFFFFFFFFFFFFFFFFFFFFFFFFFFFFFFFFFFF AND DUP2 MSTORE PUSH1 0x20 ADD PUSH0 PUSH20 0xFFFFFFFFFFFFFFFFFFFFFFFFFFFFFFFFFFFFFFFF AND DUP2 MSTORE PUSH1 0x20 ADD PUSH0 DUP2 MSTORE PUSH1 0x20 ADD PUSH0 DUP2 MSTORE POP SWAP1 JUMP JUMPDEST PUSH0 PUSH0 REVERT JUMPDEST PUSH0 DUP2 SWAP1 POP SWAP2 SWAP1 POP JUMP JUMPDEST PUSH2 0xA0E DUP2 PUSH2 0x9FC JUMP JUMPDEST DUP2 EQ PUSH2 0xA18 JUMPI PUSH0 PUSH0 REVERT JUMPDEST POP JUMP JUMPDEST PUSH0 DUP2 CALLDATALOAD SWAP1 POP PUSH2 0xA29 DUP2 PUSH2 0xA05 JUMP JUMPDEST SWAP3 SWAP2 POP POP JUMP JUMPDEST PUSH0 PUSH0 PUSH1 0x40 DUP4 DUP6 SUB SLT ISZERO PUSH2 0xA45 JUMPI PUSH2 0xA44 PUSH2 0x9F8 JUMP JUMPDEST JUMPDEST PUSH0 PUSH2 0xA52 DUP6 DUP3 DUP7 ADD PUSH2 0xA1B JUMP JUMPDEST SWAP3 POP POP PUSH1 0x20 PUSH2 0xA63 DUP6 DUP3 DUP7 ADD PUSH2 0xA1B JUMP JUMPDEST SWAP2 POP POP SWAP3 POP SWAP3 SWAP1 POP JUMP JUMPDEST PUSH0 DUP2 MLOAD SWAP1 POP SWAP2 SWAP1 POP JUMP JUMPDEST PUSH0 DUP3 DUP3 MSTORE PUSH1 0x20 DUP3 ADD SWAP1 POP SWAP3 SWAP2 POP POP JUMP JUMPDEST PUSH0 DUP2 SWAP1 POP PUSH1 0x20 DUP3 ADD SWAP1 POP SWAP2 SWAP1 POP JUMP JUMPDEST PUSH0 PUSH20 0xFFFFFFFFFFFFFFFFFFFFFFFFFFFFFFFFFFFFFFFF DUP3 AND SWAP1 POP SWAP2 SWAP1 POP JUMP JUMPDEST PUSH0 PUSH2 0xABF DUP3 PUSH2 0xA96 JUMP JUMPDEST SWAP1 POP SWAP2 SWAP1 POP JUMP JUMPDEST PUSH2 0xACF DUP2 PUSH2 0xAB5 JUMP JUMPDEST DUP3 MSTORE POP POP JUMP JUMPDEST PUSH0 PUSH2 0xAE0 DUP4 DUP4 PUSH2 0xAC6 JUMP JUMPDEST PUSH1 0x20 DUP4 ADD SWAP1 POP SWAP3 SWAP2 POP POP JUMP JUMPDEST PUSH0 PUSH1 0x20 DUP3 ADD SWAP1 POP SWAP2 SWAP1 POP JUMP JUMPDEST PUSH0 PUSH2 0xB02 DUP3 PUSH2 0xA6D JUMP JUMPDEST PUSH2 0xB0C DUP2 DUP6 PUSH2 0xA77 JUMP JUMPDEST SWAP4 POP PUSH2 0xB17 DUP4 PUSH2 0xA87 JUMP JUMPDEST DUP1 PUSH0 JUMPDEST DUP4 DUP2 LT ISZERO PUSH2 0xB47 JUMPI DUP2 MLOAD PUSH2 0xB2E DUP9 DUP3 PUSH2 0xAD5 JUMP JUMPDEST SWAP8 POP PUSH2 0xB39 DUP4 PUSH2 0xAEC JUMP JUMPDEST SWAP3 POP POP PUSH1 0x1 DUP2 ADD SWAP1 POP PUSH2 0xB1A JUMP JUMPDEST POP DUP6 SWAP4 POP POP POP POP SWAP3 SWAP2 POP POP JUMP JUMPDEST PUSH0 PUSH1 0x20 DUP3 ADD SWAP1 POP DUP2 DUP2 SUB PUSH0 DUP4 ADD MSTORE PUSH2 0xB6C DUP2 DUP5 PUSH2 0xAF8 JUMP JUMPDEST SWAP1 POP SWAP3 SWAP2 POP POP JUMP JUMPDEST PUSH2 0xB7D DUP2 PUSH2 0xAB5 JUMP JUMPDEST DUP3 MSTORE POP POP JUMP JUMPDEST PUSH0 PUSH1 0x20 DUP3 ADD SWAP1 POP PUSH2 0xB96 PUSH0 DUP4 ADD DUP5 PUSH2 0xB74 JUMP JUMPDEST SWAP3 SWAP2 POP POP JUMP JUMPDEST PUSH0 PUSH1 0x20 DUP3 DUP5 SUB SLT ISZERO PUSH2 0xBB1 JUMPI PUSH2 0xBB0 PUSH2 0x9F8 JUMP JUMPDEST JUMPDEST PUSH0 PUSH2 0xBBE DUP5 DUP3 DUP6 ADD PUSH2 0xA1B JUMP JUMPDEST SWAP2 POP POP SWAP3 SWAP2 POP POP JUMP JUMPDEST PUSH2 0xBD0 DUP2 PUSH2 0x9FC JUMP JUMPDEST DUP3 MSTORE POP POP JUMP JUMPDEST PUSH1 0x80 DUP3 ADD PUSH0 DUP3 ADD MLOAD PUSH2 0xBEA PUSH0 DUP6 ADD DUP3 PUSH2 0xAC6 JUMP JUMPDEST POP PUSH1 0x20 DUP3 ADD MLOAD PUSH2 0xBFD PUSH1 0x20 DUP6 ADD DUP3 PUSH2 0xAC6 JUMP JUMPDEST POP PUSH1 0x40 DUP3 ADD MLOAD PUSH2 0xC10 PUSH1 0x40 DUP6 ADD DUP3 PUSH2 0xBC7 JUMP JUMPDEST POP PUSH1 0x60 DUP3 ADD MLOAD PUSH2 0xC23 PUSH1 0x60 DUP6 ADD DUP3 PUSH2 0xBC7 JUMP JUMPDEST POP POP POP POP JUMP JUMPDEST PUSH0 PUSH1 0x80 DUP3 ADD SWAP1 POP PUSH2 0xC3C PUSH0 DUP4 ADD DUP5 PUSH2 0xBD6 JUMP JUMPDEST SWAP3 SWAP2 POP POP JUMP JUMPDEST PUSH2 0xC4B DUP2 PUSH2 0xAB5 JUMP JUMPDEST DUP2 EQ PUSH2 0xC55 JUMPI PUSH0 PUSH0 REVERT JUMPDEST POP JUMP JUMPDEST PUSH0 DUP2 CALLDATALOAD SWAP1 POP PUSH2 0xC66 DUP2 PUSH2 0xC42 JUMP JUMPDEST SWAP3 SWAP2 POP POP JUMP JUMPDEST PUSH0 PUSH1 0x20 DUP3 DUP5 SUB SLT ISZERO PUSH2 0xC81 JUMPI PUSH2 0xC80 PUSH2 0x9F8 JUMP JUMPDEST JUMPDEST PUSH0 PUSH2 0xC8E DUP5 DUP3 DUP6 ADD PUSH2 0xC58 JUMP JUMPDEST SWAP2 POP POP SWAP3 SWAP2 POP POP JUMP JUMPDEST PUSH32 0x4E487B7100000000000000000000000000000000000000000000000000000000 PUSH0 MSTORE PUSH1 0x11 PUSH1 0x4 MSTORE PUSH1 0x24 PUSH0 REVERT JUMPDEST PUSH0 PUSH2 0xCCE DUP3 PUSH2 0x9FC JUMP JUMPDEST SWAP2 POP PUSH2 0xCD9 DUP4 PUSH2 0x9FC JUMP JUMPDEST SWAP3 POP DUP3 DUP3 MUL PUSH2 0xCE7 DUP2 PUSH2 0x9FC JUMP JUMPDEST SWAP2 POP DUP3 DUP3 DIV DUP5 EQ DUP4 ISZERO OR PUSH2 0xCFE JUMPI PUSH2 0xCFD PUSH2 0xC97 JUMP JUMPDEST JUMPDEST POP SWAP3 SWAP2 POP POP JUMP JUMPDEST PUSH0 PUSH2 0xD0F DUP3 PUSH2 0x9FC JUMP JUMPDEST SWAP2 POP PUSH2 0xD1A DUP4 PUSH2 0x9FC JUMP JUMPDEST SWAP3 POP DUP3 DUP3 ADD SWAP1 POP DUP1 DUP3 GT ISZERO PUSH2 0xD32 JUMPI PUSH2 0xD31 PUSH2 0xC97 JUMP JUMPDEST JUMPDEST SWAP3 SWAP2 POP POP JUMP JUMPDEST PUSH2 0xD41 DUP2 PUSH2 0x9FC JUMP JUMPDEST DUP3 MSTORE POP POP JUMP JUMPDEST PUSH0 PUSH1 0x60 DUP3 ADD SWAP1 POP PUSH2 0xD5A PUSH0 DUP4 ADD DUP7 PUSH2 0xB74 JUMP JUMPDEST PUSH2 0xD67 PUSH1 0x20 DUP4 ADD DUP6 PUSH2 0xD38 JUMP JUMPDEST PUSH2 0xD74 PUSH1 0x40 DUP4 ADD DUP5 PUSH2 0xD38 JUMP JUMPDEST SWAP5 SWAP4 POP POP POP POP JUMP JUMPDEST PUSH0 PUSH2 0xD86 DUP3 PUSH2 0x9FC JUMP JUMPDEST SWAP2 POP PUSH32 0xFFFFFFFFFFFFFFFFFFFFFFFFFFFFFFFFFFFFFFFFFFFFFFFFFFFFFFFFFFFFFFFF DUP3 SUB PUSH2 0xDB8 JUMPI PUSH2 0xDB7 PUSH2 0xC97 JUMP JUMPDEST JUMPDEST PUSH1 0x1 DUP3 ADD SWAP1 POP SWAP2 SWAP1 POP JUMP JUMPDEST PUSH0 PUSH1 0x40 DUP3 ADD SWAP1 POP PUSH2 0xDD6 PUSH0 DUP4 ADD DUP6 PUSH2 0xD38 JUMP JUMPDEST PUSH2 0xDE3 PUSH1 0x20 DUP4 ADD DUP5 PUSH2 0xD38 JUMP JUMPDEST SWAP4 SWAP3 POP POP POP JUMP JUMPDEST PUSH0 PUSH2 0xDF4 DUP3 PUSH2 0x9FC JUMP JUMPDEST SWAP2 POP PUSH2 0xDFF DUP4 PUSH2 0x9FC JUMP JUMPDEST SWAP3 POP DUP3 DUP3 SUB SWAP1 POP DUP2 DUP2 GT ISZERO PUSH2 0xE17 JUMPI PUSH2 0xE16 PUSH2 0xC97 JUMP JUMPDEST JUMPDEST SWAP3 SWAP2 POP POP JUMP JUMPDEST PUSH0 DUP2 SWAP1 POP SWAP3 SWAP2 POP POP JUMP JUMPDEST POP JUMP JUMPDEST PUSH0 PUSH2 0xE35 PUSH0 DUP4 PUSH2 0xE1D JUMP JUMPDEST SWAP2 POP PUSH2 0xE40 DUP3 PUSH2 0xE27 JUMP JUMPDEST PUSH0 DUP3 ADD SWAP1 POP SWAP2 SWAP1 POP JUMP JUMPDEST PUSH0 PUSH2 0xE54 DUP3 PUSH2 0xE2A JUMP JUMPDEST SWAP2 POP DUP2 SWAP1 POP SWAP2 SWAP1 POP JUMP JUMPDEST PUSH0 DUP3 DUP3 MSTORE PUSH1 0x20 DUP3 ADD SWAP1 POP SWAP3 SWAP2 POP POP JUMP JUMPDEST PUSH32 0x526566756E64204661696C656400000000000000000000000000000000000000 PUSH0 DUP3 ADD MSTORE POP JUMP JUMPDEST PUSH0 PUSH2 0xEA2 PUSH1 0xD DUP4 PUSH2 0xE5E JUMP JUMPDEST SWAP2 POP PUSH2 0xEAD DUP3 PUSH2 0xE6E JUMP JUMPDEST PUSH1 0x20 DUP3 ADD SWAP1 POP SWAP2 SWAP1 POP JUMP JUMPDEST PUSH0 PUSH1 0x20 DUP3 ADD SWAP1 POP DUP2 DUP2 SUB PUSH0 DUP4 ADD MSTORE PUSH2 0xECF DUP2 PUSH2 0xE96 JUMP JUMPDEST SWAP1 POP SWAP2 SWAP1 POP JUMP INVALID PUSH1 0xA0 PUSH1 0x40 MSTORE CALLVALUE DUP1 ISZERO PUSH2 0xF JUMPI PUSH0 PUSH0 REVERT JUMPDEST POP PUSH1 0x40 MLOAD PUSH2 0x75C CODESIZE SUB DUP1 PUSH2 0x75C DUP4 CODECOPY DUP2 DUP2 ADD PUSH1 0x40 MSTORE DUP2 ADD SWAP1 PUSH2 0x31 SWAP2 SWAP1 PUSH2 0x24E JUMP JUMPDEST DUP3 PUSH0 PUSH20 0xFFFFFFFFFFFFFFFFFFFFFFFFFFFFFFFFFFFFFFFF AND DUP2 PUSH20 0xFFFFFFFFFFFFFFFFFFFFFFFFFFFFFFFFFFFFFFFF AND SUB PUSH2 0xA2 JUMPI PUSH0 PUSH1 0x40 MLOAD PUSH32 0x1E4FBDF700000000000000000000000000000000000000000000000000000000 DUP2 MSTORE PUSH1 0x4 ADD PUSH2 0x99 SWAP2 SWAP1 PUSH2 0x2AD JUMP JUMPDEST PUSH1 0x40 MLOAD DUP1 SWAP2 SUB SWAP1 REVERT JUMPDEST PUSH2 0xB1 DUP2 PUSH2 0xFC PUSH1 0x20 SHL PUSH1 0x20 SHR JUMP JUMPDEST POP DUP2 PUSH1 0x1 DUP2 SWAP1 SSTORE POP DUP1 PUSH1 0x2 DUP2 SWAP1 SSTORE POP CALLER PUSH20 0xFFFFFFFFFFFFFFFFFFFFFFFFFFFFFFFFFFFFFFFF AND PUSH1 0x80 DUP2 PUSH20 0xFFFFFFFFFFFFFFFFFFFFFFFFFFFFFFFFFFFFFFFF AND DUP2 MSTORE POP POP POP POP POP PUSH2 0x2C6 JUMP JUMPDEST PUSH0 PUSH0 PUSH0 SWAP1 SLOAD SWAP1 PUSH2 0x100 EXP SWAP1 DIV PUSH20 0xFFFFFFFFFFFFFFFFFFFFFFFFFFFFFFFFFFFFFFFF AND SWAP1 POP DUP2 PUSH0 PUSH0 PUSH2 0x100 EXP DUP2 SLOAD DUP2 PUSH20 0xFFFFFFFFFFFFFFFFFFFFFFFFFFFFFFFFFFFFFFFF MUL NOT AND SWAP1 DUP4 PUSH20 0xFFFFFFFFFFFFFFFFFFFFFFFFFFFFFFFFFFFFFFFF AND MUL OR SWAP1 SSTORE POP DUP2 PUSH20 0xFFFFFFFFFFFFFFFFFFFFFFFFFFFFFFFFFFFFFFFF AND DUP2 PUSH20 0xFFFFFFFFFFFFFFFFFFFFFFFFFFFFFFFFFFFFFFFF AND PUSH32 0x8BE0079C531659141344CD1FD0A4F28419497F9722A3DAAFE3B4186F6B6457E0 PUSH1 0x40 MLOAD PUSH1 0x40 MLOAD DUP1 SWAP2 SUB SWAP1 LOG3 POP POP JUMP JUMPDEST PUSH0 PUSH0 REVERT JUMPDEST PUSH0 PUSH20 0xFFFFFFFFFFFFFFFFFFFFFFFFFFFFFFFFFFFFFFFF DUP3 AND SWAP1 POP SWAP2 SWAP1 POP JUMP JUMPDEST PUSH0 PUSH2 0x1EA DUP3 PUSH2 0x1C1 JUMP JUMPDEST SWAP1 POP SWAP2 SWAP1 POP JUMP JUMPDEST PUSH2 0x1FA DUP2 PUSH2 0x1E0 JUMP JUMPDEST DUP2 EQ PUSH2 0x204 JUMPI PUSH0 PUSH0 REVERT JUMPDEST POP JUMP JUMPDEST PUSH0 DUP2 MLOAD SWAP1 POP PUSH2 0x215 DUP2 PUSH2 0x1F1 JUMP JUMPDEST SWAP3 SWAP2 POP POP JUMP JUMPDEST PUSH0 DUP2 SWAP1 POP SWAP2 SWAP1 POP JUMP JUMPDEST PUSH2 0x22D DUP2 PUSH2 0x21B JUMP JUMPDEST DUP2 EQ PUSH2 0x237 JUMPI PUSH0 PUSH0 REVERT JUMPDEST POP JUMP JUMPDEST PUSH0 DUP2 MLOAD SWAP1 POP PUSH2 0x248 DUP2 PUSH2 0x224 JUMP JUMPDEST SWAP3 SWAP2 POP POP JUMP JUMPDEST PUSH0 PUSH0 PUSH0 PUSH1 0x60 DUP5 DUP7 SUB SLT ISZERO PUSH2 0x265 JUMPI PUSH2 0x264 PUSH2 0x1BD JUMP JUMPDEST JUMPDEST PUSH0 PUSH2 0x272 DUP7 DUP3 DUP8 ADD PUSH2 0x207 JUMP JUMPDEST SWAP4 POP POP PUSH1 0x20 PUSH2 0x283 DUP7 DUP3 DUP8 ADD PUSH2 0x23A JUMP JUMPDEST SWAP3 POP POP PUSH1 0x40 PUSH2 0x294 DUP7 DUP3 DUP8 ADD PUSH2 0x23A JUMP JUMPDEST SWAP2 POP POP SWAP3 POP SWAP3 POP SWAP3 JUMP JUMPDEST PUSH2 0x2A7 DUP2 PUSH2 0x1E0 JUMP JUMPDEST DUP3 MSTORE POP POP JUMP JUMPDEST PUSH0 PUSH1 0x20 DUP3 ADD SWAP1 POP PUSH2 0x2C0 PUSH0 DUP4 ADD DUP5 PUSH2 0x29E JUMP JUMPDEST SWAP3 SWAP2 POP POP JUMP JUMPDEST PUSH1 0x80 MLOAD PUSH2 0x470 PUSH2 0x2EC PUSH0 CODECOPY PUSH0 DUP2 DUP2 PUSH2 0x10D ADD MSTORE DUP2 DUP2 PUSH2 0x147 ADD MSTORE PUSH2 0x194 ADD MSTORE PUSH2 0x470 PUSH0 RETURN INVALID PUSH1 0x80 PUSH1 0x40 MSTORE CALLVALUE DUP1 ISZERO PUSH2 0xF JUMPI PUSH0 PUSH0 REVERT JUMPDEST POP PUSH1 0x4 CALLDATASIZE LT PUSH2 0x60 JUMPI PUSH0 CALLDATALOAD PUSH1 0xE0 SHR DUP1 PUSH4 0x2C78655E EQ PUSH2 0x64 JUMPI DUP1 PUSH4 0x715018A6 EQ PUSH2 0x82 JUMPI DUP1 PUSH4 0x88CC58E4 EQ PUSH2 0x8C JUMPI DUP1 PUSH4 0x8DA5CB5B EQ PUSH2 0xAA JUMPI DUP1 PUSH4 0xB77B47A9 EQ PUSH2 0xC8 JUMPI DUP1 PUSH4 0xF2FDE38B EQ PUSH2 0xE6 JUMPI JUMPDEST PUSH0 PUSH0 REVERT JUMPDEST PUSH2 0x6C PUSH2 0x102 JUMP JUMPDEST PUSH1 0x40 MLOAD PUSH2 0x79 SWAP2 SWAP1 PUSH2 0x3C8 JUMP JUMPDEST PUSH1 0x40 MLOAD DUP1 SWAP2 SUB SWAP1 RETURN JUMPDEST PUSH2 0x8A PUSH2 0x131 JUMP JUMPDEST STOP JUMPDEST PUSH2 0x94 PUSH2 0x144 JUMP JUMPDEST PUSH1 0x40 MLOAD PUSH2 0xA1 SWAP2 SWAP1 PUSH2 0x3C8 JUMP JUMPDEST PUSH1 0x40 MLOAD DUP1 SWAP2 SUB SWAP1 RETURN JUMPDEST PUSH2 0xB2 PUSH2 0x16B JUMP JUMPDEST PUSH1 0x40 MLOAD PUSH2 0xBF SWAP2 SWAP1 PUSH2 0x3C8 JUMP JUMPDEST PUSH1 0x40 MLOAD DUP1 SWAP2 SUB SWAP1 RETURN JUMPDEST PUSH2 0xD0 PUSH2 0x192 JUMP JUMPDEST PUSH1 0x40 MLOAD PUSH2 0xDD SWAP2 SWAP1 PUSH2 0x3C8 JUMP JUMPDEST PUSH1 0x40 MLOAD DUP1 SWAP2 SUB SWAP1 RETURN JUMPDEST PUSH2 0x100 PUSH1 0x4 DUP1 CALLDATASIZE SUB DUP2 ADD SWAP1 PUSH2 0xFB SWAP2 SWAP1 PUSH2 0x40F JUMP JUMPDEST PUSH2 0x1B6 JUMP JUMPDEST STOP JUMPDEST PUSH0 PUSH2 0x10B PUSH2 0x23A JUMP JUMPDEST PUSH32 0x0 SWAP1 POP SWAP1 JUMP JUMPDEST PUSH2 0x139 PUSH2 0x23A JUMP JUMPDEST PUSH2 0x142 PUSH0 PUSH2 0x2C1 JUMP JUMPDEST JUMP JUMPDEST PUSH0 PUSH32 0x0 SWAP1 POP SWAP1 JUMP JUMPDEST PUSH0 PUSH0 PUSH0 SWAP1 SLOAD SWAP1 PUSH2 0x100 EXP SWAP1 DIV PUSH20 0xFFFFFFFFFFFFFFFFFFFFFFFFFFFFFFFFFFFFFFFF AND SWAP1 POP SWAP1 JUMP JUMPDEST PUSH32 0x0 DUP2 JUMP JUMPDEST PUSH2 0x1BE PUSH2 0x23A JUMP JUMPDEST PUSH0 PUSH20 0xFFFFFFFFFFFFFFFFFFFFFFFFFFFFFFFFFFFFFFFF AND DUP2 PUSH20 0xFFFFFFFFFFFFFFFFFFFFFFFFFFFFFFFFFFFFFFFF AND SUB PUSH2 0x22E JUMPI PUSH0 PUSH1 0x40 MLOAD PUSH32 0x1E4FBDF700000000000000000000000000000000000000000000000000000000 DUP2 MSTORE PUSH1 0x4 ADD PUSH2 0x225 SWAP2 SWAP1 PUSH2 0x3C8 JUMP JUMPDEST PUSH1 0x40 MLOAD DUP1 SWAP2 SUB SWAP1 REVERT JUMPDEST PUSH2 0x237 DUP2 PUSH2 0x2C1 JUMP JUMPDEST POP JUMP JUMPDEST PUSH2 0x242 PUSH2 0x382 JUMP JUMPDEST PUSH20 0xFFFFFFFFFFFFFFFFFFFFFFFFFFFFFFFFFFFFFFFF AND PUSH2 0x260 PUSH2 0x16B JUMP JUMPDEST PUSH20 0xFFFFFFFFFFFFFFFFFFFFFFFFFFFFFFFFFFFFFFFF AND EQ PUSH2 0x2BF JUMPI PUSH2 0x283 PUSH2 0x382 JUMP JUMPDEST PUSH1 0x40 MLOAD PUSH32 0x118CDAA700000000000000000000000000000000000000000000000000000000 DUP2 MSTORE PUSH1 0x4 ADD PUSH2 0x2B6 SWAP2 SWAP1 PUSH2 0x3C8 JUMP JUMPDEST PUSH1 0x40 MLOAD DUP1 SWAP2 SUB SWAP1 REVERT JUMPDEST JUMP JUMPDEST PUSH0 PUSH0 PUSH0 SWAP1 SLOAD SWAP1 PUSH2 0x100 EXP SWAP1 DIV PUSH20 0xFFFFFFFFFFFFFFFFFFFFFFFFFFFFFFFFFFFFFFFF AND SWAP1 POP DUP2 PUSH0 PUSH0 PUSH2 0x100 EXP DUP2 SLOAD DUP2 PUSH20 0xFFFFFFFFFFFFFFFFFFFFFFFFFFFFFFFFFFFFFFFF MUL NOT AND SWAP1 DUP4 PUSH20 0xFFFFFFFFFFFFFFFFFFFFFFFFFFFFFFFFFFFFFFFF AND MUL OR SWAP1 SSTORE POP DUP2 PUSH20 0xFFFFFFFFFFFFFFFFFFFFFFFFFFFFFFFFFFFFFFFF AND DUP2 PUSH20 0xFFFFFFFFFFFFFFFFFFFFFFFFFFFFFFFFFFFFFFFF AND PUSH32 0x8BE0079C531659141344CD1FD0A4F28419497F9722A3DAAFE3B4186F6B6457E0 PUSH1 0x40 MLOAD PUSH1 0x40 MLOAD DUP1 SWAP2 SUB SWAP1 LOG3 POP POP JUMP JUMPDEST PUSH0 CALLER SWAP1 POP SWAP1 JUMP JUMPDEST PUSH0 PUSH20 0xFFFFFFFFFFFFFFFFFFFFFFFFFFFFFFFFFFFFFFFF DUP3 AND SWAP1 POP SWAP2 SWAP1 POP JUMP JUMPDEST PUSH0 PUSH2 0x3B2 DUP3 PUSH2 0x389 JUMP JUMPDEST SWAP1 POP SWAP2 SWAP1 POP JUMP JUMPDEST PUSH2 0x3C2 DUP2 PUSH2 0x3A8 JUMP JUMPDEST DUP3 MSTORE POP POP JUMP JUMPDEST PUSH0 PUSH1 0x20 DUP3 ADD SWAP1 POP PUSH2 0x3DB PUSH0 DUP4 ADD DUP5 PUSH2 0x3B9 JUMP JUMPDEST SWAP3 SWAP2 POP POP JUMP JUMPDEST PUSH0 PUSH0 REVERT JUMPDEST PUSH2 0x3EE DUP2 PUSH2 0x3A8 JUMP JUMPDEST DUP2 EQ PUSH2 0x3F8 JUMPI PUSH0 PUSH0 REVERT JUMPDEST POP JUMP JUMPDEST PUSH0 DUP2 CALLDATALOAD SWAP1 POP PUSH2 0x409 DUP2 PUSH2 0x3E5 JUMP JUMPDEST SWAP3 SWAP2 POP POP JUMP JUMPDEST PUSH0 PUSH1 0x20 DUP3 DUP5 SUB SLT ISZERO PUSH2 0x424 JUMPI PUSH2 0x423 PUSH2 0x3E1 JUMP JUMPDEST JUMPDEST PUSH0 PUSH2 0x431 DUP5 DUP3 DUP6 ADD PUSH2 0x3FB JUMP JUMPDEST SWAP2 POP POP SWAP3 SWAP2 POP POP JUMP INVALID LOG2 PUSH5 0x6970667358 0x22 SLT KECCAK256 PUSH27 0xC909B110551E04DB42861D8501510844C7FDD146A43F3A2EABFE57 MSTORE8 0x4D RETURNDATACOPY 0xC2 PUSH5 0x736F6C6343 STOP ADDMOD 0x1E STOP CALLER LOG2 PUSH5 0x6970667358 0x22 SLT KECCAK256 PUSH16 0xA2896B1B0D0A580D7D2F4946E7ADC23C RETURN ORIGIN DIV PUSH5 0x5AB39D194C 0x23 CREATE2 0xD8 DUP3 SWAP2 PUSH25 0x64736F6C634300081E00330000000000000000000000000000 "
				},
				"gasEstimates": {
					"creation": {
						"codeDepositCost": "1147200",
						"executionCost": "infinite",
						"totalCost": "infinite"
					},
					"external": {
						"createCampaign(uint256,uint256)": "infinite",
						"getAllCampaigns()": "infinite",
						"getCampaignInfo(uint256)": "infinite",
						"owner()": "2558",
						"renounceOwnership()": "infinite",
						"transferOwnership(address)": "infinite"
					}
				},
				"methodIdentifiers": {
					"createCampaign(uint256,uint256)": "22502268",
					"getAllCampaigns()": "86cdf604",
					"getCampaignInfo(uint256)": "e38e2b82",
					"owner()": "8da5cb5b",
					"renounceOwnership()": "715018a6",
					"transferOwnership(address)": "f2fde38b"
				}
			},
			"storageLayout": {
				"storage": [
					{
						"astId": 8,
						"contract": "src/CrowdFundingFactory.sol:CrowdFundingFactory",
						"label": "_owner",
						"offset": 0,
						"slot": "0",
						"type": "t_address"
					},
					{
						"astId": 297,
						"contract": "src/CrowdFundingFactory.sol:CrowdFundingFactory",
						"label": "s_campaignCounter",
						"offset": 0,
						"slot": "1",
						"type": "t_uint256"
					},
					{
						"astId": 306,
						"contract": "src/CrowdFundingFactory.sol:CrowdFundingFactory",
						"label": "s_campaigns",
						"offset": 0,
						"slot": "2",
						"type": "t_array(t_address)dyn_storage"
					},
					{
						"astId": 311,
						"contract": "src/CrowdFundingFactory.sol:CrowdFundingFactory",
						"label": "campaignInfo",
						"offset": 0,
						"slot": "3",
						"type": "t_mapping(t_uint256,t_struct(CampaignInfo)295_storage)"
					},
					{
						"astId": 315,
						"contract": "src/CrowdFundingFactory.sol:CrowdFundingFactory",
						"label": "isCampaign",
						"offset": 0,
						"slot": "4",
						"type": "t_mapping(t_address,t_bool)"
					}
				],
				"types": {
					"t_address": {
						"encoding": "inplace",
						"label": "address",
						"numberOfBytes": "20"
					},
					"t_array(t_address)dyn_storage": {
						"base": "t_address",
						"encoding": "dynamic_array",
						"label": "address[]",
						"numberOfBytes": "32"
					},
					"t_bool": {
						"encoding": "inplace",
						"label": "bool",
						"numberOfBytes": "1"
					},
					"t_mapping(t_address,t_bool)": {
						"encoding": "mapping",
						"key": "t_address",
						"label": "mapping(address => bool)",
						"numberOfBytes": "32",
						"value": "t_bool"
					},
					"t_mapping(t_uint256,t_struct(CampaignInfo)295_storage)": {
						"encoding": "mapping",
						"key": "t_uint256",
						"label": "mapping(uint256 => struct CrowdFundingFactory.CampaignInfo)",
						"numberOfBytes": "32",
						"value": "t_struct(CampaignInfo)295_storage"
					},
					"t_struct(CampaignInfo)295_storage": {
						"encoding": "inplace",
						"label": "struct CrowdFundingFactory.CampaignInfo",
						"members": [
							{
								"astId": 288,
								"contract": "src/CrowdFundingFactory.sol:CrowdFundingFactory",
								"label": "campaignAddress",
								"offset": 0,
								"slot": "0",
								"type": "t_address"
							},
							{
								"astId": 290,
								"contract": "src/CrowdFundingFactory.sol:CrowdFundingFactory",
								"label": "creator",
								"offset": 0,
								"slot": "1",
								"type": "t_address"
							},
							{
								"astId": 292,
								"contract": "src/CrowdFundingFactory.sol:CrowdFundingFactory",
								"label": "goal",
								"offset": 0,
								"slot": "2",
								"type": "t_uint256"
							},
							{
								"astId": 294,
								"contract": "src/CrowdFundingFactory.sol:CrowdFundingFactory",
								"label": "createdAt",
								"offset": 0,
								"slot": "3",
								"type": "t_uint256"
							}
						],
						"numberOfBytes": "128"
					},
					"t_uint256": {
						"encoding": "inplace",
						"label": "uint256",
						"numberOfBytes": "32"
					}
				}
			},
			"userdoc": {
				"kind": "user",
				"methods": {},
				"version": 1
			}
		}
	}
}