{
	"data": {
		"bytecode": {
			"linkReferences": {},
			"object": "6080604052348015600e575f5ffd5b5061090c8061001c5f395ff3fe60806040526004361061003e575f3560e01c8063141961bc14610042578063225022681461008157806349a2104d1461009d5780636b69a592146100c7575b5f5ffd5b34801561004d575f5ffd5b5061006860048036038101906100639190610501565b6100f1565b604051610078949392919061057a565b60405180910390f35b61009b600480360381019061009691906105bd565b61015b565b005b3480156100a8575f5ffd5b506100b161048b565b6040516100be91906105fb565b60405180910390f35b3480156100d2575f5ffd5b506100db610496565b6040516100e891906105fb565b60405180910390f35b6001602052805f5260405f205f91509050805f015f9054906101000a900473ffffffffffffffffffffffffffffffffffffffff1690806001015f9054906101000a900473ffffffffffffffffffffffffffffffffffffffff16908060020154908060030154905084565b5f620151808261016b9190610641565b90505f83036101a6576040517f9b60eb4d00000000000000000000000000000000000000000000000000000000815260040160405180910390fd5b662386f26fc100008310156101e7576040517f72cf1f4400000000000000000000000000000000000000000000000000000000815260040160405180910390fd5b5f8103610220576040517f4da5d91a00000000000000000000000000000000000000000000000000000000815260040160405180910390fd5b62015180811161025c576040517f5e0240f900000000000000000000000000000000000000000000000000000000815260040160405180910390fd5b6301e133808110610299576040517ffc8f148c00000000000000000000000000000000000000000000000000000000815260040160405180910390fd5b662386f26fc1000034116102d9576040517f025dbdd400000000000000000000000000000000000000000000000000000000815260040160405180910390fd5b5f6102e3846104a1565b90505f3382856040516102f5906104bd565b61030193929190610682565b604051809103905ff08015801561031a573d5f5f3e3d5ffd5b50905060405180608001604052808273ffffffffffffffffffffffffffffffffffffffff1681526020013373ffffffffffffffffffffffffffffffffffffffff1681526020018381526020014281525060015f5f5481526020019081526020015f205f820151815f015f6101000a81548173ffffffffffffffffffffffffffffffffffffffff021916908373ffffffffffffffffffffffffffffffffffffffff1602179055506020820151816001015f6101000a81548173ffffffffffffffffffffffffffffffffffffffff021916908373ffffffffffffffffffffffffffffffffffffffff16021790555060408201518160020155606082015181600301559050505f5f81548092919061042e906106b7565b91905055503373ffffffffffffffffffffffffffffffffffffffff167f681f945f90ca3793b37315ed6a012353c82c1b37ca023ef835c746461359f552345f5460405161047c9291906106fe565b60405180910390a25050505050565b662386f26fc1000081565b662386f26fc1000081565b5f670de0b6b3a7640000826104b69190610641565b9050919050565b6101b18061072683390190565b5f5ffd5b5f819050919050565b6104e0816104ce565b81146104ea575f5ffd5b50565b5f813590506104fb816104d7565b92915050565b5f60208284031215610516576105156104ca565b5b5f610523848285016104ed565b91505092915050565b5f73ffffffffffffffffffffffffffffffffffffffff82169050919050565b5f6105558261052c565b9050919050565b6105658161054b565b82525050565b610574816104ce565b82525050565b5f60808201905061058d5f83018761055c565b61059a602083018661055c565b6105a7604083018561056b565b6105b4606083018461056b565b95945050505050565b5f5f604083850312156105d3576105d26104ca565b5b5f6105e0858286016104ed565b92505060206105f1858286016104ed565b9150509250929050565b5f60208201905061060e5f83018461056b565b92915050565b7f4e487b71000000000000000000000000000000000000000000000000000000005f52601160045260245ffd5b5f61064b826104ce565b9150610656836104ce565b9250828202610664816104ce565b9150828204841483151761067b5761067a610614565b5b5092915050565b5f6060820190506106955f83018661055c565b6106a2602083018561056b565b6106af604083018461056b565b949350505050565b5f6106c1826104ce565b91507fffffffffffffffffffffffffffffffffffffffffffffffffffffffffffffffff82036106f3576106f2610614565b5b600182019050919050565b5f6040820190506107115f83018561056b565b61071e602083018461056b565b939250505056fe608060405234801561000f575f5ffd5b506040516101b13803806101b183398181016040528101906100319190610117565b8260025f6101000a81548173ffffffffffffffffffffffffffffffffffffffff021916908373ffffffffffffffffffffffffffffffffffffffff160217905550815f8190555080600181905550505050610167565b5f5ffd5b5f73ffffffffffffffffffffffffffffffffffffffff82169050919050565b5f6100b38261008a565b9050919050565b6100c3816100a9565b81146100cd575f5ffd5b50565b5f815190506100de816100ba565b92915050565b5f819050919050565b6100f6816100e4565b8114610100575f5ffd5b50565b5f81519050610111816100ed565b92915050565b5f5f5f6060848603121561012e5761012d610086565b5b5f61013b868287016100d0565b935050602061014c86828701610103565b925050604061015d86828701610103565b9150509250925092565b603e806101735f395ff3fe60806040525f5ffdfea26469706673582212204cc56407ef330d3a75cc53b81ef43700034bfa9ae64e2091d7824580b87a352464736f6c634300081e0033a2646970667358221220d769601c13396914d0a01eb2ff7223b3cb86d76f39204ee5123ff05af442ad4964736f6c634300081e0033",
			"opcodes": "PUSH1 0x80 PUSH1 0x40 MSTORE CALLVALUE DUP1 ISZERO PUSH1 0xE JUMPI PUSH0 PUSH0 REVERT JUMPDEST POP PUSH2 0x90C DUP1 PUSH2 0x1C PUSH0 CODECOPY PUSH0 RETURN INVALID PUSH1 0x80 PUSH1 0x40 MSTORE PUSH1 0x4 CALLDATASIZE LT PUSH2 0x3E JUMPI PUSH0 CALLDATALOAD PUSH1 0xE0 SHR DUP1 PUSH4 0x141961BC EQ PUSH2 0x42 JUMPI DUP1 PUSH4 0x22502268 EQ PUSH2 0x81 JUMPI DUP1 PUSH4 0x49A2104D EQ PUSH2 0x9D JUMPI DUP1 PUSH4 0x6B69A592 EQ PUSH2 0xC7 JUMPI JUMPDEST PUSH0 PUSH0 REVERT JUMPDEST CALLVALUE DUP1 ISZERO PUSH2 0x4D JUMPI PUSH0 PUSH0 REVERT JUMPDEST POP PUSH2 0x68 PUSH1 0x4 DUP1 CALLDATASIZE SUB DUP2 ADD SWAP1 PUSH2 0x63 SWAP2 SWAP1 PUSH2 0x501 JUMP JUMPDEST PUSH2 0xF1 JUMP JUMPDEST PUSH1 0x40 MLOAD PUSH2 0x78 SWAP5 SWAP4 SWAP3 SWAP2 SWAP1 PUSH2 0x57A JUMP JUMPDEST PUSH1 0x40 MLOAD DUP1 SWAP2 SUB SWAP1 RETURN JUMPDEST PUSH2 0x9B PUSH1 0x4 DUP1 CALLDATASIZE SUB DUP2 ADD SWAP1 PUSH2 0x96 SWAP2 SWAP1 PUSH2 0x5BD JUMP JUMPDEST PUSH2 0x15B JUMP JUMPDEST STOP JUMPDEST CALLVALUE DUP1 ISZERO PUSH2 0xA8 JUMPI PUSH0 PUSH0 REVERT JUMPDEST POP PUSH2 0xB1 PUSH2 0x48B JUMP JUMPDEST PUSH1 0x40 MLOAD PUSH2 0xBE SWAP2 SWAP1 PUSH2 0x5FB JUMP JUMPDEST PUSH1 0x40 MLOAD DUP1 SWAP2 SUB SWAP1 RETURN JUMPDEST CALLVALUE DUP1 ISZERO PUSH2 0xD2 JUMPI PUSH0 PUSH0 REVERT JUMPDEST POP PUSH2 0xDB PUSH2 0x496 JUMP JUMPDEST PUSH1 0x40 MLOAD PUSH2 0xE8 SWAP2 SWAP1 PUSH2 0x5FB JUMP JUMPDEST PUSH1 0x40 MLOAD DUP1 SWAP2 SUB SWAP1 RETURN JUMPDEST PUSH1 0x1 PUSH1 0x20 MSTORE DUP1 PUSH0 MSTORE PUSH1 0x40 PUSH0 KECCAK256 PUSH0 SWAP2 POP SWAP1 POP DUP1 PUSH0 ADD PUSH0 SWAP1 SLOAD SWAP1 PUSH2 0x100 EXP SWAP1 DIV PUSH20 0xFFFFFFFFFFFFFFFFFFFFFFFFFFFFFFFFFFFFFFFF AND SWAP1 DUP1 PUSH1 0x1 ADD PUSH0 SWAP1 SLOAD SWAP1 PUSH2 0x100 EXP SWAP1 DIV PUSH20 0xFFFFFFFFFFFFFFFFFFFFFFFFFFFFFFFFFFFFFFFF AND SWAP1 DUP1 PUSH1 0x2 ADD SLOAD SWAP1 DUP1 PUSH1 0x3 ADD SLOAD SWAP1 POP DUP5 JUMP JUMPDEST PUSH0 PUSH3 0x15180 DUP3 PUSH2 0x16B SWAP2 SWAP1 PUSH2 0x641 JUMP JUMPDEST SWAP1 POP PUSH0 DUP4 SUB PUSH2 0x1A6 JUMPI PUSH1 0x40 MLOAD PUSH32 0x9B60EB4D00000000000000000000000000000000000000000000000000000000 DUP2 MSTORE PUSH1 0x4 ADD PUSH1 0x40 MLOAD DUP1 SWAP2 SUB SWAP1 REVERT JUMPDEST PUSH7 0x2386F26FC10000 DUP4 LT ISZERO PUSH2 0x1E7 JUMPI PUSH1 0x40 MLOAD PUSH32 0x72CF1F4400000000000000000000000000000000000000000000000000000000 DUP2 MSTORE PUSH1 0x4 ADD PUSH1 0x40 MLOAD DUP1 SWAP2 SUB SWAP1 REVERT JUMPDEST PUSH0 DUP2 SUB PUSH2 0x220 JUMPI PUSH1 0x40 MLOAD PUSH32 0x4DA5D91A00000000000000000000000000000000000000000000000000000000 DUP2 MSTORE PUSH1 0x4 ADD PUSH1 0x40 MLOAD DUP1 SWAP2 SUB SWAP1 REVERT JUMPDEST PUSH3 0x15180 DUP2 GT PUSH2 0x25C JUMPI PUSH1 0x40 MLOAD PUSH32 0x5E0240F900000000000000000000000000000000000000000000000000000000 DUP2 MSTORE PUSH1 0x4 ADD PUSH1 0x40 MLOAD DUP1 SWAP2 SUB SWAP1 REVERT JUMPDEST PUSH4 0x1E13380 DUP2 LT PUSH2 0x299 JUMPI PUSH1 0x40 MLOAD PUSH32 0xFC8F148C00000000000000000000000000000000000000000000000000000000 DUP2 MSTORE PUSH1 0x4 ADD PUSH1 0x40 MLOAD DUP1 SWAP2 SUB SWAP1 REVERT JUMPDEST PUSH7 0x2386F26FC10000 CALLVALUE GT PUSH2 0x2D9 JUMPI PUSH1 0x40 MLOAD PUSH32 0x25DBDD400000000000000000000000000000000000000000000000000000000 DUP2 MSTORE PUSH1 0x4 ADD PUSH1 0x40 MLOAD DUP1 SWAP2 SUB SWAP1 REVERT JUMPDEST PUSH0 PUSH2 0x2E3 DUP5 PUSH2 0x4A1 JUMP JUMPDEST SWAP1 POP PUSH0 CALLER DUP3 DUP6 PUSH1 0x40 MLOAD PUSH2 0x2F5 SWAP1 PUSH2 0x4BD JUMP JUMPDEST PUSH2 0x301 SWAP4 SWAP3 SWAP2 SWAP1 PUSH2 0x682 JUMP JUMPDEST PUSH1 0x40 MLOAD DUP1 SWAP2 SUB SWAP1 PUSH0 CREATE DUP1 ISZERO DUP1 ISZERO PUSH2 0x31A JUMPI RETURNDATASIZE PUSH0 PUSH0 RETURNDATACOPY RETURNDATASIZE PUSH0 REVERT JUMPDEST POP SWAP1 POP PUSH1 0x40 MLOAD DUP1 PUSH1 0x80 ADD PUSH1 0x40 MSTORE DUP1 DUP3 PUSH20 0xFFFFFFFFFFFFFFFFFFFFFFFFFFFFFFFFFFFFFFFF AND DUP2 MSTORE PUSH1 0x20 ADD CALLER PUSH20 0xFFFFFFFFFFFFFFFFFFFFFFFFFFFFFFFFFFFFFFFF AND DUP2 MSTORE PUSH1 0x20 ADD DUP4 DUP2 MSTORE PUSH1 0x20 ADD TIMESTAMP DUP2 MSTORE POP PUSH1 0x1 PUSH0 PUSH0 SLOAD DUP2 MSTORE PUSH1 0x20 ADD SWAP1 DUP2 MSTORE PUSH1 0x20 ADD PUSH0 KECCAK256 PUSH0 DUP3 ADD MLOAD DUP2 PUSH0 ADD PUSH0 PUSH2 0x100 EXP DUP2 SLOAD DUP2 PUSH20 0xFFFFFFFFFFFFFFFFFFFFFFFFFFFFFFFFFFFFFFFF MUL NOT AND SWAP1 DUP4 PUSH20 0xFFFFFFFFFFFFFFFFFFFFFFFFFFFFFFFFFFFFFFFF AND MUL OR SWAP1 SSTORE POP PUSH1 0x20 DUP3 ADD MLOAD DUP2 PUSH1 0x1 ADD PUSH0 PUSH2 0x100 EXP DUP2 SLOAD DUP2 PUSH20 0xFFFFFFFFFFFFFFFFFFFFFFFFFFFFFFFFFFFFFFFF MUL NOT AND SWAP1 DUP4 PUSH20 0xFFFFFFFFFFFFFFFFFFFFFFFFFFFFFFFFFFFFFFFF AND MUL OR SWAP1 SSTORE POP PUSH1 0x40 DUP3 ADD MLOAD DUP2 PUSH1 0x2 ADD SSTORE PUSH1 0x60 DUP3 ADD MLOAD DUP2 PUSH1 0x3 ADD SSTORE SWAP1 POP POP PUSH0 PUSH0 DUP2 SLOAD DUP1 SWAP3 SWAP2 SWAP1 PUSH2 0x42E SWAP1 PUSH2 0x6B7 JUMP JUMPDEST SWAP2 SWAP1 POP SSTORE POP CALLER PUSH20 0xFFFFFFFFFFFFFFFFFFFFFFFFFFFFFFFFFFFFFFFF AND PUSH32 0x681F945F90CA3793B37315ED6A012353C82C1B37CA023EF835C746461359F552 CALLVALUE PUSH0 SLOAD PUSH1 0x40 MLOAD PUSH2 0x47C SWAP3 SWAP2 SWAP1 PUSH2 0x6FE JUMP JUMPDEST PUSH1 0x40 MLOAD DUP1 SWAP2 SUB SWAP1 LOG2 POP POP POP POP POP JUMP JUMPDEST PUSH7 0x2386F26FC10000 DUP2 JUMP JUMPDEST PUSH7 0x2386F26FC10000 DUP2 JUMP JUMPDEST PUSH0 PUSH8 0xDE0B6B3A7640000 DUP3 PUSH2 0x4B6 SWAP2 SWAP1 PUSH2 0x641 JUMP JUMPDEST SWAP1 POP SWAP2 SWAP1 POP JUMP JUMPDEST PUSH2 0x1B1 DUP1 PUSH2 0x726 DUP4 CODECOPY ADD SWAP1 JUMP JUMPDEST PUSH0 PUSH0 REVERT JUMPDEST PUSH0 DUP2 SWAP1 POP SWAP2 SWAP1 POP JUMP JUMPDEST PUSH2 0x4E0 DUP2 PUSH2 0x4CE JUMP JUMPDEST DUP2 EQ PUSH2 0x4EA JUMPI PUSH0 PUSH0 REVERT JUMPDEST POP JUMP JUMPDEST PUSH0 DUP2 CALLDATALOAD SWAP1 POP PUSH2 0x4FB DUP2 PUSH2 0x4D7 JUMP JUMPDEST SWAP3 SWAP2 POP POP JUMP JUMPDEST PUSH0 PUSH1 0x20 DUP3 DUP5 SUB SLT ISZERO PUSH2 0x516 JUMPI PUSH2 0x515 PUSH2 0x4CA JUMP JUMPDEST JUMPDEST PUSH0 PUSH2 0x523 DUP5 DUP3 DUP6 ADD PUSH2 0x4ED JUMP JUMPDEST SWAP2 POP POP SWAP3 SWAP2 POP POP JUMP JUMPDEST PUSH0 PUSH20 0xFFFFFFFFFFFFFFFFFFFFFFFFFFFFFFFFFFFFFFFF DUP3 AND SWAP1 POP SWAP2 SWAP1 POP JUMP JUMPDEST PUSH0 PUSH2 0x555 DUP3 PUSH2 0x52C JUMP JUMPDEST SWAP1 POP SWAP2 SWAP1 POP JUMP JUMPDEST PUSH2 0x565 DUP2 PUSH2 0x54B JUMP JUMPDEST DUP3 MSTORE POP POP JUMP JUMPDEST PUSH2 0x574 DUP2 PUSH2 0x4CE JUMP JUMPDEST DUP3 MSTORE POP POP JUMP JUMPDEST PUSH0 PUSH1 0x80 DUP3 ADD SWAP1 POP PUSH2 0x58D PUSH0 DUP4 ADD DUP8 PUSH2 0x55C JUMP JUMPDEST PUSH2 0x59A PUSH1 0x20 DUP4 ADD DUP7 PUSH2 0x55C JUMP JUMPDEST PUSH2 0x5A7 PUSH1 0x40 DUP4 ADD DUP6 PUSH2 0x56B JUMP JUMPDEST PUSH2 0x5B4 PUSH1 0x60 DUP4 ADD DUP5 PUSH2 0x56B JUMP JUMPDEST SWAP6 SWAP5 POP POP POP POP POP JUMP JUMPDEST PUSH0 PUSH0 PUSH1 0x40 DUP4 DUP6 SUB SLT ISZERO PUSH2 0x5D3 JUMPI PUSH2 0x5D2 PUSH2 0x4CA JUMP JUMPDEST JUMPDEST PUSH0 PUSH2 0x5E0 DUP6 DUP3 DUP7 ADD PUSH2 0x4ED JUMP JUMPDEST SWAP3 POP POP PUSH1 0x20 PUSH2 0x5F1 DUP6 DUP3 DUP7 ADD PUSH2 0x4ED JUMP JUMPDEST SWAP2 POP POP SWAP3 POP SWAP3 SWAP1 POP JUMP JUMPDEST PUSH0 PUSH1 0x20 DUP3 ADD SWAP1 POP PUSH2 0x60E PUSH0 DUP4 ADD DUP5 PUSH2 0x56B JUMP JUMPDEST SWAP3 SWAP2 POP POP JUMP JUMPDEST PUSH32 0x4E487B7100000000000000000000000000000000000000000000000000000000 PUSH0 MSTORE PUSH1 0x11 PUSH1 0x4 MSTORE PUSH1 0x24 PUSH0 REVERT JUMPDEST PUSH0 PUSH2 0x64B DUP3 PUSH2 0x4CE JUMP JUMPDEST SWAP2 POP PUSH2 0x656 DUP4 PUSH2 0x4CE JUMP JUMPDEST SWAP3 POP DUP3 DUP3 MUL PUSH2 0x664 DUP2 PUSH2 0x4CE JUMP JUMPDEST SWAP2 POP DUP3 DUP3 DIV DUP5 EQ DUP4 ISZERO OR PUSH2 0x67B JUMPI PUSH2 0x67A PUSH2 0x614 JUMP JUMPDEST JUMPDEST POP SWAP3 SWAP2 POP POP JUMP JUMPDEST PUSH0 PUSH1 0x60 DUP3 ADD SWAP1 POP PUSH2 0x695 PUSH0 DUP4 ADD DUP7 PUSH2 0x55C JUMP JUMPDEST PUSH2 0x6A2 PUSH1 0x20 DUP4 ADD DUP6 PUSH2 0x56B JUMP JUMPDEST PUSH2 0x6AF PUSH1 0x40 DUP4 ADD DUP5 PUSH2 0x56B JUMP JUMPDEST SWAP5 SWAP4 POP POP POP POP JUMP JUMPDEST PUSH0 PUSH2 0x6C1 DUP3 PUSH2 0x4CE JUMP JUMPDEST SWAP2 POP PUSH32 0xFFFFFFFFFFFFFFFFFFFFFFFFFFFFFFFFFFFFFFFFFFFFFFFFFFFFFFFFFFFFFFFF DUP3 SUB PUSH2 0x6F3 JUMPI PUSH2 0x6F2 PUSH2 0x614 JUMP JUMPDEST JUMPDEST PUSH1 0x1 DUP3 ADD SWAP1 POP SWAP2 SWAP1 POP JUMP JUMPDEST PUSH0 PUSH1 0x40 DUP3 ADD SWAP1 POP PUSH2 0x711 PUSH0 DUP4 ADD DUP6 PUSH2 0x56B JUMP JUMPDEST PUSH2 0x71E PUSH1 0x20 DUP4 ADD DUP5 PUSH2 0x56B JUMP JUMPDEST SWAP4 SWAP3 POP POP POP JUMP INVALID PUSH1 0x80 PUSH1 0x40 MSTORE CALLVALUE DUP1 ISZERO PUSH2 0xF JUMPI PUSH0 PUSH0 REVERT JUMPDEST POP PUSH1 0x40 MLOAD PUSH2 0x1B1 CODESIZE SUB DUP1 PUSH2 0x1B1 DUP4 CODECOPY DUP2 DUP2 ADD PUSH1 0x40 MSTORE DUP2 ADD SWAP1 PUSH2 0x31 SWAP2 SWAP1 PUSH2 0x117 JUMP JUMPDEST DUP3 PUSH1 0x2 PUSH0 PUSH2 0x100 EXP DUP2 SLOAD DUP2 PUSH20 0xFFFFFFFFFFFFFFFFFFFFFFFFFFFFFFFFFFFFFFFF MUL NOT AND SWAP1 DUP4 PUSH20 0xFFFFFFFFFFFFFFFFFFFFFFFFFFFFFFFFFFFFFFFF AND MUL OR SWAP1 SSTORE POP DUP2 PUSH0 DUP2 SWAP1 SSTORE POP DUP1 PUSH1 0x1 DUP2 SWAP1 SSTORE POP POP POP POP PUSH2 0x167 JUMP JUMPDEST PUSH0 PUSH0 REVERT JUMPDEST PUSH0 PUSH20 0xFFFFFFFFFFFFFFFFFFFFFFFFFFFFFFFFFFFFFFFF DUP3 AND SWAP1 POP SWAP2 SWAP1 POP JUMP JUMPDEST PUSH0 PUSH2 0xB3 DUP3 PUSH2 0x8A JUMP JUMPDEST SWAP1 POP SWAP2 SWAP1 POP JUMP JUMPDEST PUSH2 0xC3 DUP2 PUSH2 0xA9 JUMP JUMPDEST DUP2 EQ PUSH2 0xCD JUMPI PUSH0 PUSH0 REVERT JUMPDEST POP JUMP JUMPDEST PUSH0 DUP2 MLOAD SWAP1 POP PUSH2 0xDE DUP2 PUSH2 0xBA JUMP JUMPDEST SWAP3 SWAP2 POP POP JUMP JUMPDEST PUSH0 DUP2 SWAP1 POP SWAP2 SWAP1 POP JUMP JUMPDEST PUSH2 0xF6 DUP2 PUSH2 0xE4 JUMP JUMPDEST DUP2 EQ PUSH2 0x100 JUMPI PUSH0 PUSH0 REVERT JUMPDEST POP JUMP JUMPDEST PUSH0 DUP2 MLOAD SWAP1 POP PUSH2 0x111 DUP2 PUSH2 0xED JUMP JUMPDEST SWAP3 SWAP2 POP POP JUMP JUMPDEST PUSH0 PUSH0 PUSH0 PUSH1 0x60 DUP5 DUP7 SUB SLT ISZERO PUSH2 0x12E JUMPI PUSH2 0x12D PUSH2 0x86 JUMP JUMPDEST JUMPDEST PUSH0 PUSH2 0x13B DUP7 DUP3 DUP8 ADD PUSH2 0xD0 JUMP JUMPDEST SWAP4 POP POP PUSH1 0x20 PUSH2 0x14C DUP7 DUP3 DUP8 ADD PUSH2 0x103 JUMP JUMPDEST SWAP3 POP POP PUSH1 0x40 PUSH2 0x15D DUP7 DUP3 DUP8 ADD PUSH2 0x103 JUMP JUMPDEST SWAP2 POP POP SWAP3 POP SWAP3 POP SWAP3 JUMP JUMPDEST PUSH1 0x3E DUP1 PUSH2 0x173 PUSH0 CODECOPY PUSH0 RETURN INVALID PUSH1 0x80 PUSH1 0x40 MSTORE PUSH0 PUSH0 REVERT INVALID LOG2 PUSH5 0x6970667358 0x22 SLT KECCAK256 0x4C 0xC5 PUSH5 0x7EF330D3A PUSH22 0xCC53B81EF43700034BFA9AE64E2091D7824580B87A35 0x24 PUSH5 0x736F6C6343 STOP ADDMOD 0x1E STOP CALLER LOG2 PUSH5 0x6970667358 0x22 SLT KECCAK256 0xD7 PUSH10 0x601C13396914D0A01EB2 SELFDESTRUCT PUSH19 0x23B3CB86D76F39204EE5123FF05AF442AD4964 PUSH20 0x6F6C634300081E00330000000000000000000000 "
		},
		"gasEstimates": {
			"creation": {
				"codeDepositCost": "463200",
				"executionCost": "497",
				"totalCost": "463697"
			},
			"external": {
				"CREATION_FEE()": "347",
				"MINIMUM_USD()": "369",
				"campaigns(uint256)": "infinite",
				"createCampaign(uint256,uint256)": "infinite"
			}
		},
		"methodIdentifiers": {
			"CREATION_FEE()": "49a2104d",
			"MINIMUM_USD()": "6b69a592",
			"campaigns(uint256)": "141961bc",
			"createCampaign(uint256,uint256)": "22502268"
		}
	},
	"abi": [
		{
			"inputs": [],
			"name": "DeadLineToFar",
			"type": "error"
		},
		{
			"inputs": [],
			"name": "DeadLineTooClose",
			"type": "error"
		},
		{
			"inputs": [],
			"name": "InsufficientFee",
			"type": "error"
		},
		{
			"inputs": [],
			"name": "InvalidDeadLine",
			"type": "error"
		},
		{
			"inputs": [],
			"name": "InvalidGoal",
			"type": "error"
		},
		{
			"inputs": [],
			"name": "LessThanMinimumGoal",
			"type": "error"
		},
		{
			"anonymous": false,
			"inputs": [
				{
					"indexed": true,
					"internalType": "address",
					"name": "creator",
					"type": "address"
				},
				{
					"indexed": false,
					"internalType": "uint256",
					"name": "feesPaid",
					"type": "uint256"
				},
				{
					"indexed": false,
					"internalType": "uint256",
					"name": "campaignId",
					"type": "uint256"
				}
			],
			"name": "CampaignCreated",
			"type": "event"
		},
		{
			"inputs": [],
			"name": "CREATION_FEE",
			"outputs": [
				{
					"internalType": "uint256",
					"name": "",
					"type": "uint256"
				}
			],
			"stateMutability": "view",
			"type": "function"
		},
		{
			"inputs": [],
			"name": "MINIMUM_USD",
			"outputs": [
				{
					"internalType": "uint256",
					"name": "",
					"type": "uint256"
				}
			],
			"stateMutability": "view",
			"type": "function"
		},
		{
			"inputs": [
				{
					"internalType": "uint256",
					"name": "",
					"type": "uint256"
				}
			],
			"name": "campaigns",
			"outputs": [
				{
					"internalType": "address",
					"name": "campaignAddress",
					"type": "address"
				},
				{
					"internalType": "address",
					"name": "creator",
					"type": "address"
				},
				{
					"internalType": "uint256",
					"name": "goal",
					"type": "uint256"
				},
				{
					"internalType": "uint256",
					"name": "createdAt",
					"type": "uint256"
				}
			],
			"stateMutability": "view",
			"type": "function"
		},
		{
			"inputs": [
				{
					"internalType": "uint256",
					"name": "_goal",
					"type": "uint256"
				},
				{
					"internalType": "uint256",
					"name": "_deadine",
					"type": "uint256"
				}
			],
			"name": "createCampaign",
			"outputs": [],
			"stateMutability": "payable",
			"type": "function"
		}
	]
}